{
	"data": {
		"bytecode": {
			"linkReferences": {},
			"object": "6080604052662386f26fc1000060025534801561001b57600080fd5b5061003861002d61003d60201b60201c565b61004560201b60201c565b610109565b600033905090565b60008060009054906101000a900473ffffffffffffffffffffffffffffffffffffffff169050816000806101000a81548173ffffffffffffffffffffffffffffffffffffffff021916908373ffffffffffffffffffffffffffffffffffffffff1602179055508173ffffffffffffffffffffffffffffffffffffffff168173ffffffffffffffffffffffffffffffffffffffff167f8be0079c531659141344cd1fd0a4f28419497f9722a3daafe3b4186f6b6457e060405160405180910390a35050565b6149c080620001196000396000f3fe608060405260043610620001165760003560e01c8063a26dbf2611620000a3578063c3f296a3116200006d578063c3f296a3146200037f578063c59d484714620003c3578063cbcab78714620003f4578063e36465a31462000424578063f2fde38b14620004695762000116565b8063a26dbf261462000299578063b12821eb14620002c9578063bda40d5c146200030d578063bf21695f14620003515762000116565b80637788a7ee11620000e55780637788a7ee14620001c75780638da5cb5b14620001f757806390838e09146200022757806391b7f5ed146200026b5762000116565b80632e1114ec146200011b57806367db08de146200015f578063715018a6146200018d57806375102dd214620001a7575b600080fd5b3480156200012857600080fd5b50620001476004803603810190620001419190620011fb565b62000497565b60405162000156919062001344565b60405180910390f35b3480156200016c57600080fd5b506200018b600480360381019062000185919062001399565b620005fa565b005b3480156200019a57600080fd5b50620001a562000701565b005b620001c56004803603810190620001bf919062001632565b62000719565b005b348015620001d457600080fd5b50620001df620009c0565b604051620001ee919062001747565b60405180910390f35b3480156200020457600080fd5b506200020f620009c6565b6040516200021e919062001775565b60405180910390f35b3480156200023457600080fd5b506200025360048036038101906200024d919062001792565b620009ef565b60405162000262919062001747565b60405180910390f35b3480156200027857600080fd5b50620002976004803603810190620002919190620017c4565b62000a07565b005b348015620002a657600080fd5b50620002b162000a1b565b604051620002c0919062001747565b60405180910390f35b348015620002d657600080fd5b50620002f56004803603810190620002ef9190620017f6565b62000a21565b60405162000304919062001775565b60405180910390f35b3480156200031a57600080fd5b50620003396004803603810190620003339190620017c4565b62000a70565b60405162000348919062001775565b60405180910390f35b3480156200035e57600080fd5b506200037d60048036038101906200037791906200183d565b62000aa3565b005b3480156200038c57600080fd5b50620003ab6004803603810190620003a5919062001792565b62000cfb565b604051620003ba919062001747565b60405180910390f35b348015620003d057600080fd5b50620003db62000d13565b604051620003eb92919062001884565b60405180910390f35b3480156200040157600080fd5b506200040c62000d24565b6040516200041b919062001747565b60405180910390f35b3480156200043157600080fd5b506200045060048036038101906200044a919062001792565b62000d2a565b604051620004609291906200197f565b60405180910390f35b3480156200047657600080fd5b506200049560048036038101906200048f919062001792565b62000fc2565b005b60606001548210620004b65760018054620004b39190620019e9565b91505b600060018484620004c89190620019e9565b620004d4919062001a24565b90506000808267ffffffffffffffff811115620004f657620004f56200140b565b5b604051908082528060200260200182016040528015620005255781602001602082028036833780820191505090505b50905060008690505b858111620005ed5760046000828962000548919062001a24565b815260200190815260200160002060009054906101000a900473ffffffffffffffffffffffffffffffffffffffff168284815181106200058d576200058c62001a81565b5b602002602001019073ffffffffffffffffffffffffffffffffffffffff16908173ffffffffffffffffffffffffffffffffffffffff16815250508280620005d49062001ab0565b9350508080620005e49062001ab0565b9150506200052e565b5080935050505092915050565b600760003373ffffffffffffffffffffffffffffffffffffffff1673ffffffffffffffffffffffffffffffffffffffff16815260200190815260200160002060009054906101000a900460ff1662000689576040517f08c379a0000000000000000000000000000000000000000000000000000000008152600401620006809062001b5f565b60405180910390fd5b82600660008373ffffffffffffffffffffffffffffffffffffffff1673ffffffffffffffffffffffffffffffffffffffff1681526020019081526020016000206000828254620006da919062001a24565b925050819055508160036000828254620006f5919062001a24565b92505081905550505050565b6200070b6200104d565b620007176000620010d2565b565b60025434101562000761576040517f08c379a0000000000000000000000000000000000000000000000000000000008152600401620007589062001bd1565b60405180910390fd5b600085853386868660405162000777906200119e565b620007889695949392919062001c75565b604051809103906000f080158015620007a5573d6000803e3d6000fd5b5090508073ffffffffffffffffffffffffffffffffffffffff1663f2fde38b620007ce620009c6565b6040518263ffffffff1660e01b8152600401620007ec919062001775565b600060405180830381600087803b1580156200080757600080fd5b505af11580156200081c573d6000803e3d6000fd5b505050506200082a620009c6565b73ffffffffffffffffffffffffffffffffffffffff166108fc349081150290604051600060405180830381858888f1935050505015801562000870573d6000803e3d6000fd5b508060046000600154815260200190815260200160002060006101000a81548173ffffffffffffffffffffffffffffffffffffffff021916908373ffffffffffffffffffffffffffffffffffffffff160217905550600154600560008373ffffffffffffffffffffffffffffffffffffffff1673ffffffffffffffffffffffffffffffffffffffff1681526020019081526020016000208190555060016000815480929190620009209062001ab0565b91905055506001600760008373ffffffffffffffffffffffffffffffffffffffff1673ffffffffffffffffffffffffffffffffffffffff16815260200190815260200160002060006101000a81548160ff0219169083151502179055507ff0b286ea8e415aa6c494031bdb9b350083555233b508f5d265056ead4f264de98133604051620009b092919062001cfe565b60405180910390a1505050505050565b60025481565b60008060009054906101000a900473ffffffffffffffffffffffffffffffffffffffff16905090565b60066020528060005260406000206000915090505481565b62000a116200104d565b8060028190555050565b60035481565b6008602052816000526040600020818154811062000a3e57600080fd5b906000526020600020016000915091509054906101000a900473ffffffffffffffffffffffffffffffffffffffff1681565b60046020528060005260406000206000915054906101000a900473ffffffffffffffffffffffffffffffffffffffff1681565b600760003373ffffffffffffffffffffffffffffffffffffffff1673ffffffffffffffffffffffffffffffffffffffff16815260200190815260200160002060009054906101000a900460ff1662000b32576040517f08c379a000000000000000000000000000000000000000000000000000000000815260040162000b299062001b5f565b60405180910390fd5b600960008373ffffffffffffffffffffffffffffffffffffffff1673ffffffffffffffffffffffffffffffffffffffff16815260200190815260200160002060008273ffffffffffffffffffffffffffffffffffffffff1673ffffffffffffffffffffffffffffffffffffffff16815260200190815260200160002060009054906101000a900460ff1662000cf757600860008373ffffffffffffffffffffffffffffffffffffffff1673ffffffffffffffffffffffffffffffffffffffff168152602001908152602001600020819080600181540180825580915050600190039060005260206000200160009091909190916101000a81548173ffffffffffffffffffffffffffffffffffffffff021916908373ffffffffffffffffffffffffffffffffffffffff1602179055506001600960008473ffffffffffffffffffffffffffffffffffffffff1673ffffffffffffffffffffffffffffffffffffffff16815260200190815260200160002060008373ffffffffffffffffffffffffffffffffffffffff1673ffffffffffffffffffffffffffffffffffffffff16815260200190815260200160002060006101000a81548160ff0219169083151502179055505b5050565b60056020528060005260406000206000915090505481565b600080600154915060035490509091565b60015481565b6060806000600860008573ffffffffffffffffffffffffffffffffffffffff1673ffffffffffffffffffffffffffffffffffffffff1681526020019081526020016000208054905090508067ffffffffffffffff81111562000d915762000d906200140b565b5b60405190808252806020026020018201604052801562000dc05781602001602082028036833780820191505090505b5092508067ffffffffffffffff81111562000de05762000ddf6200140b565b5b60405190808252806020026020018201604052801562000e0f5781602001602082028036833780820191505090505b50915060005b8181101562000fbb576000600860008773ffffffffffffffffffffffffffffffffffffffff1673ffffffffffffffffffffffffffffffffffffffff168152602001908152602001600020828154811062000e745762000e7362001a81565b5b9060005260206000200160009054906101000a900473ffffffffffffffffffffffffffffffffffffffff169050600560008273ffffffffffffffffffffffffffffffffffffffff1673ffffffffffffffffffffffffffffffffffffffff1681526020019081526020016000205485838151811062000ef75762000ef662001a81565b5b6020026020010181815250508073ffffffffffffffffffffffffffffffffffffffff16634a4643f7876040518263ffffffff1660e01b815260040162000f3e919062001775565b602060405180830381865afa15801562000f5c573d6000803e3d6000fd5b505050506040513d601f19601f8201168201806040525081019062000f82919062001d42565b84838151811062000f985762000f9762001a81565b5b60200260200101818152505050808062000fb29062001ab0565b91505062000e15565b5050915091565b62000fcc6200104d565b600073ffffffffffffffffffffffffffffffffffffffff168173ffffffffffffffffffffffffffffffffffffffff1614156200103f576040517f08c379a0000000000000000000000000000000000000000000000000000000008152600401620010369062001dea565b60405180910390fd5b6200104a81620010d2565b50565b6200105762001196565b73ffffffffffffffffffffffffffffffffffffffff1662001077620009c6565b73ffffffffffffffffffffffffffffffffffffffff1614620010d0576040517f08c379a0000000000000000000000000000000000000000000000000000000008152600401620010c79062001e5c565b60405180910390fd5b565b60008060009054906101000a900473ffffffffffffffffffffffffffffffffffffffff169050816000806101000a81548173ffffffffffffffffffffffffffffffffffffffff021916908373ffffffffffffffffffffffffffffffffffffffff1602179055508173ffffffffffffffffffffffffffffffffffffffff168173ffffffffffffffffffffffffffffffffffffffff167f8be0079c531659141344cd1fd0a4f28419497f9722a3daafe3b4186f6b6457e060405160405180910390a35050565b600033905090565b612b0c8062001e7f83390190565b6000604051905090565b600080fd5b600080fd5b6000819050919050565b620011d581620011c0565b8114620011e157600080fd5b50565b600081359050620011f581620011ca565b92915050565b60008060408385031215620012155762001214620011b6565b5b60006200122585828601620011e4565b92505060206200123885828601620011e4565b9150509250929050565b600081519050919050565b600082825260208201905092915050565b6000819050602082019050919050565b600073ffffffffffffffffffffffffffffffffffffffff82169050919050565b60006200129b826200126e565b9050919050565b620012ad816200128e565b82525050565b6000620012c18383620012a2565b60208301905092915050565b6000602082019050919050565b6000620012e78262001242565b620012f381856200124d565b935062001300836200125e565b8060005b83811015620013375781516200131b8882620012b3565b97506200132883620012cd565b92505060018101905062001304565b5085935050505092915050565b60006020820190508181036000830152620013608184620012da565b905092915050565b62001373816200128e565b81146200137f57600080fd5b50565b600081359050620013938162001368565b92915050565b600080600060608486031215620013b557620013b4620011b6565b5b6000620013c586828701620011e4565b9350506020620013d886828701620011e4565b9250506040620013eb8682870162001382565b9150509250925092565b600080fd5b6000601f19601f8301169050919050565b7f4e487b7100000000000000000000000000000000000000000000000000000000600052604160045260246000fd5b6200144582620013fa565b810181811067ffffffffffffffff821117156200146757620014666200140b565b5b80604052505050565b60006200147c620011ac565b90506200148a82826200143a565b919050565b600067ffffffffffffffff821115620014ad57620014ac6200140b565b5b602082029050602081019050919050565b600080fd5b6000620014da620014d4846200148f565b62001470565b905080838252602082019050602084028301858111156200150057620014ff620014be565b5b835b818110156200152d5780620015188882620011e4565b84526020840193505060208101905062001502565b5050509392505050565b600082601f8301126200154f576200154e620013f5565b5b813562001561848260208601620014c3565b91505092915050565b600080fd5b600067ffffffffffffffff8211156200158d576200158c6200140b565b5b6200159882620013fa565b9050602081019050919050565b82818337600083830152505050565b6000620015cb620015c5846200156f565b62001470565b905082815260208101848484011115620015ea57620015e96200156a565b5b620015f7848285620015a5565b509392505050565b600082601f830112620016175762001616620013f5565b5b813562001629848260208601620015b4565b91505092915050565b600080600080600060a08688031215620016515762001650620011b6565b5b600086013567ffffffffffffffff811115620016725762001671620011bb565b5b620016808882890162001537565b955050602086013567ffffffffffffffff811115620016a457620016a3620011bb565b5b620016b28882890162001537565b9450506040620016c58882890162001382565b935050606086013567ffffffffffffffff811115620016e957620016e8620011bb565b5b620016f788828901620015ff565b925050608086013567ffffffffffffffff8111156200171b576200171a620011bb565b5b6200172988828901620015ff565b9150509295509295909350565b6200174181620011c0565b82525050565b60006020820190506200175e600083018462001736565b92915050565b6200176f816200128e565b82525050565b60006020820190506200178c600083018462001764565b92915050565b600060208284031215620017ab57620017aa620011b6565b5b6000620017bb8482850162001382565b91505092915050565b600060208284031215620017dd57620017dc620011b6565b5b6000620017ed84828501620011e4565b91505092915050565b6000806040838503121562001810576200180f620011b6565b5b6000620018208582860162001382565b92505060206200183385828601620011e4565b9150509250929050565b60008060408385031215620018575762001856620011b6565b5b6000620018678582860162001382565b92505060206200187a8582860162001382565b9150509250929050565b60006040820190506200189b600083018562001736565b620018aa602083018462001736565b9392505050565b600081519050919050565b600082825260208201905092915050565b6000819050602082019050919050565b620018e881620011c0565b82525050565b6000620018fc8383620018dd565b60208301905092915050565b6000602082019050919050565b60006200192282620018b1565b6200192e8185620018bc565b93506200193b83620018cd565b8060005b8381101562001972578151620019568882620018ee565b9750620019638362001908565b9250506001810190506200193f565b5085935050505092915050565b600060408201905081810360008301526200199b818562001915565b90508181036020830152620019b1818462001915565b90509392505050565b7f4e487b7100000000000000000000000000000000000000000000000000000000600052601160045260246000fd5b6000620019f682620011c0565b915062001a0383620011c0565b92508282101562001a195762001a18620019ba565b5b828203905092915050565b600062001a3182620011c0565b915062001a3e83620011c0565b9250827fffffffffffffffffffffffffffffffffffffffffffffffffffffffffffffffff0382111562001a765762001a75620019ba565b5b828201905092915050565b7f4e487b7100000000000000000000000000000000000000000000000000000000600052603260045260246000fd5b600062001abd82620011c0565b91507fffffffffffffffffffffffffffffffffffffffffffffffffffffffffffffffff82141562001af35762001af2620019ba565b5b600182019050919050565b600082825260208201905092915050565b7f4f6e6c79206c61756e6368706164732063616e20616464000000000000000000600082015250565b600062001b4760178362001afe565b915062001b548262001b0f565b602082019050919050565b6000602082019050818103600083015262001b7a8162001b38565b9050919050565b7f4e6f7420656e6f756768207061796d656e7420746f206465706c6f7900000000600082015250565b600062001bb9601c8362001afe565b915062001bc68262001b81565b602082019050919050565b6000602082019050818103600083015262001bec8162001baa565b9050919050565b600081519050919050565b60005b8381101562001c1e57808201518184015260208101905062001c01565b8381111562001c2e576000848401525b50505050565b600062001c418262001bf3565b62001c4d818562001afe565b935062001c5f81856020860162001bfe565b62001c6a81620013fa565b840191505092915050565b600060c082019050818103600083015262001c91818962001915565b9050818103602083015262001ca7818862001915565b905062001cb8604083018762001764565b62001cc7606083018662001764565b818103608083015262001cdb818562001c34565b905081810360a083015262001cf1818462001c34565b9050979650505050505050565b600060408201905062001d15600083018562001764565b62001d24602083018462001764565b9392505050565b60008151905062001d3c81620011ca565b92915050565b60006020828403121562001d5b5762001d5a620011b6565b5b600062001d6b8482850162001d2b565b91505092915050565b7f4f776e61626c653a206e6577206f776e657220697320746865207a65726f206160008201527f6464726573730000000000000000000000000000000000000000000000000000602082015250565b600062001dd260268362001afe565b915062001ddf8262001d74565b604082019050919050565b6000602082019050818103600083015262001e058162001dc3565b9050919050565b7f4f776e61626c653a2063616c6c6572206973206e6f7420746865206f776e6572600082015250565b600062001e4460208362001afe565b915062001e518262001e0c565b602082019050919050565b6000602082019050818103600083015262001e778162001e35565b905091905056fe60806040523480156200001157600080fd5b5060405162002b0c38038062002b0c83398181016040528101906200003791906200079d565b620000576200004b6200030960201b60201c565b6200031160201b60201c565b60008060146101000a81548160ff021916908315150217905550612710670de0b6b3a764000087600081518110620000945762000093620008b5565b5b6020026020010151620000a8919062000913565b620000b49190620009a3565b600181905550612710670de0b6b3a764000087600181518110620000dd57620000dc620008b5565b5b6020026020010151620000f1919062000913565b620000fd9190620009a3565b600281905550846000815181106200011a5762000119620008b5565b5b6020026020010151600381905550846001815181106200013f576200013e620008b5565b5b602002602001015160048190555083600960006101000a81548173ffffffffffffffffffffffffffffffffffffffff021916908373ffffffffffffffffffffffffffffffffffffffff16021790555082600a60006101000a81548173ffffffffffffffffffffffffffffffffffffffff021916908373ffffffffffffffffffffffffffffffffffffffff160217905550600073ffffffffffffffffffffffffffffffffffffffff16600a60009054906101000a900473ffffffffffffffffffffffffffffffffffffffff1673ffffffffffffffffffffffffffffffffffffffff16146200028a57600a60009054906101000a900473ffffffffffffffffffffffffffffffffffffffff16600d60006101000a81548173ffffffffffffffffffffffffffffffffffffffff021916908373ffffffffffffffffffffffffffffffffffffffff1602179055505b8160079080519060200190620002a2929190620003d5565b508060089080519060200190620002bb929190620003d5565b5033600c60006101000a81548173ffffffffffffffffffffffffffffffffffffffff021916908373ffffffffffffffffffffffffffffffffffffffff16021790555050505050505062000a40565b600033905090565b60008060009054906101000a900473ffffffffffffffffffffffffffffffffffffffff169050816000806101000a81548173ffffffffffffffffffffffffffffffffffffffff021916908373ffffffffffffffffffffffffffffffffffffffff1602179055508173ffffffffffffffffffffffffffffffffffffffff168173ffffffffffffffffffffffffffffffffffffffff167f8be0079c531659141344cd1fd0a4f28419497f9722a3daafe3b4186f6b6457e060405160405180910390a35050565b828054620003e39062000a0a565b90600052602060002090601f01602090048101928262000407576000855562000453565b82601f106200042257805160ff191683800117855562000453565b8280016001018555821562000453579182015b828111156200045257825182559160200191906001019062000435565b5b50905062000462919062000466565b5090565b5b808211156200048157600081600090555060010162000467565b5090565b6000604051905090565b600080fd5b600080fd5b600080fd5b6000601f19601f8301169050919050565b7f4e487b7100000000000000000000000000000000000000000000000000000000600052604160045260246000fd5b620004e9826200049e565b810181811067ffffffffffffffff821117156200050b576200050a620004af565b5b80604052505050565b60006200052062000485565b90506200052e8282620004de565b919050565b600067ffffffffffffffff821115620005515762000550620004af565b5b602082029050602081019050919050565b600080fd5b6000819050919050565b6200057c8162000567565b81146200058857600080fd5b50565b6000815190506200059c8162000571565b92915050565b6000620005b9620005b38462000533565b62000514565b90508083825260208201905060208402830185811115620005df57620005de62000562565b5b835b818110156200060c5780620005f788826200058b565b845260208401935050602081019050620005e1565b5050509392505050565b600082601f8301126200062e576200062d62000499565b5b815162000640848260208601620005a2565b91505092915050565b600073ffffffffffffffffffffffffffffffffffffffff82169050919050565b6000620006768262000649565b9050919050565b620006888162000669565b81146200069457600080fd5b50565b600081519050620006a8816200067d565b92915050565b600080fd5b600067ffffffffffffffff821115620006d157620006d0620004af565b5b620006dc826200049e565b9050602081019050919050565b60005b8381101562000709578082015181840152602081019050620006ec565b8381111562000719576000848401525b50505050565b6000620007366200073084620006b3565b62000514565b905082815260208101848484011115620007555762000754620006ae565b5b62000762848285620006e9565b509392505050565b600082601f83011262000782576200078162000499565b5b8151620007948482602086016200071f565b91505092915050565b60008060008060008060c08789031215620007bd57620007bc6200048f565b5b600087015167ffffffffffffffff811115620007de57620007dd62000494565b5b620007ec89828a0162000616565b965050602087015167ffffffffffffffff81111562000810576200080f62000494565b5b6200081e89828a0162000616565b95505060406200083189828a0162000697565b94505060606200084489828a0162000697565b935050608087015167ffffffffffffffff81111562000868576200086762000494565b5b6200087689828a016200076a565b92505060a087015167ffffffffffffffff8111156200089a576200089962000494565b5b620008a889828a016200076a565b9150509295509295509295565b7f4e487b7100000000000000000000000000000000000000000000000000000000600052603260045260246000fd5b7f4e487b7100000000000000000000000000000000000000000000000000000000600052601160045260246000fd5b6000620009208262000567565b91506200092d8362000567565b9250817fffffffffffffffffffffffffffffffffffffffffffffffffffffffffffffffff0483118215151615620009695762000968620008e4565b5b828202905092915050565b7f4e487b7100000000000000000000000000000000000000000000000000000000600052601260045260246000fd5b6000620009b08262000567565b9150620009bd8362000567565b925082620009d057620009cf62000974565b5b828204905092915050565b7f4e487b7100000000000000000000000000000000000000000000000000000000600052602260045260246000fd5b6000600282049050600182168062000a2357607f821691505b6020821081141562000a3a5762000a39620009db565b5b50919050565b6120bc8062000a506000396000f3fe6080604052600436106101145760003560e01c8063827f38cf116100a0578063bb27fbe311610064578063bb27fbe314610349578063bd205b0d14610374578063d96a094a146103a3578063f2fde38b146103bf578063fb86a404146103e857610114565b8063827f38cf146102865780638da5cb5b146102b1578063906a26e0146102dc5780639a33e30014610307578063b5545a3c1461033257610114565b80636e7e3b2b116100e75780636e7e3b2b146101c3578063715018a6146101ee578063779552451461020557806378e97925146102305780637d8820971461025b57610114565b80631226cd2b146101195780633197cbb6146101305780634a4643f71461015b5780635c975abb14610198575b600080fd5b34801561012557600080fd5b5061012e610413565b005b34801561013c57600080fd5b506101456107ba565b60405161015291906114c3565b60405180910390f35b34801561016757600080fd5b50610182600480360381019061017d9190611541565b6107c0565b60405161018f91906114c3565b60405180910390f35b3480156101a457600080fd5b506101ad6107d8565b6040516101ba9190611589565b60405180910390f35b3480156101cf57600080fd5b506101d86107ee565b6040516101e591906114c3565b60405180910390f35b3480156101fa57600080fd5b506102036107f4565b005b34801561021157600080fd5b5061021a610808565b60405161022791906115b3565b60405180910390f35b34801561023c57600080fd5b5061024561082e565b60405161025291906114c3565b60405180910390f35b34801561026757600080fd5b50610270610834565b60405161027d91906114c3565b60405180910390f35b34801561029257600080fd5b5061029b61083a565b6040516102a891906115b3565b60405180910390f35b3480156102bd57600080fd5b506102c6610860565b6040516102d391906115b3565b60405180910390f35b3480156102e857600080fd5b506102f1610889565b6040516102fe91906114c3565b60405180910390f35b34801561031357600080fd5b5061031c61088f565b6040516103299190611667565b60405180910390f35b34801561033e57600080fd5b5061034761091d565b005b34801561035557600080fd5b5061035e610b23565b60405161036b9190611667565b60405180910390f35b34801561038057600080fd5b50610389610bb1565b60405161039a959493929190611747565b60405180910390f35b6103bd60048036038101906103b891906117db565b610e42565b005b3480156103cb57600080fd5b506103e660048036038101906103e19190611541565b611231565b005b3480156103f457600080fd5b506103fd6112b5565b60405161040a91906114c3565b60405180910390f35b61041b610860565b73ffffffffffffffffffffffffffffffffffffffff163373ffffffffffffffffffffffffffffffffffffffff1614806104a15750600960009054906101000a900473ffffffffffffffffffffffffffffffffffffffff1673ffffffffffffffffffffffffffffffffffffffff163373ffffffffffffffffffffffffffffffffffffffff16145b6104e0576040517f08c379a00000000000000000000000000000000000000000000000000000000081526004016104d790611854565b60405180910390fd5b4260045410806104f35750600254600554145b610532576040517f08c379a0000000000000000000000000000000000000000000000000000000008152600401610529906118c0565b60405180910390fd5b60015460055411610578576040517f08c379a000000000000000000000000000000000000000000000000000000000815260040161056f9061192c565b60405180910390fd5b60008073ffffffffffffffffffffffffffffffffffffffff16600a60009054906101000a900473ffffffffffffffffffffffffffffffffffffffff1673ffffffffffffffffffffffffffffffffffffffff161461061e574790503373ffffffffffffffffffffffffffffffffffffffff166108fc829081150290604051600060405180830381858888f19350505050158015610618573d6000803e3d6000fd5b506106c7565b600d60009054906101000a900473ffffffffffffffffffffffffffffffffffffffff1673ffffffffffffffffffffffffffffffffffffffff166370a08231306040518263ffffffff1660e01b815260040161067991906115b3565b602060405180830381865afa158015610696573d6000803e3d6000fd5b505050506040513d601f19601f820116820180604052508101906106ba9190611961565b90506106c633826112bb565b5b600c60009054906101000a900473ffffffffffffffffffffffffffffffffffffffff1673ffffffffffffffffffffffffffffffffffffffff166367db08de82600654600a60009054906101000a900473ffffffffffffffffffffffffffffffffffffffff166040518463ffffffff1660e01b815260040161074a9392919061198e565b600060405180830381600087803b15801561076457600080fd5b505af1158015610778573d6000803e3d6000fd5b505050507fef2d5e9f8a6b4e5fc1903bd0f4767857f64b39d98fdb6333bbcb9799d0152fa63382426040516107af939291906119c5565b60405180910390a150565b60045481565b600b6020528060005260406000206000915090505481565b60008060149054906101000a900460ff16905090565b60065481565b6107fc611360565b61080660006113de565b565b600960009054906101000a900473ffffffffffffffffffffffffffffffffffffffff1681565b60035481565b60055481565b600a60009054906101000a900473ffffffffffffffffffffffffffffffffffffffff1681565b60008060009054906101000a900473ffffffffffffffffffffffffffffffffffffffff16905090565b60015481565b6007805461089c90611a2b565b80601f01602080910402602001604051908101604052809291908181526020018280546108c890611a2b565b80156109155780601f106108ea57610100808354040283529160200191610915565b820191906000526020600020905b8154815290600101906020018083116108f857829003601f168201915b505050505081565b4260045410610961576040517f08c379a000000000000000000000000000000000000000000000000000000000815260040161095890611aa9565b60405180910390fd5b600154600554106109a7576040517f08c379a000000000000000000000000000000000000000000000000000000000815260040161099e90611b15565b60405180910390fd5b6000600b60003373ffffffffffffffffffffffffffffffffffffffff1673ffffffffffffffffffffffffffffffffffffffff16815260200190815260200160002054905060008111610a2e576040517f08c379a0000000000000000000000000000000000000000000000000000000008152600401610a2590611b81565b60405180910390fd5b6000600b60003373ffffffffffffffffffffffffffffffffffffffff1673ffffffffffffffffffffffffffffffffffffffff16815260200190815260200160002081905550600073ffffffffffffffffffffffffffffffffffffffff16600a60009054906101000a900473ffffffffffffffffffffffffffffffffffffffff1673ffffffffffffffffffffffffffffffffffffffff1614610b15573373ffffffffffffffffffffffffffffffffffffffff166108fc829081150290604051600060405180830381858888f19350505050158015610b0f573d6000803e3d6000fd5b50610b20565b610b1f33826112bb565b5b50565b60088054610b3090611a2b565b80601f0160208091040260200160405190810160405280929190818152602001828054610b5c90611a2b565b8015610ba95780601f10610b7e57610100808354040283529160200191610ba9565b820191906000526020600020905b815481529060010190602001808311610b8c57829003601f168201915b505050505081565b6060806060600080600667ffffffffffffffff811115610bd457610bd3611ba1565b5b604051908082528060200260200182016040528015610c025781602001602082028036833780820191505090505b50945060015485600081518110610c1c57610c1b611bd0565b5b60200260200101818152505060025485600181518110610c3f57610c3e611bd0565b5b60200260200101818152505060035485600281518110610c6257610c61611bd0565b5b60200260200101818152505060045485600381518110610c8557610c84611bd0565b5b60200260200101818152505060055485600481518110610ca857610ca7611bd0565b5b60200260200101818152505060065485600581518110610ccb57610cca611bd0565b5b60200260200101818152505060078054610ce490611a2b565b80601f0160208091040260200160405190810160405280929190818152602001828054610d1090611a2b565b8015610d5d5780601f10610d3257610100808354040283529160200191610d5d565b820191906000526020600020905b815481529060010190602001808311610d4057829003601f168201915b5050505050935060088054610d7190611a2b565b80601f0160208091040260200160405190810160405280929190818152602001828054610d9d90611a2b565b8015610dea5780601f10610dbf57610100808354040283529160200191610dea565b820191906000526020600020905b815481529060010190602001808311610dcd57829003601f168201915b50505050509250600960009054906101000a900473ffffffffffffffffffffffffffffffffffffffff169150600a60009054906101000a900473ffffffffffffffffffffffffffffffffffffffff1690509091929394565b4260035410610e86576040517f08c379a0000000000000000000000000000000000000000000000000000000008152600401610e7d90611c4b565b60405180910390fd5b4260045411610eca576040517f08c379a0000000000000000000000000000000000000000000000000000000008152600401610ec190611cb7565b60405180910390fd5b60025460055482610edb9190611d06565b1115610f1c576040517f08c379a0000000000000000000000000000000000000000000000000000000008152600401610f1390611da8565b60405180910390fd5b600073ffffffffffffffffffffffffffffffffffffffff16600a60009054906101000a900473ffffffffffffffffffffffffffffffffffffffff1673ffffffffffffffffffffffffffffffffffffffff161461101a57600d60009054906101000a900473ffffffffffffffffffffffffffffffffffffffff1673ffffffffffffffffffffffffffffffffffffffff166323b872dd3330846040518463ffffffff1660e01b8152600401610fd193929190611dc8565b6020604051808303816000875af1158015610ff0573d6000803e3d6000fd5b505050506040513d601f19601f820116820180604052508101906110149190611e2b565b5061105e565b3481101561105d576040517f08c379a000000000000000000000000000000000000000000000000000000000815260040161105490611ea4565b60405180910390fd5b5b6000600b60003373ffffffffffffffffffffffffffffffffffffffff1673ffffffffffffffffffffffffffffffffffffffff16815260200190815260200160002054141561114e57600660008154809291906110b990611ec4565b9190505550600c60009054906101000a900473ffffffffffffffffffffffffffffffffffffffff1673ffffffffffffffffffffffffffffffffffffffff1663bf21695f33306040518363ffffffff1660e01b815260040161111b929190611f0d565b600060405180830381600087803b15801561113557600080fd5b505af1158015611149573d6000803e3d6000fd5b505050505b80600b60003373ffffffffffffffffffffffffffffffffffffffff1673ffffffffffffffffffffffffffffffffffffffff168152602001908152602001600020546111999190611d06565b600b60003373ffffffffffffffffffffffffffffffffffffffff1673ffffffffffffffffffffffffffffffffffffffff1681526020019081526020016000208190555080600560008282546111ee9190611d06565b925050819055507f04da1776b54ebfe9617caf57a31e9a4b2f316bfd0ee0614d6c61597ae94ba2518133604051611226929190611f36565b60405180910390a150565b611239611360565b600073ffffffffffffffffffffffffffffffffffffffff168173ffffffffffffffffffffffffffffffffffffffff1614156112a9576040517f08c379a00000000000000000000000000000000000000000000000000000000081526004016112a090611fd1565b60405180910390fd5b6112b2816113de565b50565b60025481565b600d60009054906101000a900473ffffffffffffffffffffffffffffffffffffffff1673ffffffffffffffffffffffffffffffffffffffff1663a9059cbb83836040518363ffffffff1660e01b8152600401611318929190611ff1565b6020604051808303816000875af1158015611337573d6000803e3d6000fd5b505050506040513d601f19601f8201168201806040525081019061135b9190611e2b565b505050565b6113686114a2565b73ffffffffffffffffffffffffffffffffffffffff16611386610860565b73ffffffffffffffffffffffffffffffffffffffff16146113dc576040517f08c379a00000000000000000000000000000000000000000000000000000000081526004016113d390612066565b60405180910390fd5b565b60008060009054906101000a900473ffffffffffffffffffffffffffffffffffffffff169050816000806101000a81548173ffffffffffffffffffffffffffffffffffffffff021916908373ffffffffffffffffffffffffffffffffffffffff1602179055508173ffffffffffffffffffffffffffffffffffffffff168173ffffffffffffffffffffffffffffffffffffffff167f8be0079c531659141344cd1fd0a4f28419497f9722a3daafe3b4186f6b6457e060405160405180910390a35050565b600033905090565b6000819050919050565b6114bd816114aa565b82525050565b60006020820190506114d860008301846114b4565b92915050565b600080fd5b600073ffffffffffffffffffffffffffffffffffffffff82169050919050565b600061150e826114e3565b9050919050565b61151e81611503565b811461152957600080fd5b50565b60008135905061153b81611515565b92915050565b600060208284031215611557576115566114de565b5b60006115658482850161152c565b91505092915050565b60008115159050919050565b6115838161156e565b82525050565b600060208201905061159e600083018461157a565b92915050565b6115ad81611503565b82525050565b60006020820190506115c860008301846115a4565b92915050565b600081519050919050565b600082825260208201905092915050565b60005b838110156116085780820151818401526020810190506115ed565b83811115611617576000848401525b50505050565b6000601f19601f8301169050919050565b6000611639826115ce565b61164381856115d9565b93506116538185602086016115ea565b61165c8161161d565b840191505092915050565b60006020820190508181036000830152611681818461162e565b905092915050565b600081519050919050565b600082825260208201905092915050565b6000819050602082019050919050565b6116be816114aa565b82525050565b60006116d083836116b5565b60208301905092915050565b6000602082019050919050565b60006116f482611689565b6116fe8185611694565b9350611709836116a5565b8060005b8381101561173a57815161172188826116c4565b975061172c836116dc565b92505060018101905061170d565b5085935050505092915050565b600060a082019050818103600083015261176181886116e9565b90508181036020830152611775818761162e565b90508181036040830152611789818661162e565b905061179860608301856115a4565b6117a560808301846115a4565b9695505050505050565b6117b8816114aa565b81146117c357600080fd5b50565b6000813590506117d5816117af565b92915050565b6000602082840312156117f1576117f06114de565b5b60006117ff848285016117c6565b91505092915050565b7f43616c6c6572206e6f7420616c6c6f7765640000000000000000000000000000600082015250565b600061183e6012836115d9565b915061184982611808565b602082019050919050565b6000602082019050818103600083015261186d81611831565b9050919050565b7f53616c65206e6f7420656e646564207965740000000000000000000000000000600082015250565b60006118aa6012836115d9565b91506118b582611874565b602082019050919050565b600060208201905081810360008301526118d98161189d565b9050919050565b7f53616c65206469646e277420726561636820736f667420636170000000000000600082015250565b6000611916601a836115d9565b9150611921826118e0565b602082019050919050565b6000602082019050818103600083015261194581611909565b9050919050565b60008151905061195b816117af565b92915050565b600060208284031215611977576119766114de565b5b60006119858482850161194c565b91505092915050565b60006060820190506119a360008301866114b4565b6119b060208301856114b4565b6119bd60408301846115a4565b949350505050565b60006060820190506119da60008301866115a4565b6119e760208301856114b4565b6119f460408301846114b4565b949350505050565b7f4e487b7100000000000000000000000000000000000000000000000000000000600052602260045260246000fd5b60006002820490506001821680611a4357607f821691505b60208210811415611a5757611a566119fc565b5b50919050565b7f53616c65206469646e277420656e640000000000000000000000000000000000600082015250565b6000611a93600f836115d9565b9150611a9e82611a5d565b602082019050919050565b60006020820190508181036000830152611ac281611a86565b9050919050565b7f736f667420636170206973207265616368656400000000000000000000000000600082015250565b6000611aff6013836115d9565b9150611b0a82611ac9565b602082019050919050565b60006020820190508181036000830152611b2e81611af2565b9050919050565b7f4e6f206465706f73697473000000000000000000000000000000000000000000600082015250565b6000611b6b600b836115d9565b9150611b7682611b35565b602082019050919050565b60006020820190508181036000830152611b9a81611b5e565b9050919050565b7f4e487b7100000000000000000000000000000000000000000000000000000000600052604160045260246000fd5b7f4e487b7100000000000000000000000000000000000000000000000000000000600052603260045260246000fd5b7f53616c65206973206e6f74206f70656e20796574000000000000000000000000600082015250565b6000611c356014836115d9565b9150611c4082611bff565b602082019050919050565b60006020820190508181036000830152611c6481611c28565b9050919050565b7f53616c6520697320616c726561647920636c6f73656400000000000000000000600082015250565b6000611ca16016836115d9565b9150611cac82611c6b565b602082019050919050565b60006020820190508181036000830152611cd081611c94565b9050919050565b7f4e487b7100000000000000000000000000000000000000000000000000000000600052601160045260246000fd5b6000611d11826114aa565b9150611d1c836114aa565b9250827fffffffffffffffffffffffffffffffffffffffffffffffffffffffffffffffff03821115611d5157611d50611cd7565b5b828201905092915050565b7f4861726463617020726561636865640000000000000000000000000000000000600082015250565b6000611d92600f836115d9565b9150611d9d82611d5c565b602082019050919050565b60006020820190508181036000830152611dc181611d85565b9050919050565b6000606082019050611ddd60008301866115a4565b611dea60208301856115a4565b611df760408301846114b4565b949350505050565b611e088161156e565b8114611e1357600080fd5b50565b600081519050611e2581611dff565b92915050565b600060208284031215611e4157611e406114de565b5b6000611e4f84828501611e16565b91505092915050565b7f6e6f7420656e6f75676820746f6b656e732073656e6465640000000000000000600082015250565b6000611e8e6018836115d9565b9150611e9982611e58565b602082019050919050565b60006020820190508181036000830152611ebd81611e81565b9050919050565b6000611ecf826114aa565b91507fffffffffffffffffffffffffffffffffffffffffffffffffffffffffffffffff821415611f0257611f01611cd7565b5b600182019050919050565b6000604082019050611f2260008301856115a4565b611f2f60208301846115a4565b9392505050565b6000604082019050611f4b60008301856114b4565b611f5860208301846115a4565b9392505050565b7f4f776e61626c653a206e6577206f776e657220697320746865207a65726f206160008201527f6464726573730000000000000000000000000000000000000000000000000000602082015250565b6000611fbb6026836115d9565b9150611fc682611f5f565b604082019050919050565b60006020820190508181036000830152611fea81611fae565b9050919050565b600060408201905061200660008301856115a4565b61201360208301846114b4565b9392505050565b7f4f776e61626c653a2063616c6c6572206973206e6f7420746865206f776e6572600082015250565b60006120506020836115d9565b915061205b8261201a565b602082019050919050565b6000602082019050818103600083015261207f81612043565b905091905056fea264697066735822122073d50a165c4bdbcf40f27aa60b46486745829c620e595d2cb8c45b22028a8dc564736f6c634300080c0033a264697066735822122097f730601c8da3153515a238b88cd36b4c592fac684a09ffce1e9dac6791da7064736f6c634300080c0033",
			"opcodes": "PUSH1 0x80 PUSH1 0x40 MSTORE PUSH7 0x2386F26FC10000 PUSH1 0x2 SSTORE CALLVALUE DUP1 ISZERO PUSH2 0x1B JUMPI PUSH1 0x0 DUP1 REVERT JUMPDEST POP PUSH2 0x38 PUSH2 0x2D PUSH2 0x3D PUSH1 0x20 SHL PUSH1 0x20 SHR JUMP JUMPDEST PUSH2 0x45 PUSH1 0x20 SHL PUSH1 0x20 SHR JUMP JUMPDEST PUSH2 0x109 JUMP JUMPDEST PUSH1 0x0 CALLER SWAP1 POP SWAP1 JUMP JUMPDEST PUSH1 0x0 DUP1 PUSH1 0x0 SWAP1 SLOAD SWAP1 PUSH2 0x100 EXP SWAP1 DIV PUSH20 0xFFFFFFFFFFFFFFFFFFFFFFFFFFFFFFFFFFFFFFFF AND SWAP1 POP DUP2 PUSH1 0x0 DUP1 PUSH2 0x100 EXP DUP2 SLOAD DUP2 PUSH20 0xFFFFFFFFFFFFFFFFFFFFFFFFFFFFFFFFFFFFFFFF MUL NOT AND SWAP1 DUP4 PUSH20 0xFFFFFFFFFFFFFFFFFFFFFFFFFFFFFFFFFFFFFFFF AND MUL OR SWAP1 SSTORE POP DUP2 PUSH20 0xFFFFFFFFFFFFFFFFFFFFFFFFFFFFFFFFFFFFFFFF AND DUP2 PUSH20 0xFFFFFFFFFFFFFFFFFFFFFFFFFFFFFFFFFFFFFFFF AND PUSH32 0x8BE0079C531659141344CD1FD0A4F28419497F9722A3DAAFE3B4186F6B6457E0 PUSH1 0x40 MLOAD PUSH1 0x40 MLOAD DUP1 SWAP2 SUB SWAP1 LOG3 POP POP JUMP JUMPDEST PUSH2 0x49C0 DUP1 PUSH3 0x119 PUSH1 0x0 CODECOPY PUSH1 0x0 RETURN INVALID PUSH1 0x80 PUSH1 0x40 MSTORE PUSH1 0x4 CALLDATASIZE LT PUSH3 0x116 JUMPI PUSH1 0x0 CALLDATALOAD PUSH1 0xE0 SHR DUP1 PUSH4 0xA26DBF26 GT PUSH3 0xA3 JUMPI DUP1 PUSH4 0xC3F296A3 GT PUSH3 0x6D JUMPI DUP1 PUSH4 0xC3F296A3 EQ PUSH3 0x37F JUMPI DUP1 PUSH4 0xC59D4847 EQ PUSH3 0x3C3 JUMPI DUP1 PUSH4 0xCBCAB787 EQ PUSH3 0x3F4 JUMPI DUP1 PUSH4 0xE36465A3 EQ PUSH3 0x424 JUMPI DUP1 PUSH4 0xF2FDE38B EQ PUSH3 0x469 JUMPI PUSH3 0x116 JUMP JUMPDEST DUP1 PUSH4 0xA26DBF26 EQ PUSH3 0x299 JUMPI DUP1 PUSH4 0xB12821EB EQ PUSH3 0x2C9 JUMPI DUP1 PUSH4 0xBDA40D5C EQ PUSH3 0x30D JUMPI DUP1 PUSH4 0xBF21695F EQ PUSH3 0x351 JUMPI PUSH3 0x116 JUMP JUMPDEST DUP1 PUSH4 0x7788A7EE GT PUSH3 0xE5 JUMPI DUP1 PUSH4 0x7788A7EE EQ PUSH3 0x1C7 JUMPI DUP1 PUSH4 0x8DA5CB5B EQ PUSH3 0x1F7 JUMPI DUP1 PUSH4 0x90838E09 EQ PUSH3 0x227 JUMPI DUP1 PUSH4 0x91B7F5ED EQ PUSH3 0x26B JUMPI PUSH3 0x116 JUMP JUMPDEST DUP1 PUSH4 0x2E1114EC EQ PUSH3 0x11B JUMPI DUP1 PUSH4 0x67DB08DE EQ PUSH3 0x15F JUMPI DUP1 PUSH4 0x715018A6 EQ PUSH3 0x18D JUMPI DUP1 PUSH4 0x75102DD2 EQ PUSH3 0x1A7 JUMPI JUMPDEST PUSH1 0x0 DUP1 REVERT JUMPDEST CALLVALUE DUP1 ISZERO PUSH3 0x128 JUMPI PUSH1 0x0 DUP1 REVERT JUMPDEST POP PUSH3 0x147 PUSH1 0x4 DUP1 CALLDATASIZE SUB DUP2 ADD SWAP1 PUSH3 0x141 SWAP2 SWAP1 PUSH3 0x11FB JUMP JUMPDEST PUSH3 0x497 JUMP JUMPDEST PUSH1 0x40 MLOAD PUSH3 0x156 SWAP2 SWAP1 PUSH3 0x1344 JUMP JUMPDEST PUSH1 0x40 MLOAD DUP1 SWAP2 SUB SWAP1 RETURN JUMPDEST CALLVALUE DUP1 ISZERO PUSH3 0x16C JUMPI PUSH1 0x0 DUP1 REVERT JUMPDEST POP PUSH3 0x18B PUSH1 0x4 DUP1 CALLDATASIZE SUB DUP2 ADD SWAP1 PUSH3 0x185 SWAP2 SWAP1 PUSH3 0x1399 JUMP JUMPDEST PUSH3 0x5FA JUMP JUMPDEST STOP JUMPDEST CALLVALUE DUP1 ISZERO PUSH3 0x19A JUMPI PUSH1 0x0 DUP1 REVERT JUMPDEST POP PUSH3 0x1A5 PUSH3 0x701 JUMP JUMPDEST STOP JUMPDEST PUSH3 0x1C5 PUSH1 0x4 DUP1 CALLDATASIZE SUB DUP2 ADD SWAP1 PUSH3 0x1BF SWAP2 SWAP1 PUSH3 0x1632 JUMP JUMPDEST PUSH3 0x719 JUMP JUMPDEST STOP JUMPDEST CALLVALUE DUP1 ISZERO PUSH3 0x1D4 JUMPI PUSH1 0x0 DUP1 REVERT JUMPDEST POP PUSH3 0x1DF PUSH3 0x9C0 JUMP JUMPDEST PUSH1 0x40 MLOAD PUSH3 0x1EE SWAP2 SWAP1 PUSH3 0x1747 JUMP JUMPDEST PUSH1 0x40 MLOAD DUP1 SWAP2 SUB SWAP1 RETURN JUMPDEST CALLVALUE DUP1 ISZERO PUSH3 0x204 JUMPI PUSH1 0x0 DUP1 REVERT JUMPDEST POP PUSH3 0x20F PUSH3 0x9C6 JUMP JUMPDEST PUSH1 0x40 MLOAD PUSH3 0x21E SWAP2 SWAP1 PUSH3 0x1775 JUMP JUMPDEST PUSH1 0x40 MLOAD DUP1 SWAP2 SUB SWAP1 RETURN JUMPDEST CALLVALUE DUP1 ISZERO PUSH3 0x234 JUMPI PUSH1 0x0 DUP1 REVERT JUMPDEST POP PUSH3 0x253 PUSH1 0x4 DUP1 CALLDATASIZE SUB DUP2 ADD SWAP1 PUSH3 0x24D SWAP2 SWAP1 PUSH3 0x1792 JUMP JUMPDEST PUSH3 0x9EF JUMP JUMPDEST PUSH1 0x40 MLOAD PUSH3 0x262 SWAP2 SWAP1 PUSH3 0x1747 JUMP JUMPDEST PUSH1 0x40 MLOAD DUP1 SWAP2 SUB SWAP1 RETURN JUMPDEST CALLVALUE DUP1 ISZERO PUSH3 0x278 JUMPI PUSH1 0x0 DUP1 REVERT JUMPDEST POP PUSH3 0x297 PUSH1 0x4 DUP1 CALLDATASIZE SUB DUP2 ADD SWAP1 PUSH3 0x291 SWAP2 SWAP1 PUSH3 0x17C4 JUMP JUMPDEST PUSH3 0xA07 JUMP JUMPDEST STOP JUMPDEST CALLVALUE DUP1 ISZERO PUSH3 0x2A6 JUMPI PUSH1 0x0 DUP1 REVERT JUMPDEST POP PUSH3 0x2B1 PUSH3 0xA1B JUMP JUMPDEST PUSH1 0x40 MLOAD PUSH3 0x2C0 SWAP2 SWAP1 PUSH3 0x1747 JUMP JUMPDEST PUSH1 0x40 MLOAD DUP1 SWAP2 SUB SWAP1 RETURN JUMPDEST CALLVALUE DUP1 ISZERO PUSH3 0x2D6 JUMPI PUSH1 0x0 DUP1 REVERT JUMPDEST POP PUSH3 0x2F5 PUSH1 0x4 DUP1 CALLDATASIZE SUB DUP2 ADD SWAP1 PUSH3 0x2EF SWAP2 SWAP1 PUSH3 0x17F6 JUMP JUMPDEST PUSH3 0xA21 JUMP JUMPDEST PUSH1 0x40 MLOAD PUSH3 0x304 SWAP2 SWAP1 PUSH3 0x1775 JUMP JUMPDEST PUSH1 0x40 MLOAD DUP1 SWAP2 SUB SWAP1 RETURN JUMPDEST CALLVALUE DUP1 ISZERO PUSH3 0x31A JUMPI PUSH1 0x0 DUP1 REVERT JUMPDEST POP PUSH3 0x339 PUSH1 0x4 DUP1 CALLDATASIZE SUB DUP2 ADD SWAP1 PUSH3 0x333 SWAP2 SWAP1 PUSH3 0x17C4 JUMP JUMPDEST PUSH3 0xA70 JUMP JUMPDEST PUSH1 0x40 MLOAD PUSH3 0x348 SWAP2 SWAP1 PUSH3 0x1775 JUMP JUMPDEST PUSH1 0x40 MLOAD DUP1 SWAP2 SUB SWAP1 RETURN JUMPDEST CALLVALUE DUP1 ISZERO PUSH3 0x35E JUMPI PUSH1 0x0 DUP1 REVERT JUMPDEST POP PUSH3 0x37D PUSH1 0x4 DUP1 CALLDATASIZE SUB DUP2 ADD SWAP1 PUSH3 0x377 SWAP2 SWAP1 PUSH3 0x183D JUMP JUMPDEST PUSH3 0xAA3 JUMP JUMPDEST STOP JUMPDEST CALLVALUE DUP1 ISZERO PUSH3 0x38C JUMPI PUSH1 0x0 DUP1 REVERT JUMPDEST POP PUSH3 0x3AB PUSH1 0x4 DUP1 CALLDATASIZE SUB DUP2 ADD SWAP1 PUSH3 0x3A5 SWAP2 SWAP1 PUSH3 0x1792 JUMP JUMPDEST PUSH3 0xCFB JUMP JUMPDEST PUSH1 0x40 MLOAD PUSH3 0x3BA SWAP2 SWAP1 PUSH3 0x1747 JUMP JUMPDEST PUSH1 0x40 MLOAD DUP1 SWAP2 SUB SWAP1 RETURN JUMPDEST CALLVALUE DUP1 ISZERO PUSH3 0x3D0 JUMPI PUSH1 0x0 DUP1 REVERT JUMPDEST POP PUSH3 0x3DB PUSH3 0xD13 JUMP JUMPDEST PUSH1 0x40 MLOAD PUSH3 0x3EB SWAP3 SWAP2 SWAP1 PUSH3 0x1884 JUMP JUMPDEST PUSH1 0x40 MLOAD DUP1 SWAP2 SUB SWAP1 RETURN JUMPDEST CALLVALUE DUP1 ISZERO PUSH3 0x401 JUMPI PUSH1 0x0 DUP1 REVERT JUMPDEST POP PUSH3 0x40C PUSH3 0xD24 JUMP JUMPDEST PUSH1 0x40 MLOAD PUSH3 0x41B SWAP2 SWAP1 PUSH3 0x1747 JUMP JUMPDEST PUSH1 0x40 MLOAD DUP1 SWAP2 SUB SWAP1 RETURN JUMPDEST CALLVALUE DUP1 ISZERO PUSH3 0x431 JUMPI PUSH1 0x0 DUP1 REVERT JUMPDEST POP PUSH3 0x450 PUSH1 0x4 DUP1 CALLDATASIZE SUB DUP2 ADD SWAP1 PUSH3 0x44A SWAP2 SWAP1 PUSH3 0x1792 JUMP JUMPDEST PUSH3 0xD2A JUMP JUMPDEST PUSH1 0x40 MLOAD PUSH3 0x460 SWAP3 SWAP2 SWAP1 PUSH3 0x197F JUMP JUMPDEST PUSH1 0x40 MLOAD DUP1 SWAP2 SUB SWAP1 RETURN JUMPDEST CALLVALUE DUP1 ISZERO PUSH3 0x476 JUMPI PUSH1 0x0 DUP1 REVERT JUMPDEST POP PUSH3 0x495 PUSH1 0x4 DUP1 CALLDATASIZE SUB DUP2 ADD SWAP1 PUSH3 0x48F SWAP2 SWAP1 PUSH3 0x1792 JUMP JUMPDEST PUSH3 0xFC2 JUMP JUMPDEST STOP JUMPDEST PUSH1 0x60 PUSH1 0x1 SLOAD DUP3 LT PUSH3 0x4B6 JUMPI PUSH1 0x1 DUP1 SLOAD PUSH3 0x4B3 SWAP2 SWAP1 PUSH3 0x19E9 JUMP JUMPDEST SWAP2 POP JUMPDEST PUSH1 0x0 PUSH1 0x1 DUP5 DUP5 PUSH3 0x4C8 SWAP2 SWAP1 PUSH3 0x19E9 JUMP JUMPDEST PUSH3 0x4D4 SWAP2 SWAP1 PUSH3 0x1A24 JUMP JUMPDEST SWAP1 POP PUSH1 0x0 DUP1 DUP3 PUSH8 0xFFFFFFFFFFFFFFFF DUP2 GT ISZERO PUSH3 0x4F6 JUMPI PUSH3 0x4F5 PUSH3 0x140B JUMP JUMPDEST JUMPDEST PUSH1 0x40 MLOAD SWAP1 DUP1 DUP3 MSTORE DUP1 PUSH1 0x20 MUL PUSH1 0x20 ADD DUP3 ADD PUSH1 0x40 MSTORE DUP1 ISZERO PUSH3 0x525 JUMPI DUP2 PUSH1 0x20 ADD PUSH1 0x20 DUP3 MUL DUP1 CALLDATASIZE DUP4 CALLDATACOPY DUP1 DUP3 ADD SWAP2 POP POP SWAP1 POP JUMPDEST POP SWAP1 POP PUSH1 0x0 DUP7 SWAP1 POP JUMPDEST DUP6 DUP2 GT PUSH3 0x5ED JUMPI PUSH1 0x4 PUSH1 0x0 DUP3 DUP10 PUSH3 0x548 SWAP2 SWAP1 PUSH3 0x1A24 JUMP JUMPDEST DUP2 MSTORE PUSH1 0x20 ADD SWAP1 DUP2 MSTORE PUSH1 0x20 ADD PUSH1 0x0 KECCAK256 PUSH1 0x0 SWAP1 SLOAD SWAP1 PUSH2 0x100 EXP SWAP1 DIV PUSH20 0xFFFFFFFFFFFFFFFFFFFFFFFFFFFFFFFFFFFFFFFF AND DUP3 DUP5 DUP2 MLOAD DUP2 LT PUSH3 0x58D JUMPI PUSH3 0x58C PUSH3 0x1A81 JUMP JUMPDEST JUMPDEST PUSH1 0x20 MUL PUSH1 0x20 ADD ADD SWAP1 PUSH20 0xFFFFFFFFFFFFFFFFFFFFFFFFFFFFFFFFFFFFFFFF AND SWAP1 DUP2 PUSH20 0xFFFFFFFFFFFFFFFFFFFFFFFFFFFFFFFFFFFFFFFF AND DUP2 MSTORE POP POP DUP3 DUP1 PUSH3 0x5D4 SWAP1 PUSH3 0x1AB0 JUMP JUMPDEST SWAP4 POP POP DUP1 DUP1 PUSH3 0x5E4 SWAP1 PUSH3 0x1AB0 JUMP JUMPDEST SWAP2 POP POP PUSH3 0x52E JUMP JUMPDEST POP DUP1 SWAP4 POP POP POP POP SWAP3 SWAP2 POP POP JUMP JUMPDEST PUSH1 0x7 PUSH1 0x0 CALLER PUSH20 0xFFFFFFFFFFFFFFFFFFFFFFFFFFFFFFFFFFFFFFFF AND PUSH20 0xFFFFFFFFFFFFFFFFFFFFFFFFFFFFFFFFFFFFFFFF AND DUP2 MSTORE PUSH1 0x20 ADD SWAP1 DUP2 MSTORE PUSH1 0x20 ADD PUSH1 0x0 KECCAK256 PUSH1 0x0 SWAP1 SLOAD SWAP1 PUSH2 0x100 EXP SWAP1 DIV PUSH1 0xFF AND PUSH3 0x689 JUMPI PUSH1 0x40 MLOAD PUSH32 0x8C379A000000000000000000000000000000000000000000000000000000000 DUP2 MSTORE PUSH1 0x4 ADD PUSH3 0x680 SWAP1 PUSH3 0x1B5F JUMP JUMPDEST PUSH1 0x40 MLOAD DUP1 SWAP2 SUB SWAP1 REVERT JUMPDEST DUP3 PUSH1 0x6 PUSH1 0x0 DUP4 PUSH20 0xFFFFFFFFFFFFFFFFFFFFFFFFFFFFFFFFFFFFFFFF AND PUSH20 0xFFFFFFFFFFFFFFFFFFFFFFFFFFFFFFFFFFFFFFFF AND DUP2 MSTORE PUSH1 0x20 ADD SWAP1 DUP2 MSTORE PUSH1 0x20 ADD PUSH1 0x0 KECCAK256 PUSH1 0x0 DUP3 DUP3 SLOAD PUSH3 0x6DA SWAP2 SWAP1 PUSH3 0x1A24 JUMP JUMPDEST SWAP3 POP POP DUP2 SWAP1 SSTORE POP DUP2 PUSH1 0x3 PUSH1 0x0 DUP3 DUP3 SLOAD PUSH3 0x6F5 SWAP2 SWAP1 PUSH3 0x1A24 JUMP JUMPDEST SWAP3 POP POP DUP2 SWAP1 SSTORE POP POP POP POP JUMP JUMPDEST PUSH3 0x70B PUSH3 0x104D JUMP JUMPDEST PUSH3 0x717 PUSH1 0x0 PUSH3 0x10D2 JUMP JUMPDEST JUMP JUMPDEST PUSH1 0x2 SLOAD CALLVALUE LT ISZERO PUSH3 0x761 JUMPI PUSH1 0x40 MLOAD PUSH32 0x8C379A000000000000000000000000000000000000000000000000000000000 DUP2 MSTORE PUSH1 0x4 ADD PUSH3 0x758 SWAP1 PUSH3 0x1BD1 JUMP JUMPDEST PUSH1 0x40 MLOAD DUP1 SWAP2 SUB SWAP1 REVERT JUMPDEST PUSH1 0x0 DUP6 DUP6 CALLER DUP7 DUP7 DUP7 PUSH1 0x40 MLOAD PUSH3 0x777 SWAP1 PUSH3 0x119E JUMP JUMPDEST PUSH3 0x788 SWAP7 SWAP6 SWAP5 SWAP4 SWAP3 SWAP2 SWAP1 PUSH3 0x1C75 JUMP JUMPDEST PUSH1 0x40 MLOAD DUP1 SWAP2 SUB SWAP1 PUSH1 0x0 CREATE DUP1 ISZERO DUP1 ISZERO PUSH3 0x7A5 JUMPI RETURNDATASIZE PUSH1 0x0 DUP1 RETURNDATACOPY RETURNDATASIZE PUSH1 0x0 REVERT JUMPDEST POP SWAP1 POP DUP1 PUSH20 0xFFFFFFFFFFFFFFFFFFFFFFFFFFFFFFFFFFFFFFFF AND PUSH4 0xF2FDE38B PUSH3 0x7CE PUSH3 0x9C6 JUMP JUMPDEST PUSH1 0x40 MLOAD DUP3 PUSH4 0xFFFFFFFF AND PUSH1 0xE0 SHL DUP2 MSTORE PUSH1 0x4 ADD PUSH3 0x7EC SWAP2 SWAP1 PUSH3 0x1775 JUMP JUMPDEST PUSH1 0x0 PUSH1 0x40 MLOAD DUP1 DUP4 SUB DUP2 PUSH1 0x0 DUP8 DUP1 EXTCODESIZE ISZERO DUP1 ISZERO PUSH3 0x807 JUMPI PUSH1 0x0 DUP1 REVERT JUMPDEST POP GAS CALL ISZERO DUP1 ISZERO PUSH3 0x81C JUMPI RETURNDATASIZE PUSH1 0x0 DUP1 RETURNDATACOPY RETURNDATASIZE PUSH1 0x0 REVERT JUMPDEST POP POP POP POP PUSH3 0x82A PUSH3 0x9C6 JUMP JUMPDEST PUSH20 0xFFFFFFFFFFFFFFFFFFFFFFFFFFFFFFFFFFFFFFFF AND PUSH2 0x8FC CALLVALUE SWAP1 DUP2 ISZERO MUL SWAP1 PUSH1 0x40 MLOAD PUSH1 0x0 PUSH1 0x40 MLOAD DUP1 DUP4 SUB DUP2 DUP6 DUP9 DUP9 CALL SWAP4 POP POP POP POP ISZERO DUP1 ISZERO PUSH3 0x870 JUMPI RETURNDATASIZE PUSH1 0x0 DUP1 RETURNDATACOPY RETURNDATASIZE PUSH1 0x0 REVERT JUMPDEST POP DUP1 PUSH1 0x4 PUSH1 0x0 PUSH1 0x1 SLOAD DUP2 MSTORE PUSH1 0x20 ADD SWAP1 DUP2 MSTORE PUSH1 0x20 ADD PUSH1 0x0 KECCAK256 PUSH1 0x0 PUSH2 0x100 EXP DUP2 SLOAD DUP2 PUSH20 0xFFFFFFFFFFFFFFFFFFFFFFFFFFFFFFFFFFFFFFFF MUL NOT AND SWAP1 DUP4 PUSH20 0xFFFFFFFFFFFFFFFFFFFFFFFFFFFFFFFFFFFFFFFF AND MUL OR SWAP1 SSTORE POP PUSH1 0x1 SLOAD PUSH1 0x5 PUSH1 0x0 DUP4 PUSH20 0xFFFFFFFFFFFFFFFFFFFFFFFFFFFFFFFFFFFFFFFF AND PUSH20 0xFFFFFFFFFFFFFFFFFFFFFFFFFFFFFFFFFFFFFFFF AND DUP2 MSTORE PUSH1 0x20 ADD SWAP1 DUP2 MSTORE PUSH1 0x20 ADD PUSH1 0x0 KECCAK256 DUP2 SWAP1 SSTORE POP PUSH1 0x1 PUSH1 0x0 DUP2 SLOAD DUP1 SWAP3 SWAP2 SWAP1 PUSH3 0x920 SWAP1 PUSH3 0x1AB0 JUMP JUMPDEST SWAP2 SWAP1 POP SSTORE POP PUSH1 0x1 PUSH1 0x7 PUSH1 0x0 DUP4 PUSH20 0xFFFFFFFFFFFFFFFFFFFFFFFFFFFFFFFFFFFFFFFF AND PUSH20 0xFFFFFFFFFFFFFFFFFFFFFFFFFFFFFFFFFFFFFFFF AND DUP2 MSTORE PUSH1 0x20 ADD SWAP1 DUP2 MSTORE PUSH1 0x20 ADD PUSH1 0x0 KECCAK256 PUSH1 0x0 PUSH2 0x100 EXP DUP2 SLOAD DUP2 PUSH1 0xFF MUL NOT AND SWAP1 DUP4 ISZERO ISZERO MUL OR SWAP1 SSTORE POP PUSH32 0xF0B286EA8E415AA6C494031BDB9B350083555233B508F5D265056EAD4F264DE9 DUP2 CALLER PUSH1 0x40 MLOAD PUSH3 0x9B0 SWAP3 SWAP2 SWAP1 PUSH3 0x1CFE JUMP JUMPDEST PUSH1 0x40 MLOAD DUP1 SWAP2 SUB SWAP1 LOG1 POP POP POP POP POP POP JUMP JUMPDEST PUSH1 0x2 SLOAD DUP2 JUMP JUMPDEST PUSH1 0x0 DUP1 PUSH1 0x0 SWAP1 SLOAD SWAP1 PUSH2 0x100 EXP SWAP1 DIV PUSH20 0xFFFFFFFFFFFFFFFFFFFFFFFFFFFFFFFFFFFFFFFF AND SWAP1 POP SWAP1 JUMP JUMPDEST PUSH1 0x6 PUSH1 0x20 MSTORE DUP1 PUSH1 0x0 MSTORE PUSH1 0x40 PUSH1 0x0 KECCAK256 PUSH1 0x0 SWAP2 POP SWAP1 POP SLOAD DUP2 JUMP JUMPDEST PUSH3 0xA11 PUSH3 0x104D JUMP JUMPDEST DUP1 PUSH1 0x2 DUP2 SWAP1 SSTORE POP POP JUMP JUMPDEST PUSH1 0x3 SLOAD DUP2 JUMP JUMPDEST PUSH1 0x8 PUSH1 0x20 MSTORE DUP2 PUSH1 0x0 MSTORE PUSH1 0x40 PUSH1 0x0 KECCAK256 DUP2 DUP2 SLOAD DUP2 LT PUSH3 0xA3E JUMPI PUSH1 0x0 DUP1 REVERT JUMPDEST SWAP1 PUSH1 0x0 MSTORE PUSH1 0x20 PUSH1 0x0 KECCAK256 ADD PUSH1 0x0 SWAP2 POP SWAP2 POP SWAP1 SLOAD SWAP1 PUSH2 0x100 EXP SWAP1 DIV PUSH20 0xFFFFFFFFFFFFFFFFFFFFFFFFFFFFFFFFFFFFFFFF AND DUP2 JUMP JUMPDEST PUSH1 0x4 PUSH1 0x20 MSTORE DUP1 PUSH1 0x0 MSTORE PUSH1 0x40 PUSH1 0x0 KECCAK256 PUSH1 0x0 SWAP2 POP SLOAD SWAP1 PUSH2 0x100 EXP SWAP1 DIV PUSH20 0xFFFFFFFFFFFFFFFFFFFFFFFFFFFFFFFFFFFFFFFF AND DUP2 JUMP JUMPDEST PUSH1 0x7 PUSH1 0x0 CALLER PUSH20 0xFFFFFFFFFFFFFFFFFFFFFFFFFFFFFFFFFFFFFFFF AND PUSH20 0xFFFFFFFFFFFFFFFFFFFFFFFFFFFFFFFFFFFFFFFF AND DUP2 MSTORE PUSH1 0x20 ADD SWAP1 DUP2 MSTORE PUSH1 0x20 ADD PUSH1 0x0 KECCAK256 PUSH1 0x0 SWAP1 SLOAD SWAP1 PUSH2 0x100 EXP SWAP1 DIV PUSH1 0xFF AND PUSH3 0xB32 JUMPI PUSH1 0x40 MLOAD PUSH32 0x8C379A000000000000000000000000000000000000000000000000000000000 DUP2 MSTORE PUSH1 0x4 ADD PUSH3 0xB29 SWAP1 PUSH3 0x1B5F JUMP JUMPDEST PUSH1 0x40 MLOAD DUP1 SWAP2 SUB SWAP1 REVERT JUMPDEST PUSH1 0x9 PUSH1 0x0 DUP4 PUSH20 0xFFFFFFFFFFFFFFFFFFFFFFFFFFFFFFFFFFFFFFFF AND PUSH20 0xFFFFFFFFFFFFFFFFFFFFFFFFFFFFFFFFFFFFFFFF AND DUP2 MSTORE PUSH1 0x20 ADD SWAP1 DUP2 MSTORE PUSH1 0x20 ADD PUSH1 0x0 KECCAK256 PUSH1 0x0 DUP3 PUSH20 0xFFFFFFFFFFFFFFFFFFFFFFFFFFFFFFFFFFFFFFFF AND PUSH20 0xFFFFFFFFFFFFFFFFFFFFFFFFFFFFFFFFFFFFFFFF AND DUP2 MSTORE PUSH1 0x20 ADD SWAP1 DUP2 MSTORE PUSH1 0x20 ADD PUSH1 0x0 KECCAK256 PUSH1 0x0 SWAP1 SLOAD SWAP1 PUSH2 0x100 EXP SWAP1 DIV PUSH1 0xFF AND PUSH3 0xCF7 JUMPI PUSH1 0x8 PUSH1 0x0 DUP4 PUSH20 0xFFFFFFFFFFFFFFFFFFFFFFFFFFFFFFFFFFFFFFFF AND PUSH20 0xFFFFFFFFFFFFFFFFFFFFFFFFFFFFFFFFFFFFFFFF AND DUP2 MSTORE PUSH1 0x20 ADD SWAP1 DUP2 MSTORE PUSH1 0x20 ADD PUSH1 0x0 KECCAK256 DUP2 SWAP1 DUP1 PUSH1 0x1 DUP2 SLOAD ADD DUP1 DUP3 SSTORE DUP1 SWAP2 POP POP PUSH1 0x1 SWAP1 SUB SWAP1 PUSH1 0x0 MSTORE PUSH1 0x20 PUSH1 0x0 KECCAK256 ADD PUSH1 0x0 SWAP1 SWAP2 SWAP1 SWAP2 SWAP1 SWAP2 PUSH2 0x100 EXP DUP2 SLOAD DUP2 PUSH20 0xFFFFFFFFFFFFFFFFFFFFFFFFFFFFFFFFFFFFFFFF MUL NOT AND SWAP1 DUP4 PUSH20 0xFFFFFFFFFFFFFFFFFFFFFFFFFFFFFFFFFFFFFFFF AND MUL OR SWAP1 SSTORE POP PUSH1 0x1 PUSH1 0x9 PUSH1 0x0 DUP5 PUSH20 0xFFFFFFFFFFFFFFFFFFFFFFFFFFFFFFFFFFFFFFFF AND PUSH20 0xFFFFFFFFFFFFFFFFFFFFFFFFFFFFFFFFFFFFFFFF AND DUP2 MSTORE PUSH1 0x20 ADD SWAP1 DUP2 MSTORE PUSH1 0x20 ADD PUSH1 0x0 KECCAK256 PUSH1 0x0 DUP4 PUSH20 0xFFFFFFFFFFFFFFFFFFFFFFFFFFFFFFFFFFFFFFFF AND PUSH20 0xFFFFFFFFFFFFFFFFFFFFFFFFFFFFFFFFFFFFFFFF AND DUP2 MSTORE PUSH1 0x20 ADD SWAP1 DUP2 MSTORE PUSH1 0x20 ADD PUSH1 0x0 KECCAK256 PUSH1 0x0 PUSH2 0x100 EXP DUP2 SLOAD DUP2 PUSH1 0xFF MUL NOT AND SWAP1 DUP4 ISZERO ISZERO MUL OR SWAP1 SSTORE POP JUMPDEST POP POP JUMP JUMPDEST PUSH1 0x5 PUSH1 0x20 MSTORE DUP1 PUSH1 0x0 MSTORE PUSH1 0x40 PUSH1 0x0 KECCAK256 PUSH1 0x0 SWAP2 POP SWAP1 POP SLOAD DUP2 JUMP JUMPDEST PUSH1 0x0 DUP1 PUSH1 0x1 SLOAD SWAP2 POP PUSH1 0x3 SLOAD SWAP1 POP SWAP1 SWAP2 JUMP JUMPDEST PUSH1 0x1 SLOAD DUP2 JUMP JUMPDEST PUSH1 0x60 DUP1 PUSH1 0x0 PUSH1 0x8 PUSH1 0x0 DUP6 PUSH20 0xFFFFFFFFFFFFFFFFFFFFFFFFFFFFFFFFFFFFFFFF AND PUSH20 0xFFFFFFFFFFFFFFFFFFFFFFFFFFFFFFFFFFFFFFFF AND DUP2 MSTORE PUSH1 0x20 ADD SWAP1 DUP2 MSTORE PUSH1 0x20 ADD PUSH1 0x0 KECCAK256 DUP1 SLOAD SWAP1 POP SWAP1 POP DUP1 PUSH8 0xFFFFFFFFFFFFFFFF DUP2 GT ISZERO PUSH3 0xD91 JUMPI PUSH3 0xD90 PUSH3 0x140B JUMP JUMPDEST JUMPDEST PUSH1 0x40 MLOAD SWAP1 DUP1 DUP3 MSTORE DUP1 PUSH1 0x20 MUL PUSH1 0x20 ADD DUP3 ADD PUSH1 0x40 MSTORE DUP1 ISZERO PUSH3 0xDC0 JUMPI DUP2 PUSH1 0x20 ADD PUSH1 0x20 DUP3 MUL DUP1 CALLDATASIZE DUP4 CALLDATACOPY DUP1 DUP3 ADD SWAP2 POP POP SWAP1 POP JUMPDEST POP SWAP3 POP DUP1 PUSH8 0xFFFFFFFFFFFFFFFF DUP2 GT ISZERO PUSH3 0xDE0 JUMPI PUSH3 0xDDF PUSH3 0x140B JUMP JUMPDEST JUMPDEST PUSH1 0x40 MLOAD SWAP1 DUP1 DUP3 MSTORE DUP1 PUSH1 0x20 MUL PUSH1 0x20 ADD DUP3 ADD PUSH1 0x40 MSTORE DUP1 ISZERO PUSH3 0xE0F JUMPI DUP2 PUSH1 0x20 ADD PUSH1 0x20 DUP3 MUL DUP1 CALLDATASIZE DUP4 CALLDATACOPY DUP1 DUP3 ADD SWAP2 POP POP SWAP1 POP JUMPDEST POP SWAP2 POP PUSH1 0x0 JUMPDEST DUP2 DUP2 LT ISZERO PUSH3 0xFBB JUMPI PUSH1 0x0 PUSH1 0x8 PUSH1 0x0 DUP8 PUSH20 0xFFFFFFFFFFFFFFFFFFFFFFFFFFFFFFFFFFFFFFFF AND PUSH20 0xFFFFFFFFFFFFFFFFFFFFFFFFFFFFFFFFFFFFFFFF AND DUP2 MSTORE PUSH1 0x20 ADD SWAP1 DUP2 MSTORE PUSH1 0x20 ADD PUSH1 0x0 KECCAK256 DUP3 DUP2 SLOAD DUP2 LT PUSH3 0xE74 JUMPI PUSH3 0xE73 PUSH3 0x1A81 JUMP JUMPDEST JUMPDEST SWAP1 PUSH1 0x0 MSTORE PUSH1 0x20 PUSH1 0x0 KECCAK256 ADD PUSH1 0x0 SWAP1 SLOAD SWAP1 PUSH2 0x100 EXP SWAP1 DIV PUSH20 0xFFFFFFFFFFFFFFFFFFFFFFFFFFFFFFFFFFFFFFFF AND SWAP1 POP PUSH1 0x5 PUSH1 0x0 DUP3 PUSH20 0xFFFFFFFFFFFFFFFFFFFFFFFFFFFFFFFFFFFFFFFF AND PUSH20 0xFFFFFFFFFFFFFFFFFFFFFFFFFFFFFFFFFFFFFFFF AND DUP2 MSTORE PUSH1 0x20 ADD SWAP1 DUP2 MSTORE PUSH1 0x20 ADD PUSH1 0x0 KECCAK256 SLOAD DUP6 DUP4 DUP2 MLOAD DUP2 LT PUSH3 0xEF7 JUMPI PUSH3 0xEF6 PUSH3 0x1A81 JUMP JUMPDEST JUMPDEST PUSH1 0x20 MUL PUSH1 0x20 ADD ADD DUP2 DUP2 MSTORE POP POP DUP1 PUSH20 0xFFFFFFFFFFFFFFFFFFFFFFFFFFFFFFFFFFFFFFFF AND PUSH4 0x4A4643F7 DUP8 PUSH1 0x40 MLOAD DUP3 PUSH4 0xFFFFFFFF AND PUSH1 0xE0 SHL DUP2 MSTORE PUSH1 0x4 ADD PUSH3 0xF3E SWAP2 SWAP1 PUSH3 0x1775 JUMP JUMPDEST PUSH1 0x20 PUSH1 0x40 MLOAD DUP1 DUP4 SUB DUP2 DUP7 GAS STATICCALL ISZERO DUP1 ISZERO PUSH3 0xF5C JUMPI RETURNDATASIZE PUSH1 0x0 DUP1 RETURNDATACOPY RETURNDATASIZE PUSH1 0x0 REVERT JUMPDEST POP POP POP POP PUSH1 0x40 MLOAD RETURNDATASIZE PUSH1 0x1F NOT PUSH1 0x1F DUP3 ADD AND DUP3 ADD DUP1 PUSH1 0x40 MSTORE POP DUP2 ADD SWAP1 PUSH3 0xF82 SWAP2 SWAP1 PUSH3 0x1D42 JUMP JUMPDEST DUP5 DUP4 DUP2 MLOAD DUP2 LT PUSH3 0xF98 JUMPI PUSH3 0xF97 PUSH3 0x1A81 JUMP JUMPDEST JUMPDEST PUSH1 0x20 MUL PUSH1 0x20 ADD ADD DUP2 DUP2 MSTORE POP POP POP DUP1 DUP1 PUSH3 0xFB2 SWAP1 PUSH3 0x1AB0 JUMP JUMPDEST SWAP2 POP POP PUSH3 0xE15 JUMP JUMPDEST POP POP SWAP2 POP SWAP2 JUMP JUMPDEST PUSH3 0xFCC PUSH3 0x104D JUMP JUMPDEST PUSH1 0x0 PUSH20 0xFFFFFFFFFFFFFFFFFFFFFFFFFFFFFFFFFFFFFFFF AND DUP2 PUSH20 0xFFFFFFFFFFFFFFFFFFFFFFFFFFFFFFFFFFFFFFFF AND EQ ISZERO PUSH3 0x103F JUMPI PUSH1 0x40 MLOAD PUSH32 0x8C379A000000000000000000000000000000000000000000000000000000000 DUP2 MSTORE PUSH1 0x4 ADD PUSH3 0x1036 SWAP1 PUSH3 0x1DEA JUMP JUMPDEST PUSH1 0x40 MLOAD DUP1 SWAP2 SUB SWAP1 REVERT JUMPDEST PUSH3 0x104A DUP2 PUSH3 0x10D2 JUMP JUMPDEST POP JUMP JUMPDEST PUSH3 0x1057 PUSH3 0x1196 JUMP JUMPDEST PUSH20 0xFFFFFFFFFFFFFFFFFFFFFFFFFFFFFFFFFFFFFFFF AND PUSH3 0x1077 PUSH3 0x9C6 JUMP JUMPDEST PUSH20 0xFFFFFFFFFFFFFFFFFFFFFFFFFFFFFFFFFFFFFFFF AND EQ PUSH3 0x10D0 JUMPI PUSH1 0x40 MLOAD PUSH32 0x8C379A000000000000000000000000000000000000000000000000000000000 DUP2 MSTORE PUSH1 0x4 ADD PUSH3 0x10C7 SWAP1 PUSH3 0x1E5C JUMP JUMPDEST PUSH1 0x40 MLOAD DUP1 SWAP2 SUB SWAP1 REVERT JUMPDEST JUMP JUMPDEST PUSH1 0x0 DUP1 PUSH1 0x0 SWAP1 SLOAD SWAP1 PUSH2 0x100 EXP SWAP1 DIV PUSH20 0xFFFFFFFFFFFFFFFFFFFFFFFFFFFFFFFFFFFFFFFF AND SWAP1 POP DUP2 PUSH1 0x0 DUP1 PUSH2 0x100 EXP DUP2 SLOAD DUP2 PUSH20 0xFFFFFFFFFFFFFFFFFFFFFFFFFFFFFFFFFFFFFFFF MUL NOT AND SWAP1 DUP4 PUSH20 0xFFFFFFFFFFFFFFFFFFFFFFFFFFFFFFFFFFFFFFFF AND MUL OR SWAP1 SSTORE POP DUP2 PUSH20 0xFFFFFFFFFFFFFFFFFFFFFFFFFFFFFFFFFFFFFFFF AND DUP2 PUSH20 0xFFFFFFFFFFFFFFFFFFFFFFFFFFFFFFFFFFFFFFFF AND PUSH32 0x8BE0079C531659141344CD1FD0A4F28419497F9722A3DAAFE3B4186F6B6457E0 PUSH1 0x40 MLOAD PUSH1 0x40 MLOAD DUP1 SWAP2 SUB SWAP1 LOG3 POP POP JUMP JUMPDEST PUSH1 0x0 CALLER SWAP1 POP SWAP1 JUMP JUMPDEST PUSH2 0x2B0C DUP1 PUSH3 0x1E7F DUP4 CODECOPY ADD SWAP1 JUMP JUMPDEST PUSH1 0x0 PUSH1 0x40 MLOAD SWAP1 POP SWAP1 JUMP JUMPDEST PUSH1 0x0 DUP1 REVERT JUMPDEST PUSH1 0x0 DUP1 REVERT JUMPDEST PUSH1 0x0 DUP2 SWAP1 POP SWAP2 SWAP1 POP JUMP JUMPDEST PUSH3 0x11D5 DUP2 PUSH3 0x11C0 JUMP JUMPDEST DUP2 EQ PUSH3 0x11E1 JUMPI PUSH1 0x0 DUP1 REVERT JUMPDEST POP JUMP JUMPDEST PUSH1 0x0 DUP2 CALLDATALOAD SWAP1 POP PUSH3 0x11F5 DUP2 PUSH3 0x11CA JUMP JUMPDEST SWAP3 SWAP2 POP POP JUMP JUMPDEST PUSH1 0x0 DUP1 PUSH1 0x40 DUP4 DUP6 SUB SLT ISZERO PUSH3 0x1215 JUMPI PUSH3 0x1214 PUSH3 0x11B6 JUMP JUMPDEST JUMPDEST PUSH1 0x0 PUSH3 0x1225 DUP6 DUP3 DUP7 ADD PUSH3 0x11E4 JUMP JUMPDEST SWAP3 POP POP PUSH1 0x20 PUSH3 0x1238 DUP6 DUP3 DUP7 ADD PUSH3 0x11E4 JUMP JUMPDEST SWAP2 POP POP SWAP3 POP SWAP3 SWAP1 POP JUMP JUMPDEST PUSH1 0x0 DUP2 MLOAD SWAP1 POP SWAP2 SWAP1 POP JUMP JUMPDEST PUSH1 0x0 DUP3 DUP3 MSTORE PUSH1 0x20 DUP3 ADD SWAP1 POP SWAP3 SWAP2 POP POP JUMP JUMPDEST PUSH1 0x0 DUP2 SWAP1 POP PUSH1 0x20 DUP3 ADD SWAP1 POP SWAP2 SWAP1 POP JUMP JUMPDEST PUSH1 0x0 PUSH20 0xFFFFFFFFFFFFFFFFFFFFFFFFFFFFFFFFFFFFFFFF DUP3 AND SWAP1 POP SWAP2 SWAP1 POP JUMP JUMPDEST PUSH1 0x0 PUSH3 0x129B DUP3 PUSH3 0x126E JUMP JUMPDEST SWAP1 POP SWAP2 SWAP1 POP JUMP JUMPDEST PUSH3 0x12AD DUP2 PUSH3 0x128E JUMP JUMPDEST DUP3 MSTORE POP POP JUMP JUMPDEST PUSH1 0x0 PUSH3 0x12C1 DUP4 DUP4 PUSH3 0x12A2 JUMP JUMPDEST PUSH1 0x20 DUP4 ADD SWAP1 POP SWAP3 SWAP2 POP POP JUMP JUMPDEST PUSH1 0x0 PUSH1 0x20 DUP3 ADD SWAP1 POP SWAP2 SWAP1 POP JUMP JUMPDEST PUSH1 0x0 PUSH3 0x12E7 DUP3 PUSH3 0x1242 JUMP JUMPDEST PUSH3 0x12F3 DUP2 DUP6 PUSH3 0x124D JUMP JUMPDEST SWAP4 POP PUSH3 0x1300 DUP4 PUSH3 0x125E JUMP JUMPDEST DUP1 PUSH1 0x0 JUMPDEST DUP4 DUP2 LT ISZERO PUSH3 0x1337 JUMPI DUP2 MLOAD PUSH3 0x131B DUP9 DUP3 PUSH3 0x12B3 JUMP JUMPDEST SWAP8 POP PUSH3 0x1328 DUP4 PUSH3 0x12CD JUMP JUMPDEST SWAP3 POP POP PUSH1 0x1 DUP2 ADD SWAP1 POP PUSH3 0x1304 JUMP JUMPDEST POP DUP6 SWAP4 POP POP POP POP SWAP3 SWAP2 POP POP JUMP JUMPDEST PUSH1 0x0 PUSH1 0x20 DUP3 ADD SWAP1 POP DUP2 DUP2 SUB PUSH1 0x0 DUP4 ADD MSTORE PUSH3 0x1360 DUP2 DUP5 PUSH3 0x12DA JUMP JUMPDEST SWAP1 POP SWAP3 SWAP2 POP POP JUMP JUMPDEST PUSH3 0x1373 DUP2 PUSH3 0x128E JUMP JUMPDEST DUP2 EQ PUSH3 0x137F JUMPI PUSH1 0x0 DUP1 REVERT JUMPDEST POP JUMP JUMPDEST PUSH1 0x0 DUP2 CALLDATALOAD SWAP1 POP PUSH3 0x1393 DUP2 PUSH3 0x1368 JUMP JUMPDEST SWAP3 SWAP2 POP POP JUMP JUMPDEST PUSH1 0x0 DUP1 PUSH1 0x0 PUSH1 0x60 DUP5 DUP7 SUB SLT ISZERO PUSH3 0x13B5 JUMPI PUSH3 0x13B4 PUSH3 0x11B6 JUMP JUMPDEST JUMPDEST PUSH1 0x0 PUSH3 0x13C5 DUP7 DUP3 DUP8 ADD PUSH3 0x11E4 JUMP JUMPDEST SWAP4 POP POP PUSH1 0x20 PUSH3 0x13D8 DUP7 DUP3 DUP8 ADD PUSH3 0x11E4 JUMP JUMPDEST SWAP3 POP POP PUSH1 0x40 PUSH3 0x13EB DUP7 DUP3 DUP8 ADD PUSH3 0x1382 JUMP JUMPDEST SWAP2 POP POP SWAP3 POP SWAP3 POP SWAP3 JUMP JUMPDEST PUSH1 0x0 DUP1 REVERT JUMPDEST PUSH1 0x0 PUSH1 0x1F NOT PUSH1 0x1F DUP4 ADD AND SWAP1 POP SWAP2 SWAP1 POP JUMP JUMPDEST PUSH32 0x4E487B7100000000000000000000000000000000000000000000000000000000 PUSH1 0x0 MSTORE PUSH1 0x41 PUSH1 0x4 MSTORE PUSH1 0x24 PUSH1 0x0 REVERT JUMPDEST PUSH3 0x1445 DUP3 PUSH3 0x13FA JUMP JUMPDEST DUP2 ADD DUP2 DUP2 LT PUSH8 0xFFFFFFFFFFFFFFFF DUP3 GT OR ISZERO PUSH3 0x1467 JUMPI PUSH3 0x1466 PUSH3 0x140B JUMP JUMPDEST JUMPDEST DUP1 PUSH1 0x40 MSTORE POP POP POP JUMP JUMPDEST PUSH1 0x0 PUSH3 0x147C PUSH3 0x11AC JUMP JUMPDEST SWAP1 POP PUSH3 0x148A DUP3 DUP3 PUSH3 0x143A JUMP JUMPDEST SWAP2 SWAP1 POP JUMP JUMPDEST PUSH1 0x0 PUSH8 0xFFFFFFFFFFFFFFFF DUP3 GT ISZERO PUSH3 0x14AD JUMPI PUSH3 0x14AC PUSH3 0x140B JUMP JUMPDEST JUMPDEST PUSH1 0x20 DUP3 MUL SWAP1 POP PUSH1 0x20 DUP2 ADD SWAP1 POP SWAP2 SWAP1 POP JUMP JUMPDEST PUSH1 0x0 DUP1 REVERT JUMPDEST PUSH1 0x0 PUSH3 0x14DA PUSH3 0x14D4 DUP5 PUSH3 0x148F JUMP JUMPDEST PUSH3 0x1470 JUMP JUMPDEST SWAP1 POP DUP1 DUP4 DUP3 MSTORE PUSH1 0x20 DUP3 ADD SWAP1 POP PUSH1 0x20 DUP5 MUL DUP4 ADD DUP6 DUP2 GT ISZERO PUSH3 0x1500 JUMPI PUSH3 0x14FF PUSH3 0x14BE JUMP JUMPDEST JUMPDEST DUP4 JUMPDEST DUP2 DUP2 LT ISZERO PUSH3 0x152D JUMPI DUP1 PUSH3 0x1518 DUP9 DUP3 PUSH3 0x11E4 JUMP JUMPDEST DUP5 MSTORE PUSH1 0x20 DUP5 ADD SWAP4 POP POP PUSH1 0x20 DUP2 ADD SWAP1 POP PUSH3 0x1502 JUMP JUMPDEST POP POP POP SWAP4 SWAP3 POP POP POP JUMP JUMPDEST PUSH1 0x0 DUP3 PUSH1 0x1F DUP4 ADD SLT PUSH3 0x154F JUMPI PUSH3 0x154E PUSH3 0x13F5 JUMP JUMPDEST JUMPDEST DUP2 CALLDATALOAD PUSH3 0x1561 DUP5 DUP3 PUSH1 0x20 DUP7 ADD PUSH3 0x14C3 JUMP JUMPDEST SWAP2 POP POP SWAP3 SWAP2 POP POP JUMP JUMPDEST PUSH1 0x0 DUP1 REVERT JUMPDEST PUSH1 0x0 PUSH8 0xFFFFFFFFFFFFFFFF DUP3 GT ISZERO PUSH3 0x158D JUMPI PUSH3 0x158C PUSH3 0x140B JUMP JUMPDEST JUMPDEST PUSH3 0x1598 DUP3 PUSH3 0x13FA JUMP JUMPDEST SWAP1 POP PUSH1 0x20 DUP2 ADD SWAP1 POP SWAP2 SWAP1 POP JUMP JUMPDEST DUP3 DUP2 DUP4 CALLDATACOPY PUSH1 0x0 DUP4 DUP4 ADD MSTORE POP POP POP JUMP JUMPDEST PUSH1 0x0 PUSH3 0x15CB PUSH3 0x15C5 DUP5 PUSH3 0x156F JUMP JUMPDEST PUSH3 0x1470 JUMP JUMPDEST SWAP1 POP DUP3 DUP2 MSTORE PUSH1 0x20 DUP2 ADD DUP5 DUP5 DUP5 ADD GT ISZERO PUSH3 0x15EA JUMPI PUSH3 0x15E9 PUSH3 0x156A JUMP JUMPDEST JUMPDEST PUSH3 0x15F7 DUP5 DUP3 DUP6 PUSH3 0x15A5 JUMP JUMPDEST POP SWAP4 SWAP3 POP POP POP JUMP JUMPDEST PUSH1 0x0 DUP3 PUSH1 0x1F DUP4 ADD SLT PUSH3 0x1617 JUMPI PUSH3 0x1616 PUSH3 0x13F5 JUMP JUMPDEST JUMPDEST DUP2 CALLDATALOAD PUSH3 0x1629 DUP5 DUP3 PUSH1 0x20 DUP7 ADD PUSH3 0x15B4 JUMP JUMPDEST SWAP2 POP POP SWAP3 SWAP2 POP POP JUMP JUMPDEST PUSH1 0x0 DUP1 PUSH1 0x0 DUP1 PUSH1 0x0 PUSH1 0xA0 DUP7 DUP9 SUB SLT ISZERO PUSH3 0x1651 JUMPI PUSH3 0x1650 PUSH3 0x11B6 JUMP JUMPDEST JUMPDEST PUSH1 0x0 DUP7 ADD CALLDATALOAD PUSH8 0xFFFFFFFFFFFFFFFF DUP2 GT ISZERO PUSH3 0x1672 JUMPI PUSH3 0x1671 PUSH3 0x11BB JUMP JUMPDEST JUMPDEST PUSH3 0x1680 DUP9 DUP3 DUP10 ADD PUSH3 0x1537 JUMP JUMPDEST SWAP6 POP POP PUSH1 0x20 DUP7 ADD CALLDATALOAD PUSH8 0xFFFFFFFFFFFFFFFF DUP2 GT ISZERO PUSH3 0x16A4 JUMPI PUSH3 0x16A3 PUSH3 0x11BB JUMP JUMPDEST JUMPDEST PUSH3 0x16B2 DUP9 DUP3 DUP10 ADD PUSH3 0x1537 JUMP JUMPDEST SWAP5 POP POP PUSH1 0x40 PUSH3 0x16C5 DUP9 DUP3 DUP10 ADD PUSH3 0x1382 JUMP JUMPDEST SWAP4 POP POP PUSH1 0x60 DUP7 ADD CALLDATALOAD PUSH8 0xFFFFFFFFFFFFFFFF DUP2 GT ISZERO PUSH3 0x16E9 JUMPI PUSH3 0x16E8 PUSH3 0x11BB JUMP JUMPDEST JUMPDEST PUSH3 0x16F7 DUP9 DUP3 DUP10 ADD PUSH3 0x15FF JUMP JUMPDEST SWAP3 POP POP PUSH1 0x80 DUP7 ADD CALLDATALOAD PUSH8 0xFFFFFFFFFFFFFFFF DUP2 GT ISZERO PUSH3 0x171B JUMPI PUSH3 0x171A PUSH3 0x11BB JUMP JUMPDEST JUMPDEST PUSH3 0x1729 DUP9 DUP3 DUP10 ADD PUSH3 0x15FF JUMP JUMPDEST SWAP2 POP POP SWAP3 SWAP6 POP SWAP3 SWAP6 SWAP1 SWAP4 POP JUMP JUMPDEST PUSH3 0x1741 DUP2 PUSH3 0x11C0 JUMP JUMPDEST DUP3 MSTORE POP POP JUMP JUMPDEST PUSH1 0x0 PUSH1 0x20 DUP3 ADD SWAP1 POP PUSH3 0x175E PUSH1 0x0 DUP4 ADD DUP5 PUSH3 0x1736 JUMP JUMPDEST SWAP3 SWAP2 POP POP JUMP JUMPDEST PUSH3 0x176F DUP2 PUSH3 0x128E JUMP JUMPDEST DUP3 MSTORE POP POP JUMP JUMPDEST PUSH1 0x0 PUSH1 0x20 DUP3 ADD SWAP1 POP PUSH3 0x178C PUSH1 0x0 DUP4 ADD DUP5 PUSH3 0x1764 JUMP JUMPDEST SWAP3 SWAP2 POP POP JUMP JUMPDEST PUSH1 0x0 PUSH1 0x20 DUP3 DUP5 SUB SLT ISZERO PUSH3 0x17AB JUMPI PUSH3 0x17AA PUSH3 0x11B6 JUMP JUMPDEST JUMPDEST PUSH1 0x0 PUSH3 0x17BB DUP5 DUP3 DUP6 ADD PUSH3 0x1382 JUMP JUMPDEST SWAP2 POP POP SWAP3 SWAP2 POP POP JUMP JUMPDEST PUSH1 0x0 PUSH1 0x20 DUP3 DUP5 SUB SLT ISZERO PUSH3 0x17DD JUMPI PUSH3 0x17DC PUSH3 0x11B6 JUMP JUMPDEST JUMPDEST PUSH1 0x0 PUSH3 0x17ED DUP5 DUP3 DUP6 ADD PUSH3 0x11E4 JUMP JUMPDEST SWAP2 POP POP SWAP3 SWAP2 POP POP JUMP JUMPDEST PUSH1 0x0 DUP1 PUSH1 0x40 DUP4 DUP6 SUB SLT ISZERO PUSH3 0x1810 JUMPI PUSH3 0x180F PUSH3 0x11B6 JUMP JUMPDEST JUMPDEST PUSH1 0x0 PUSH3 0x1820 DUP6 DUP3 DUP7 ADD PUSH3 0x1382 JUMP JUMPDEST SWAP3 POP POP PUSH1 0x20 PUSH3 0x1833 DUP6 DUP3 DUP7 ADD PUSH3 0x11E4 JUMP JUMPDEST SWAP2 POP POP SWAP3 POP SWAP3 SWAP1 POP JUMP JUMPDEST PUSH1 0x0 DUP1 PUSH1 0x40 DUP4 DUP6 SUB SLT ISZERO PUSH3 0x1857 JUMPI PUSH3 0x1856 PUSH3 0x11B6 JUMP JUMPDEST JUMPDEST PUSH1 0x0 PUSH3 0x1867 DUP6 DUP3 DUP7 ADD PUSH3 0x1382 JUMP JUMPDEST SWAP3 POP POP PUSH1 0x20 PUSH3 0x187A DUP6 DUP3 DUP7 ADD PUSH3 0x1382 JUMP JUMPDEST SWAP2 POP POP SWAP3 POP SWAP3 SWAP1 POP JUMP JUMPDEST PUSH1 0x0 PUSH1 0x40 DUP3 ADD SWAP1 POP PUSH3 0x189B PUSH1 0x0 DUP4 ADD DUP6 PUSH3 0x1736 JUMP JUMPDEST PUSH3 0x18AA PUSH1 0x20 DUP4 ADD DUP5 PUSH3 0x1736 JUMP JUMPDEST SWAP4 SWAP3 POP POP POP JUMP JUMPDEST PUSH1 0x0 DUP2 MLOAD SWAP1 POP SWAP2 SWAP1 POP JUMP JUMPDEST PUSH1 0x0 DUP3 DUP3 MSTORE PUSH1 0x20 DUP3 ADD SWAP1 POP SWAP3 SWAP2 POP POP JUMP JUMPDEST PUSH1 0x0 DUP2 SWAP1 POP PUSH1 0x20 DUP3 ADD SWAP1 POP SWAP2 SWAP1 POP JUMP JUMPDEST PUSH3 0x18E8 DUP2 PUSH3 0x11C0 JUMP JUMPDEST DUP3 MSTORE POP POP JUMP JUMPDEST PUSH1 0x0 PUSH3 0x18FC DUP4 DUP4 PUSH3 0x18DD JUMP JUMPDEST PUSH1 0x20 DUP4 ADD SWAP1 POP SWAP3 SWAP2 POP POP JUMP JUMPDEST PUSH1 0x0 PUSH1 0x20 DUP3 ADD SWAP1 POP SWAP2 SWAP1 POP JUMP JUMPDEST PUSH1 0x0 PUSH3 0x1922 DUP3 PUSH3 0x18B1 JUMP JUMPDEST PUSH3 0x192E DUP2 DUP6 PUSH3 0x18BC JUMP JUMPDEST SWAP4 POP PUSH3 0x193B DUP4 PUSH3 0x18CD JUMP JUMPDEST DUP1 PUSH1 0x0 JUMPDEST DUP4 DUP2 LT ISZERO PUSH3 0x1972 JUMPI DUP2 MLOAD PUSH3 0x1956 DUP9 DUP3 PUSH3 0x18EE JUMP JUMPDEST SWAP8 POP PUSH3 0x1963 DUP4 PUSH3 0x1908 JUMP JUMPDEST SWAP3 POP POP PUSH1 0x1 DUP2 ADD SWAP1 POP PUSH3 0x193F JUMP JUMPDEST POP DUP6 SWAP4 POP POP POP POP SWAP3 SWAP2 POP POP JUMP JUMPDEST PUSH1 0x0 PUSH1 0x40 DUP3 ADD SWAP1 POP DUP2 DUP2 SUB PUSH1 0x0 DUP4 ADD MSTORE PUSH3 0x199B DUP2 DUP6 PUSH3 0x1915 JUMP JUMPDEST SWAP1 POP DUP2 DUP2 SUB PUSH1 0x20 DUP4 ADD MSTORE PUSH3 0x19B1 DUP2 DUP5 PUSH3 0x1915 JUMP JUMPDEST SWAP1 POP SWAP4 SWAP3 POP POP POP JUMP JUMPDEST PUSH32 0x4E487B7100000000000000000000000000000000000000000000000000000000 PUSH1 0x0 MSTORE PUSH1 0x11 PUSH1 0x4 MSTORE PUSH1 0x24 PUSH1 0x0 REVERT JUMPDEST PUSH1 0x0 PUSH3 0x19F6 DUP3 PUSH3 0x11C0 JUMP JUMPDEST SWAP2 POP PUSH3 0x1A03 DUP4 PUSH3 0x11C0 JUMP JUMPDEST SWAP3 POP DUP3 DUP3 LT ISZERO PUSH3 0x1A19 JUMPI PUSH3 0x1A18 PUSH3 0x19BA JUMP JUMPDEST JUMPDEST DUP3 DUP3 SUB SWAP1 POP SWAP3 SWAP2 POP POP JUMP JUMPDEST PUSH1 0x0 PUSH3 0x1A31 DUP3 PUSH3 0x11C0 JUMP JUMPDEST SWAP2 POP PUSH3 0x1A3E DUP4 PUSH3 0x11C0 JUMP JUMPDEST SWAP3 POP DUP3 PUSH32 0xFFFFFFFFFFFFFFFFFFFFFFFFFFFFFFFFFFFFFFFFFFFFFFFFFFFFFFFFFFFFFFFF SUB DUP3 GT ISZERO PUSH3 0x1A76 JUMPI PUSH3 0x1A75 PUSH3 0x19BA JUMP JUMPDEST JUMPDEST DUP3 DUP3 ADD SWAP1 POP SWAP3 SWAP2 POP POP JUMP JUMPDEST PUSH32 0x4E487B7100000000000000000000000000000000000000000000000000000000 PUSH1 0x0 MSTORE PUSH1 0x32 PUSH1 0x4 MSTORE PUSH1 0x24 PUSH1 0x0 REVERT JUMPDEST PUSH1 0x0 PUSH3 0x1ABD DUP3 PUSH3 0x11C0 JUMP JUMPDEST SWAP2 POP PUSH32 0xFFFFFFFFFFFFFFFFFFFFFFFFFFFFFFFFFFFFFFFFFFFFFFFFFFFFFFFFFFFFFFFF DUP3 EQ ISZERO PUSH3 0x1AF3 JUMPI PUSH3 0x1AF2 PUSH3 0x19BA JUMP JUMPDEST JUMPDEST PUSH1 0x1 DUP3 ADD SWAP1 POP SWAP2 SWAP1 POP JUMP JUMPDEST PUSH1 0x0 DUP3 DUP3 MSTORE PUSH1 0x20 DUP3 ADD SWAP1 POP SWAP3 SWAP2 POP POP JUMP JUMPDEST PUSH32 0x4F6E6C79206C61756E6368706164732063616E20616464000000000000000000 PUSH1 0x0 DUP3 ADD MSTORE POP JUMP JUMPDEST PUSH1 0x0 PUSH3 0x1B47 PUSH1 0x17 DUP4 PUSH3 0x1AFE JUMP JUMPDEST SWAP2 POP PUSH3 0x1B54 DUP3 PUSH3 0x1B0F JUMP JUMPDEST PUSH1 0x20 DUP3 ADD SWAP1 POP SWAP2 SWAP1 POP JUMP JUMPDEST PUSH1 0x0 PUSH1 0x20 DUP3 ADD SWAP1 POP DUP2 DUP2 SUB PUSH1 0x0 DUP4 ADD MSTORE PUSH3 0x1B7A DUP2 PUSH3 0x1B38 JUMP JUMPDEST SWAP1 POP SWAP2 SWAP1 POP JUMP JUMPDEST PUSH32 0x4E6F7420656E6F756768207061796D656E7420746F206465706C6F7900000000 PUSH1 0x0 DUP3 ADD MSTORE POP JUMP JUMPDEST PUSH1 0x0 PUSH3 0x1BB9 PUSH1 0x1C DUP4 PUSH3 0x1AFE JUMP JUMPDEST SWAP2 POP PUSH3 0x1BC6 DUP3 PUSH3 0x1B81 JUMP JUMPDEST PUSH1 0x20 DUP3 ADD SWAP1 POP SWAP2 SWAP1 POP JUMP JUMPDEST PUSH1 0x0 PUSH1 0x20 DUP3 ADD SWAP1 POP DUP2 DUP2 SUB PUSH1 0x0 DUP4 ADD MSTORE PUSH3 0x1BEC DUP2 PUSH3 0x1BAA JUMP JUMPDEST SWAP1 POP SWAP2 SWAP1 POP JUMP JUMPDEST PUSH1 0x0 DUP2 MLOAD SWAP1 POP SWAP2 SWAP1 POP JUMP JUMPDEST PUSH1 0x0 JUMPDEST DUP4 DUP2 LT ISZERO PUSH3 0x1C1E JUMPI DUP1 DUP3 ADD MLOAD DUP2 DUP5 ADD MSTORE PUSH1 0x20 DUP2 ADD SWAP1 POP PUSH3 0x1C01 JUMP JUMPDEST DUP4 DUP2 GT ISZERO PUSH3 0x1C2E JUMPI PUSH1 0x0 DUP5 DUP5 ADD MSTORE JUMPDEST POP POP POP POP JUMP JUMPDEST PUSH1 0x0 PUSH3 0x1C41 DUP3 PUSH3 0x1BF3 JUMP JUMPDEST PUSH3 0x1C4D DUP2 DUP6 PUSH3 0x1AFE JUMP JUMPDEST SWAP4 POP PUSH3 0x1C5F DUP2 DUP6 PUSH1 0x20 DUP7 ADD PUSH3 0x1BFE JUMP JUMPDEST PUSH3 0x1C6A DUP2 PUSH3 0x13FA JUMP JUMPDEST DUP5 ADD SWAP2 POP POP SWAP3 SWAP2 POP POP JUMP JUMPDEST PUSH1 0x0 PUSH1 0xC0 DUP3 ADD SWAP1 POP DUP2 DUP2 SUB PUSH1 0x0 DUP4 ADD MSTORE PUSH3 0x1C91 DUP2 DUP10 PUSH3 0x1915 JUMP JUMPDEST SWAP1 POP DUP2 DUP2 SUB PUSH1 0x20 DUP4 ADD MSTORE PUSH3 0x1CA7 DUP2 DUP9 PUSH3 0x1915 JUMP JUMPDEST SWAP1 POP PUSH3 0x1CB8 PUSH1 0x40 DUP4 ADD DUP8 PUSH3 0x1764 JUMP JUMPDEST PUSH3 0x1CC7 PUSH1 0x60 DUP4 ADD DUP7 PUSH3 0x1764 JUMP JUMPDEST DUP2 DUP2 SUB PUSH1 0x80 DUP4 ADD MSTORE PUSH3 0x1CDB DUP2 DUP6 PUSH3 0x1C34 JUMP JUMPDEST SWAP1 POP DUP2 DUP2 SUB PUSH1 0xA0 DUP4 ADD MSTORE PUSH3 0x1CF1 DUP2 DUP5 PUSH3 0x1C34 JUMP JUMPDEST SWAP1 POP SWAP8 SWAP7 POP POP POP POP POP POP POP JUMP JUMPDEST PUSH1 0x0 PUSH1 0x40 DUP3 ADD SWAP1 POP PUSH3 0x1D15 PUSH1 0x0 DUP4 ADD DUP6 PUSH3 0x1764 JUMP JUMPDEST PUSH3 0x1D24 PUSH1 0x20 DUP4 ADD DUP5 PUSH3 0x1764 JUMP JUMPDEST SWAP4 SWAP3 POP POP POP JUMP JUMPDEST PUSH1 0x0 DUP2 MLOAD SWAP1 POP PUSH3 0x1D3C DUP2 PUSH3 0x11CA JUMP JUMPDEST SWAP3 SWAP2 POP POP JUMP JUMPDEST PUSH1 0x0 PUSH1 0x20 DUP3 DUP5 SUB SLT ISZERO PUSH3 0x1D5B JUMPI PUSH3 0x1D5A PUSH3 0x11B6 JUMP JUMPDEST JUMPDEST PUSH1 0x0 PUSH3 0x1D6B DUP5 DUP3 DUP6 ADD PUSH3 0x1D2B JUMP JUMPDEST SWAP2 POP POP SWAP3 SWAP2 POP POP JUMP JUMPDEST PUSH32 0x4F776E61626C653A206E6577206F776E657220697320746865207A65726F2061 PUSH1 0x0 DUP3 ADD MSTORE PUSH32 0x6464726573730000000000000000000000000000000000000000000000000000 PUSH1 0x20 DUP3 ADD MSTORE POP JUMP JUMPDEST PUSH1 0x0 PUSH3 0x1DD2 PUSH1 0x26 DUP4 PUSH3 0x1AFE JUMP JUMPDEST SWAP2 POP PUSH3 0x1DDF DUP3 PUSH3 0x1D74 JUMP JUMPDEST PUSH1 0x40 DUP3 ADD SWAP1 POP SWAP2 SWAP1 POP JUMP JUMPDEST PUSH1 0x0 PUSH1 0x20 DUP3 ADD SWAP1 POP DUP2 DUP2 SUB PUSH1 0x0 DUP4 ADD MSTORE PUSH3 0x1E05 DUP2 PUSH3 0x1DC3 JUMP JUMPDEST SWAP1 POP SWAP2 SWAP1 POP JUMP JUMPDEST PUSH32 0x4F776E61626C653A2063616C6C6572206973206E6F7420746865206F776E6572 PUSH1 0x0 DUP3 ADD MSTORE POP JUMP JUMPDEST PUSH1 0x0 PUSH3 0x1E44 PUSH1 0x20 DUP4 PUSH3 0x1AFE JUMP JUMPDEST SWAP2 POP PUSH3 0x1E51 DUP3 PUSH3 0x1E0C JUMP JUMPDEST PUSH1 0x20 DUP3 ADD SWAP1 POP SWAP2 SWAP1 POP JUMP JUMPDEST PUSH1 0x0 PUSH1 0x20 DUP3 ADD SWAP1 POP DUP2 DUP2 SUB PUSH1 0x0 DUP4 ADD MSTORE PUSH3 0x1E77 DUP2 PUSH3 0x1E35 JUMP JUMPDEST SWAP1 POP SWAP2 SWAP1 POP JUMP INVALID PUSH1 0x80 PUSH1 0x40 MSTORE CALLVALUE DUP1 ISZERO PUSH3 0x11 JUMPI PUSH1 0x0 DUP1 REVERT JUMPDEST POP PUSH1 0x40 MLOAD PUSH3 0x2B0C CODESIZE SUB DUP1 PUSH3 0x2B0C DUP4 CODECOPY DUP2 DUP2 ADD PUSH1 0x40 MSTORE DUP2 ADD SWAP1 PUSH3 0x37 SWAP2 SWAP1 PUSH3 0x79D JUMP JUMPDEST PUSH3 0x57 PUSH3 0x4B PUSH3 0x309 PUSH1 0x20 SHL PUSH1 0x20 SHR JUMP JUMPDEST PUSH3 0x311 PUSH1 0x20 SHL PUSH1 0x20 SHR JUMP JUMPDEST PUSH1 0x0 DUP1 PUSH1 0x14 PUSH2 0x100 EXP DUP2 SLOAD DUP2 PUSH1 0xFF MUL NOT AND SWAP1 DUP4 ISZERO ISZERO MUL OR SWAP1 SSTORE POP PUSH2 0x2710 PUSH8 0xDE0B6B3A7640000 DUP8 PUSH1 0x0 DUP2 MLOAD DUP2 LT PUSH3 0x94 JUMPI PUSH3 0x93 PUSH3 0x8B5 JUMP JUMPDEST JUMPDEST PUSH1 0x20 MUL PUSH1 0x20 ADD ADD MLOAD PUSH3 0xA8 SWAP2 SWAP1 PUSH3 0x913 JUMP JUMPDEST PUSH3 0xB4 SWAP2 SWAP1 PUSH3 0x9A3 JUMP JUMPDEST PUSH1 0x1 DUP2 SWAP1 SSTORE POP PUSH2 0x2710 PUSH8 0xDE0B6B3A7640000 DUP8 PUSH1 0x1 DUP2 MLOAD DUP2 LT PUSH3 0xDD JUMPI PUSH3 0xDC PUSH3 0x8B5 JUMP JUMPDEST JUMPDEST PUSH1 0x20 MUL PUSH1 0x20 ADD ADD MLOAD PUSH3 0xF1 SWAP2 SWAP1 PUSH3 0x913 JUMP JUMPDEST PUSH3 0xFD SWAP2 SWAP1 PUSH3 0x9A3 JUMP JUMPDEST PUSH1 0x2 DUP2 SWAP1 SSTORE POP DUP5 PUSH1 0x0 DUP2 MLOAD DUP2 LT PUSH3 0x11A JUMPI PUSH3 0x119 PUSH3 0x8B5 JUMP JUMPDEST JUMPDEST PUSH1 0x20 MUL PUSH1 0x20 ADD ADD MLOAD PUSH1 0x3 DUP2 SWAP1 SSTORE POP DUP5 PUSH1 0x1 DUP2 MLOAD DUP2 LT PUSH3 0x13F JUMPI PUSH3 0x13E PUSH3 0x8B5 JUMP JUMPDEST JUMPDEST PUSH1 0x20 MUL PUSH1 0x20 ADD ADD MLOAD PUSH1 0x4 DUP2 SWAP1 SSTORE POP DUP4 PUSH1 0x9 PUSH1 0x0 PUSH2 0x100 EXP DUP2 SLOAD DUP2 PUSH20 0xFFFFFFFFFFFFFFFFFFFFFFFFFFFFFFFFFFFFFFFF MUL NOT AND SWAP1 DUP4 PUSH20 0xFFFFFFFFFFFFFFFFFFFFFFFFFFFFFFFFFFFFFFFF AND MUL OR SWAP1 SSTORE POP DUP3 PUSH1 0xA PUSH1 0x0 PUSH2 0x100 EXP DUP2 SLOAD DUP2 PUSH20 0xFFFFFFFFFFFFFFFFFFFFFFFFFFFFFFFFFFFFFFFF MUL NOT AND SWAP1 DUP4 PUSH20 0xFFFFFFFFFFFFFFFFFFFFFFFFFFFFFFFFFFFFFFFF AND MUL OR SWAP1 SSTORE POP PUSH1 0x0 PUSH20 0xFFFFFFFFFFFFFFFFFFFFFFFFFFFFFFFFFFFFFFFF AND PUSH1 0xA PUSH1 0x0 SWAP1 SLOAD SWAP1 PUSH2 0x100 EXP SWAP1 DIV PUSH20 0xFFFFFFFFFFFFFFFFFFFFFFFFFFFFFFFFFFFFFFFF AND PUSH20 0xFFFFFFFFFFFFFFFFFFFFFFFFFFFFFFFFFFFFFFFF AND EQ PUSH3 0x28A JUMPI PUSH1 0xA PUSH1 0x0 SWAP1 SLOAD SWAP1 PUSH2 0x100 EXP SWAP1 DIV PUSH20 0xFFFFFFFFFFFFFFFFFFFFFFFFFFFFFFFFFFFFFFFF AND PUSH1 0xD PUSH1 0x0 PUSH2 0x100 EXP DUP2 SLOAD DUP2 PUSH20 0xFFFFFFFFFFFFFFFFFFFFFFFFFFFFFFFFFFFFFFFF MUL NOT AND SWAP1 DUP4 PUSH20 0xFFFFFFFFFFFFFFFFFFFFFFFFFFFFFFFFFFFFFFFF AND MUL OR SWAP1 SSTORE POP JUMPDEST DUP2 PUSH1 0x7 SWAP1 DUP1 MLOAD SWAP1 PUSH1 0x20 ADD SWAP1 PUSH3 0x2A2 SWAP3 SWAP2 SWAP1 PUSH3 0x3D5 JUMP JUMPDEST POP DUP1 PUSH1 0x8 SWAP1 DUP1 MLOAD SWAP1 PUSH1 0x20 ADD SWAP1 PUSH3 0x2BB SWAP3 SWAP2 SWAP1 PUSH3 0x3D5 JUMP JUMPDEST POP CALLER PUSH1 0xC PUSH1 0x0 PUSH2 0x100 EXP DUP2 SLOAD DUP2 PUSH20 0xFFFFFFFFFFFFFFFFFFFFFFFFFFFFFFFFFFFFFFFF MUL NOT AND SWAP1 DUP4 PUSH20 0xFFFFFFFFFFFFFFFFFFFFFFFFFFFFFFFFFFFFFFFF AND MUL OR SWAP1 SSTORE POP POP POP POP POP POP POP PUSH3 0xA40 JUMP JUMPDEST PUSH1 0x0 CALLER SWAP1 POP SWAP1 JUMP JUMPDEST PUSH1 0x0 DUP1 PUSH1 0x0 SWAP1 SLOAD SWAP1 PUSH2 0x100 EXP SWAP1 DIV PUSH20 0xFFFFFFFFFFFFFFFFFFFFFFFFFFFFFFFFFFFFFFFF AND SWAP1 POP DUP2 PUSH1 0x0 DUP1 PUSH2 0x100 EXP DUP2 SLOAD DUP2 PUSH20 0xFFFFFFFFFFFFFFFFFFFFFFFFFFFFFFFFFFFFFFFF MUL NOT AND SWAP1 DUP4 PUSH20 0xFFFFFFFFFFFFFFFFFFFFFFFFFFFFFFFFFFFFFFFF AND MUL OR SWAP1 SSTORE POP DUP2 PUSH20 0xFFFFFFFFFFFFFFFFFFFFFFFFFFFFFFFFFFFFFFFF AND DUP2 PUSH20 0xFFFFFFFFFFFFFFFFFFFFFFFFFFFFFFFFFFFFFFFF AND PUSH32 0x8BE0079C531659141344CD1FD0A4F28419497F9722A3DAAFE3B4186F6B6457E0 PUSH1 0x40 MLOAD PUSH1 0x40 MLOAD DUP1 SWAP2 SUB SWAP1 LOG3 POP POP JUMP JUMPDEST DUP3 DUP1 SLOAD PUSH3 0x3E3 SWAP1 PUSH3 0xA0A JUMP JUMPDEST SWAP1 PUSH1 0x0 MSTORE PUSH1 0x20 PUSH1 0x0 KECCAK256 SWAP1 PUSH1 0x1F ADD PUSH1 0x20 SWAP1 DIV DUP2 ADD SWAP3 DUP3 PUSH3 0x407 JUMPI PUSH1 0x0 DUP6 SSTORE PUSH3 0x453 JUMP JUMPDEST DUP3 PUSH1 0x1F LT PUSH3 0x422 JUMPI DUP1 MLOAD PUSH1 0xFF NOT AND DUP4 DUP1 ADD OR DUP6 SSTORE PUSH3 0x453 JUMP JUMPDEST DUP3 DUP1 ADD PUSH1 0x1 ADD DUP6 SSTORE DUP3 ISZERO PUSH3 0x453 JUMPI SWAP2 DUP3 ADD JUMPDEST DUP3 DUP2 GT ISZERO PUSH3 0x452 JUMPI DUP3 MLOAD DUP3 SSTORE SWAP2 PUSH1 0x20 ADD SWAP2 SWAP1 PUSH1 0x1 ADD SWAP1 PUSH3 0x435 JUMP JUMPDEST JUMPDEST POP SWAP1 POP PUSH3 0x462 SWAP2 SWAP1 PUSH3 0x466 JUMP JUMPDEST POP SWAP1 JUMP JUMPDEST JUMPDEST DUP1 DUP3 GT ISZERO PUSH3 0x481 JUMPI PUSH1 0x0 DUP2 PUSH1 0x0 SWAP1 SSTORE POP PUSH1 0x1 ADD PUSH3 0x467 JUMP JUMPDEST POP SWAP1 JUMP JUMPDEST PUSH1 0x0 PUSH1 0x40 MLOAD SWAP1 POP SWAP1 JUMP JUMPDEST PUSH1 0x0 DUP1 REVERT JUMPDEST PUSH1 0x0 DUP1 REVERT JUMPDEST PUSH1 0x0 DUP1 REVERT JUMPDEST PUSH1 0x0 PUSH1 0x1F NOT PUSH1 0x1F DUP4 ADD AND SWAP1 POP SWAP2 SWAP1 POP JUMP JUMPDEST PUSH32 0x4E487B7100000000000000000000000000000000000000000000000000000000 PUSH1 0x0 MSTORE PUSH1 0x41 PUSH1 0x4 MSTORE PUSH1 0x24 PUSH1 0x0 REVERT JUMPDEST PUSH3 0x4E9 DUP3 PUSH3 0x49E JUMP JUMPDEST DUP2 ADD DUP2 DUP2 LT PUSH8 0xFFFFFFFFFFFFFFFF DUP3 GT OR ISZERO PUSH3 0x50B JUMPI PUSH3 0x50A PUSH3 0x4AF JUMP JUMPDEST JUMPDEST DUP1 PUSH1 0x40 MSTORE POP POP POP JUMP JUMPDEST PUSH1 0x0 PUSH3 0x520 PUSH3 0x485 JUMP JUMPDEST SWAP1 POP PUSH3 0x52E DUP3 DUP3 PUSH3 0x4DE JUMP JUMPDEST SWAP2 SWAP1 POP JUMP JUMPDEST PUSH1 0x0 PUSH8 0xFFFFFFFFFFFFFFFF DUP3 GT ISZERO PUSH3 0x551 JUMPI PUSH3 0x550 PUSH3 0x4AF JUMP JUMPDEST JUMPDEST PUSH1 0x20 DUP3 MUL SWAP1 POP PUSH1 0x20 DUP2 ADD SWAP1 POP SWAP2 SWAP1 POP JUMP JUMPDEST PUSH1 0x0 DUP1 REVERT JUMPDEST PUSH1 0x0 DUP2 SWAP1 POP SWAP2 SWAP1 POP JUMP JUMPDEST PUSH3 0x57C DUP2 PUSH3 0x567 JUMP JUMPDEST DUP2 EQ PUSH3 0x588 JUMPI PUSH1 0x0 DUP1 REVERT JUMPDEST POP JUMP JUMPDEST PUSH1 0x0 DUP2 MLOAD SWAP1 POP PUSH3 0x59C DUP2 PUSH3 0x571 JUMP JUMPDEST SWAP3 SWAP2 POP POP JUMP JUMPDEST PUSH1 0x0 PUSH3 0x5B9 PUSH3 0x5B3 DUP5 PUSH3 0x533 JUMP JUMPDEST PUSH3 0x514 JUMP JUMPDEST SWAP1 POP DUP1 DUP4 DUP3 MSTORE PUSH1 0x20 DUP3 ADD SWAP1 POP PUSH1 0x20 DUP5 MUL DUP4 ADD DUP6 DUP2 GT ISZERO PUSH3 0x5DF JUMPI PUSH3 0x5DE PUSH3 0x562 JUMP JUMPDEST JUMPDEST DUP4 JUMPDEST DUP2 DUP2 LT ISZERO PUSH3 0x60C JUMPI DUP1 PUSH3 0x5F7 DUP9 DUP3 PUSH3 0x58B JUMP JUMPDEST DUP5 MSTORE PUSH1 0x20 DUP5 ADD SWAP4 POP POP PUSH1 0x20 DUP2 ADD SWAP1 POP PUSH3 0x5E1 JUMP JUMPDEST POP POP POP SWAP4 SWAP3 POP POP POP JUMP JUMPDEST PUSH1 0x0 DUP3 PUSH1 0x1F DUP4 ADD SLT PUSH3 0x62E JUMPI PUSH3 0x62D PUSH3 0x499 JUMP JUMPDEST JUMPDEST DUP2 MLOAD PUSH3 0x640 DUP5 DUP3 PUSH1 0x20 DUP7 ADD PUSH3 0x5A2 JUMP JUMPDEST SWAP2 POP POP SWAP3 SWAP2 POP POP JUMP JUMPDEST PUSH1 0x0 PUSH20 0xFFFFFFFFFFFFFFFFFFFFFFFFFFFFFFFFFFFFFFFF DUP3 AND SWAP1 POP SWAP2 SWAP1 POP JUMP JUMPDEST PUSH1 0x0 PUSH3 0x676 DUP3 PUSH3 0x649 JUMP JUMPDEST SWAP1 POP SWAP2 SWAP1 POP JUMP JUMPDEST PUSH3 0x688 DUP2 PUSH3 0x669 JUMP JUMPDEST DUP2 EQ PUSH3 0x694 JUMPI PUSH1 0x0 DUP1 REVERT JUMPDEST POP JUMP JUMPDEST PUSH1 0x0 DUP2 MLOAD SWAP1 POP PUSH3 0x6A8 DUP2 PUSH3 0x67D JUMP JUMPDEST SWAP3 SWAP2 POP POP JUMP JUMPDEST PUSH1 0x0 DUP1 REVERT JUMPDEST PUSH1 0x0 PUSH8 0xFFFFFFFFFFFFFFFF DUP3 GT ISZERO PUSH3 0x6D1 JUMPI PUSH3 0x6D0 PUSH3 0x4AF JUMP JUMPDEST JUMPDEST PUSH3 0x6DC DUP3 PUSH3 0x49E JUMP JUMPDEST SWAP1 POP PUSH1 0x20 DUP2 ADD SWAP1 POP SWAP2 SWAP1 POP JUMP JUMPDEST PUSH1 0x0 JUMPDEST DUP4 DUP2 LT ISZERO PUSH3 0x709 JUMPI DUP1 DUP3 ADD MLOAD DUP2 DUP5 ADD MSTORE PUSH1 0x20 DUP2 ADD SWAP1 POP PUSH3 0x6EC JUMP JUMPDEST DUP4 DUP2 GT ISZERO PUSH3 0x719 JUMPI PUSH1 0x0 DUP5 DUP5 ADD MSTORE JUMPDEST POP POP POP POP JUMP JUMPDEST PUSH1 0x0 PUSH3 0x736 PUSH3 0x730 DUP5 PUSH3 0x6B3 JUMP JUMPDEST PUSH3 0x514 JUMP JUMPDEST SWAP1 POP DUP3 DUP2 MSTORE PUSH1 0x20 DUP2 ADD DUP5 DUP5 DUP5 ADD GT ISZERO PUSH3 0x755 JUMPI PUSH3 0x754 PUSH3 0x6AE JUMP JUMPDEST JUMPDEST PUSH3 0x762 DUP5 DUP3 DUP6 PUSH3 0x6E9 JUMP JUMPDEST POP SWAP4 SWAP3 POP POP POP JUMP JUMPDEST PUSH1 0x0 DUP3 PUSH1 0x1F DUP4 ADD SLT PUSH3 0x782 JUMPI PUSH3 0x781 PUSH3 0x499 JUMP JUMPDEST JUMPDEST DUP2 MLOAD PUSH3 0x794 DUP5 DUP3 PUSH1 0x20 DUP7 ADD PUSH3 0x71F JUMP JUMPDEST SWAP2 POP POP SWAP3 SWAP2 POP POP JUMP JUMPDEST PUSH1 0x0 DUP1 PUSH1 0x0 DUP1 PUSH1 0x0 DUP1 PUSH1 0xC0 DUP8 DUP10 SUB SLT ISZERO PUSH3 0x7BD JUMPI PUSH3 0x7BC PUSH3 0x48F JUMP JUMPDEST JUMPDEST PUSH1 0x0 DUP8 ADD MLOAD PUSH8 0xFFFFFFFFFFFFFFFF DUP2 GT ISZERO PUSH3 0x7DE JUMPI PUSH3 0x7DD PUSH3 0x494 JUMP JUMPDEST JUMPDEST PUSH3 0x7EC DUP10 DUP3 DUP11 ADD PUSH3 0x616 JUMP JUMPDEST SWAP7 POP POP PUSH1 0x20 DUP8 ADD MLOAD PUSH8 0xFFFFFFFFFFFFFFFF DUP2 GT ISZERO PUSH3 0x810 JUMPI PUSH3 0x80F PUSH3 0x494 JUMP JUMPDEST JUMPDEST PUSH3 0x81E DUP10 DUP3 DUP11 ADD PUSH3 0x616 JUMP JUMPDEST SWAP6 POP POP PUSH1 0x40 PUSH3 0x831 DUP10 DUP3 DUP11 ADD PUSH3 0x697 JUMP JUMPDEST SWAP5 POP POP PUSH1 0x60 PUSH3 0x844 DUP10 DUP3 DUP11 ADD PUSH3 0x697 JUMP JUMPDEST SWAP4 POP POP PUSH1 0x80 DUP8 ADD MLOAD PUSH8 0xFFFFFFFFFFFFFFFF DUP2 GT ISZERO PUSH3 0x868 JUMPI PUSH3 0x867 PUSH3 0x494 JUMP JUMPDEST JUMPDEST PUSH3 0x876 DUP10 DUP3 DUP11 ADD PUSH3 0x76A JUMP JUMPDEST SWAP3 POP POP PUSH1 0xA0 DUP8 ADD MLOAD PUSH8 0xFFFFFFFFFFFFFFFF DUP2 GT ISZERO PUSH3 0x89A JUMPI PUSH3 0x899 PUSH3 0x494 JUMP JUMPDEST JUMPDEST PUSH3 0x8A8 DUP10 DUP3 DUP11 ADD PUSH3 0x76A JUMP JUMPDEST SWAP2 POP POP SWAP3 SWAP6 POP SWAP3 SWAP6 POP SWAP3 SWAP6 JUMP JUMPDEST PUSH32 0x4E487B7100000000000000000000000000000000000000000000000000000000 PUSH1 0x0 MSTORE PUSH1 0x32 PUSH1 0x4 MSTORE PUSH1 0x24 PUSH1 0x0 REVERT JUMPDEST PUSH32 0x4E487B7100000000000000000000000000000000000000000000000000000000 PUSH1 0x0 MSTORE PUSH1 0x11 PUSH1 0x4 MSTORE PUSH1 0x24 PUSH1 0x0 REVERT JUMPDEST PUSH1 0x0 PUSH3 0x920 DUP3 PUSH3 0x567 JUMP JUMPDEST SWAP2 POP PUSH3 0x92D DUP4 PUSH3 0x567 JUMP JUMPDEST SWAP3 POP DUP2 PUSH32 0xFFFFFFFFFFFFFFFFFFFFFFFFFFFFFFFFFFFFFFFFFFFFFFFFFFFFFFFFFFFFFFFF DIV DUP4 GT DUP3 ISZERO ISZERO AND ISZERO PUSH3 0x969 JUMPI PUSH3 0x968 PUSH3 0x8E4 JUMP JUMPDEST JUMPDEST DUP3 DUP3 MUL SWAP1 POP SWAP3 SWAP2 POP POP JUMP JUMPDEST PUSH32 0x4E487B7100000000000000000000000000000000000000000000000000000000 PUSH1 0x0 MSTORE PUSH1 0x12 PUSH1 0x4 MSTORE PUSH1 0x24 PUSH1 0x0 REVERT JUMPDEST PUSH1 0x0 PUSH3 0x9B0 DUP3 PUSH3 0x567 JUMP JUMPDEST SWAP2 POP PUSH3 0x9BD DUP4 PUSH3 0x567 JUMP JUMPDEST SWAP3 POP DUP3 PUSH3 0x9D0 JUMPI PUSH3 0x9CF PUSH3 0x974 JUMP JUMPDEST JUMPDEST DUP3 DUP3 DIV SWAP1 POP SWAP3 SWAP2 POP POP JUMP JUMPDEST PUSH32 0x4E487B7100000000000000000000000000000000000000000000000000000000 PUSH1 0x0 MSTORE PUSH1 0x22 PUSH1 0x4 MSTORE PUSH1 0x24 PUSH1 0x0 REVERT JUMPDEST PUSH1 0x0 PUSH1 0x2 DUP3 DIV SWAP1 POP PUSH1 0x1 DUP3 AND DUP1 PUSH3 0xA23 JUMPI PUSH1 0x7F DUP3 AND SWAP2 POP JUMPDEST PUSH1 0x20 DUP3 LT DUP2 EQ ISZERO PUSH3 0xA3A JUMPI PUSH3 0xA39 PUSH3 0x9DB JUMP JUMPDEST JUMPDEST POP SWAP2 SWAP1 POP JUMP JUMPDEST PUSH2 0x20BC DUP1 PUSH3 0xA50 PUSH1 0x0 CODECOPY PUSH1 0x0 RETURN INVALID PUSH1 0x80 PUSH1 0x40 MSTORE PUSH1 0x4 CALLDATASIZE LT PUSH2 0x114 JUMPI PUSH1 0x0 CALLDATALOAD PUSH1 0xE0 SHR DUP1 PUSH4 0x827F38CF GT PUSH2 0xA0 JUMPI DUP1 PUSH4 0xBB27FBE3 GT PUSH2 0x64 JUMPI DUP1 PUSH4 0xBB27FBE3 EQ PUSH2 0x349 JUMPI DUP1 PUSH4 0xBD205B0D EQ PUSH2 0x374 JUMPI DUP1 PUSH4 0xD96A094A EQ PUSH2 0x3A3 JUMPI DUP1 PUSH4 0xF2FDE38B EQ PUSH2 0x3BF JUMPI DUP1 PUSH4 0xFB86A404 EQ PUSH2 0x3E8 JUMPI PUSH2 0x114 JUMP JUMPDEST DUP1 PUSH4 0x827F38CF EQ PUSH2 0x286 JUMPI DUP1 PUSH4 0x8DA5CB5B EQ PUSH2 0x2B1 JUMPI DUP1 PUSH4 0x906A26E0 EQ PUSH2 0x2DC JUMPI DUP1 PUSH4 0x9A33E300 EQ PUSH2 0x307 JUMPI DUP1 PUSH4 0xB5545A3C EQ PUSH2 0x332 JUMPI PUSH2 0x114 JUMP JUMPDEST DUP1 PUSH4 0x6E7E3B2B GT PUSH2 0xE7 JUMPI DUP1 PUSH4 0x6E7E3B2B EQ PUSH2 0x1C3 JUMPI DUP1 PUSH4 0x715018A6 EQ PUSH2 0x1EE JUMPI DUP1 PUSH4 0x77955245 EQ PUSH2 0x205 JUMPI DUP1 PUSH4 0x78E97925 EQ PUSH2 0x230 JUMPI DUP1 PUSH4 0x7D882097 EQ PUSH2 0x25B JUMPI PUSH2 0x114 JUMP JUMPDEST DUP1 PUSH4 0x1226CD2B EQ PUSH2 0x119 JUMPI DUP1 PUSH4 0x3197CBB6 EQ PUSH2 0x130 JUMPI DUP1 PUSH4 0x4A4643F7 EQ PUSH2 0x15B JUMPI DUP1 PUSH4 0x5C975ABB EQ PUSH2 0x198 JUMPI JUMPDEST PUSH1 0x0 DUP1 REVERT JUMPDEST CALLVALUE DUP1 ISZERO PUSH2 0x125 JUMPI PUSH1 0x0 DUP1 REVERT JUMPDEST POP PUSH2 0x12E PUSH2 0x413 JUMP JUMPDEST STOP JUMPDEST CALLVALUE DUP1 ISZERO PUSH2 0x13C JUMPI PUSH1 0x0 DUP1 REVERT JUMPDEST POP PUSH2 0x145 PUSH2 0x7BA JUMP JUMPDEST PUSH1 0x40 MLOAD PUSH2 0x152 SWAP2 SWAP1 PUSH2 0x14C3 JUMP JUMPDEST PUSH1 0x40 MLOAD DUP1 SWAP2 SUB SWAP1 RETURN JUMPDEST CALLVALUE DUP1 ISZERO PUSH2 0x167 JUMPI PUSH1 0x0 DUP1 REVERT JUMPDEST POP PUSH2 0x182 PUSH1 0x4 DUP1 CALLDATASIZE SUB DUP2 ADD SWAP1 PUSH2 0x17D SWAP2 SWAP1 PUSH2 0x1541 JUMP JUMPDEST PUSH2 0x7C0 JUMP JUMPDEST PUSH1 0x40 MLOAD PUSH2 0x18F SWAP2 SWAP1 PUSH2 0x14C3 JUMP JUMPDEST PUSH1 0x40 MLOAD DUP1 SWAP2 SUB SWAP1 RETURN JUMPDEST CALLVALUE DUP1 ISZERO PUSH2 0x1A4 JUMPI PUSH1 0x0 DUP1 REVERT JUMPDEST POP PUSH2 0x1AD PUSH2 0x7D8 JUMP JUMPDEST PUSH1 0x40 MLOAD PUSH2 0x1BA SWAP2 SWAP1 PUSH2 0x1589 JUMP JUMPDEST PUSH1 0x40 MLOAD DUP1 SWAP2 SUB SWAP1 RETURN JUMPDEST CALLVALUE DUP1 ISZERO PUSH2 0x1CF JUMPI PUSH1 0x0 DUP1 REVERT JUMPDEST POP PUSH2 0x1D8 PUSH2 0x7EE JUMP JUMPDEST PUSH1 0x40 MLOAD PUSH2 0x1E5 SWAP2 SWAP1 PUSH2 0x14C3 JUMP JUMPDEST PUSH1 0x40 MLOAD DUP1 SWAP2 SUB SWAP1 RETURN JUMPDEST CALLVALUE DUP1 ISZERO PUSH2 0x1FA JUMPI PUSH1 0x0 DUP1 REVERT JUMPDEST POP PUSH2 0x203 PUSH2 0x7F4 JUMP JUMPDEST STOP JUMPDEST CALLVALUE DUP1 ISZERO PUSH2 0x211 JUMPI PUSH1 0x0 DUP1 REVERT JUMPDEST POP PUSH2 0x21A PUSH2 0x808 JUMP JUMPDEST PUSH1 0x40 MLOAD PUSH2 0x227 SWAP2 SWAP1 PUSH2 0x15B3 JUMP JUMPDEST PUSH1 0x40 MLOAD DUP1 SWAP2 SUB SWAP1 RETURN JUMPDEST CALLVALUE DUP1 ISZERO PUSH2 0x23C JUMPI PUSH1 0x0 DUP1 REVERT JUMPDEST POP PUSH2 0x245 PUSH2 0x82E JUMP JUMPDEST PUSH1 0x40 MLOAD PUSH2 0x252 SWAP2 SWAP1 PUSH2 0x14C3 JUMP JUMPDEST PUSH1 0x40 MLOAD DUP1 SWAP2 SUB SWAP1 RETURN JUMPDEST CALLVALUE DUP1 ISZERO PUSH2 0x267 JUMPI PUSH1 0x0 DUP1 REVERT JUMPDEST POP PUSH2 0x270 PUSH2 0x834 JUMP JUMPDEST PUSH1 0x40 MLOAD PUSH2 0x27D SWAP2 SWAP1 PUSH2 0x14C3 JUMP JUMPDEST PUSH1 0x40 MLOAD DUP1 SWAP2 SUB SWAP1 RETURN JUMPDEST CALLVALUE DUP1 ISZERO PUSH2 0x292 JUMPI PUSH1 0x0 DUP1 REVERT JUMPDEST POP PUSH2 0x29B PUSH2 0x83A JUMP JUMPDEST PUSH1 0x40 MLOAD PUSH2 0x2A8 SWAP2 SWAP1 PUSH2 0x15B3 JUMP JUMPDEST PUSH1 0x40 MLOAD DUP1 SWAP2 SUB SWAP1 RETURN JUMPDEST CALLVALUE DUP1 ISZERO PUSH2 0x2BD JUMPI PUSH1 0x0 DUP1 REVERT JUMPDEST POP PUSH2 0x2C6 PUSH2 0x860 JUMP JUMPDEST PUSH1 0x40 MLOAD PUSH2 0x2D3 SWAP2 SWAP1 PUSH2 0x15B3 JUMP JUMPDEST PUSH1 0x40 MLOAD DUP1 SWAP2 SUB SWAP1 RETURN JUMPDEST CALLVALUE DUP1 ISZERO PUSH2 0x2E8 JUMPI PUSH1 0x0 DUP1 REVERT JUMPDEST POP PUSH2 0x2F1 PUSH2 0x889 JUMP JUMPDEST PUSH1 0x40 MLOAD PUSH2 0x2FE SWAP2 SWAP1 PUSH2 0x14C3 JUMP JUMPDEST PUSH1 0x40 MLOAD DUP1 SWAP2 SUB SWAP1 RETURN JUMPDEST CALLVALUE DUP1 ISZERO PUSH2 0x313 JUMPI PUSH1 0x0 DUP1 REVERT JUMPDEST POP PUSH2 0x31C PUSH2 0x88F JUMP JUMPDEST PUSH1 0x40 MLOAD PUSH2 0x329 SWAP2 SWAP1 PUSH2 0x1667 JUMP JUMPDEST PUSH1 0x40 MLOAD DUP1 SWAP2 SUB SWAP1 RETURN JUMPDEST CALLVALUE DUP1 ISZERO PUSH2 0x33E JUMPI PUSH1 0x0 DUP1 REVERT JUMPDEST POP PUSH2 0x347 PUSH2 0x91D JUMP JUMPDEST STOP JUMPDEST CALLVALUE DUP1 ISZERO PUSH2 0x355 JUMPI PUSH1 0x0 DUP1 REVERT JUMPDEST POP PUSH2 0x35E PUSH2 0xB23 JUMP JUMPDEST PUSH1 0x40 MLOAD PUSH2 0x36B SWAP2 SWAP1 PUSH2 0x1667 JUMP JUMPDEST PUSH1 0x40 MLOAD DUP1 SWAP2 SUB SWAP1 RETURN JUMPDEST CALLVALUE DUP1 ISZERO PUSH2 0x380 JUMPI PUSH1 0x0 DUP1 REVERT JUMPDEST POP PUSH2 0x389 PUSH2 0xBB1 JUMP JUMPDEST PUSH1 0x40 MLOAD PUSH2 0x39A SWAP6 SWAP5 SWAP4 SWAP3 SWAP2 SWAP1 PUSH2 0x1747 JUMP JUMPDEST PUSH1 0x40 MLOAD DUP1 SWAP2 SUB SWAP1 RETURN JUMPDEST PUSH2 0x3BD PUSH1 0x4 DUP1 CALLDATASIZE SUB DUP2 ADD SWAP1 PUSH2 0x3B8 SWAP2 SWAP1 PUSH2 0x17DB JUMP JUMPDEST PUSH2 0xE42 JUMP JUMPDEST STOP JUMPDEST CALLVALUE DUP1 ISZERO PUSH2 0x3CB JUMPI PUSH1 0x0 DUP1 REVERT JUMPDEST POP PUSH2 0x3E6 PUSH1 0x4 DUP1 CALLDATASIZE SUB DUP2 ADD SWAP1 PUSH2 0x3E1 SWAP2 SWAP1 PUSH2 0x1541 JUMP JUMPDEST PUSH2 0x1231 JUMP JUMPDEST STOP JUMPDEST CALLVALUE DUP1 ISZERO PUSH2 0x3F4 JUMPI PUSH1 0x0 DUP1 REVERT JUMPDEST POP PUSH2 0x3FD PUSH2 0x12B5 JUMP JUMPDEST PUSH1 0x40 MLOAD PUSH2 0x40A SWAP2 SWAP1 PUSH2 0x14C3 JUMP JUMPDEST PUSH1 0x40 MLOAD DUP1 SWAP2 SUB SWAP1 RETURN JUMPDEST PUSH2 0x41B PUSH2 0x860 JUMP JUMPDEST PUSH20 0xFFFFFFFFFFFFFFFFFFFFFFFFFFFFFFFFFFFFFFFF AND CALLER PUSH20 0xFFFFFFFFFFFFFFFFFFFFFFFFFFFFFFFFFFFFFFFF AND EQ DUP1 PUSH2 0x4A1 JUMPI POP PUSH1 0x9 PUSH1 0x0 SWAP1 SLOAD SWAP1 PUSH2 0x100 EXP SWAP1 DIV PUSH20 0xFFFFFFFFFFFFFFFFFFFFFFFFFFFFFFFFFFFFFFFF AND PUSH20 0xFFFFFFFFFFFFFFFFFFFFFFFFFFFFFFFFFFFFFFFF AND CALLER PUSH20 0xFFFFFFFFFFFFFFFFFFFFFFFFFFFFFFFFFFFFFFFF AND EQ JUMPDEST PUSH2 0x4E0 JUMPI PUSH1 0x40 MLOAD PUSH32 0x8C379A000000000000000000000000000000000000000000000000000000000 DUP2 MSTORE PUSH1 0x4 ADD PUSH2 0x4D7 SWAP1 PUSH2 0x1854 JUMP JUMPDEST PUSH1 0x40 MLOAD DUP1 SWAP2 SUB SWAP1 REVERT JUMPDEST TIMESTAMP PUSH1 0x4 SLOAD LT DUP1 PUSH2 0x4F3 JUMPI POP PUSH1 0x2 SLOAD PUSH1 0x5 SLOAD EQ JUMPDEST PUSH2 0x532 JUMPI PUSH1 0x40 MLOAD PUSH32 0x8C379A000000000000000000000000000000000000000000000000000000000 DUP2 MSTORE PUSH1 0x4 ADD PUSH2 0x529 SWAP1 PUSH2 0x18C0 JUMP JUMPDEST PUSH1 0x40 MLOAD DUP1 SWAP2 SUB SWAP1 REVERT JUMPDEST PUSH1 0x1 SLOAD PUSH1 0x5 SLOAD GT PUSH2 0x578 JUMPI PUSH1 0x40 MLOAD PUSH32 0x8C379A000000000000000000000000000000000000000000000000000000000 DUP2 MSTORE PUSH1 0x4 ADD PUSH2 0x56F SWAP1 PUSH2 0x192C JUMP JUMPDEST PUSH1 0x40 MLOAD DUP1 SWAP2 SUB SWAP1 REVERT JUMPDEST PUSH1 0x0 DUP1 PUSH20 0xFFFFFFFFFFFFFFFFFFFFFFFFFFFFFFFFFFFFFFFF AND PUSH1 0xA PUSH1 0x0 SWAP1 SLOAD SWAP1 PUSH2 0x100 EXP SWAP1 DIV PUSH20 0xFFFFFFFFFFFFFFFFFFFFFFFFFFFFFFFFFFFFFFFF AND PUSH20 0xFFFFFFFFFFFFFFFFFFFFFFFFFFFFFFFFFFFFFFFF AND EQ PUSH2 0x61E JUMPI SELFBALANCE SWAP1 POP CALLER PUSH20 0xFFFFFFFFFFFFFFFFFFFFFFFFFFFFFFFFFFFFFFFF AND PUSH2 0x8FC DUP3 SWAP1 DUP2 ISZERO MUL SWAP1 PUSH1 0x40 MLOAD PUSH1 0x0 PUSH1 0x40 MLOAD DUP1 DUP4 SUB DUP2 DUP6 DUP9 DUP9 CALL SWAP4 POP POP POP POP ISZERO DUP1 ISZERO PUSH2 0x618 JUMPI RETURNDATASIZE PUSH1 0x0 DUP1 RETURNDATACOPY RETURNDATASIZE PUSH1 0x0 REVERT JUMPDEST POP PUSH2 0x6C7 JUMP JUMPDEST PUSH1 0xD PUSH1 0x0 SWAP1 SLOAD SWAP1 PUSH2 0x100 EXP SWAP1 DIV PUSH20 0xFFFFFFFFFFFFFFFFFFFFFFFFFFFFFFFFFFFFFFFF AND PUSH20 0xFFFFFFFFFFFFFFFFFFFFFFFFFFFFFFFFFFFFFFFF AND PUSH4 0x70A08231 ADDRESS PUSH1 0x40 MLOAD DUP3 PUSH4 0xFFFFFFFF AND PUSH1 0xE0 SHL DUP2 MSTORE PUSH1 0x4 ADD PUSH2 0x679 SWAP2 SWAP1 PUSH2 0x15B3 JUMP JUMPDEST PUSH1 0x20 PUSH1 0x40 MLOAD DUP1 DUP4 SUB DUP2 DUP7 GAS STATICCALL ISZERO DUP1 ISZERO PUSH2 0x696 JUMPI RETURNDATASIZE PUSH1 0x0 DUP1 RETURNDATACOPY RETURNDATASIZE PUSH1 0x0 REVERT JUMPDEST POP POP POP POP PUSH1 0x40 MLOAD RETURNDATASIZE PUSH1 0x1F NOT PUSH1 0x1F DUP3 ADD AND DUP3 ADD DUP1 PUSH1 0x40 MSTORE POP DUP2 ADD SWAP1 PUSH2 0x6BA SWAP2 SWAP1 PUSH2 0x1961 JUMP JUMPDEST SWAP1 POP PUSH2 0x6C6 CALLER DUP3 PUSH2 0x12BB JUMP JUMPDEST JUMPDEST PUSH1 0xC PUSH1 0x0 SWAP1 SLOAD SWAP1 PUSH2 0x100 EXP SWAP1 DIV PUSH20 0xFFFFFFFFFFFFFFFFFFFFFFFFFFFFFFFFFFFFFFFF AND PUSH20 0xFFFFFFFFFFFFFFFFFFFFFFFFFFFFFFFFFFFFFFFF AND PUSH4 0x67DB08DE DUP3 PUSH1 0x6 SLOAD PUSH1 0xA PUSH1 0x0 SWAP1 SLOAD SWAP1 PUSH2 0x100 EXP SWAP1 DIV PUSH20 0xFFFFFFFFFFFFFFFFFFFFFFFFFFFFFFFFFFFFFFFF AND PUSH1 0x40 MLOAD DUP5 PUSH4 0xFFFFFFFF AND PUSH1 0xE0 SHL DUP2 MSTORE PUSH1 0x4 ADD PUSH2 0x74A SWAP4 SWAP3 SWAP2 SWAP1 PUSH2 0x198E JUMP JUMPDEST PUSH1 0x0 PUSH1 0x40 MLOAD DUP1 DUP4 SUB DUP2 PUSH1 0x0 DUP8 DUP1 EXTCODESIZE ISZERO DUP1 ISZERO PUSH2 0x764 JUMPI PUSH1 0x0 DUP1 REVERT JUMPDEST POP GAS CALL ISZERO DUP1 ISZERO PUSH2 0x778 JUMPI RETURNDATASIZE PUSH1 0x0 DUP1 RETURNDATACOPY RETURNDATASIZE PUSH1 0x0 REVERT JUMPDEST POP POP POP POP PUSH32 0xEF2D5E9F8A6B4E5FC1903BD0F4767857F64B39D98FDB6333BBCB9799D0152FA6 CALLER DUP3 TIMESTAMP PUSH1 0x40 MLOAD PUSH2 0x7AF SWAP4 SWAP3 SWAP2 SWAP1 PUSH2 0x19C5 JUMP JUMPDEST PUSH1 0x40 MLOAD DUP1 SWAP2 SUB SWAP1 LOG1 POP JUMP JUMPDEST PUSH1 0x4 SLOAD DUP2 JUMP JUMPDEST PUSH1 0xB PUSH1 0x20 MSTORE DUP1 PUSH1 0x0 MSTORE PUSH1 0x40 PUSH1 0x0 KECCAK256 PUSH1 0x0 SWAP2 POP SWAP1 POP SLOAD DUP2 JUMP JUMPDEST PUSH1 0x0 DUP1 PUSH1 0x14 SWAP1 SLOAD SWAP1 PUSH2 0x100 EXP SWAP1 DIV PUSH1 0xFF AND SWAP1 POP SWAP1 JUMP JUMPDEST PUSH1 0x6 SLOAD DUP2 JUMP JUMPDEST PUSH2 0x7FC PUSH2 0x1360 JUMP JUMPDEST PUSH2 0x806 PUSH1 0x0 PUSH2 0x13DE JUMP JUMPDEST JUMP JUMPDEST PUSH1 0x9 PUSH1 0x0 SWAP1 SLOAD SWAP1 PUSH2 0x100 EXP SWAP1 DIV PUSH20 0xFFFFFFFFFFFFFFFFFFFFFFFFFFFFFFFFFFFFFFFF AND DUP2 JUMP JUMPDEST PUSH1 0x3 SLOAD DUP2 JUMP JUMPDEST PUSH1 0x5 SLOAD DUP2 JUMP JUMPDEST PUSH1 0xA PUSH1 0x0 SWAP1 SLOAD SWAP1 PUSH2 0x100 EXP SWAP1 DIV PUSH20 0xFFFFFFFFFFFFFFFFFFFFFFFFFFFFFFFFFFFFFFFF AND DUP2 JUMP JUMPDEST PUSH1 0x0 DUP1 PUSH1 0x0 SWAP1 SLOAD SWAP1 PUSH2 0x100 EXP SWAP1 DIV PUSH20 0xFFFFFFFFFFFFFFFFFFFFFFFFFFFFFFFFFFFFFFFF AND SWAP1 POP SWAP1 JUMP JUMPDEST PUSH1 0x1 SLOAD DUP2 JUMP JUMPDEST PUSH1 0x7 DUP1 SLOAD PUSH2 0x89C SWAP1 PUSH2 0x1A2B JUMP JUMPDEST DUP1 PUSH1 0x1F ADD PUSH1 0x20 DUP1 SWAP2 DIV MUL PUSH1 0x20 ADD PUSH1 0x40 MLOAD SWAP1 DUP2 ADD PUSH1 0x40 MSTORE DUP1 SWAP3 SWAP2 SWAP1 DUP2 DUP2 MSTORE PUSH1 0x20 ADD DUP3 DUP1 SLOAD PUSH2 0x8C8 SWAP1 PUSH2 0x1A2B JUMP JUMPDEST DUP1 ISZERO PUSH2 0x915 JUMPI DUP1 PUSH1 0x1F LT PUSH2 0x8EA JUMPI PUSH2 0x100 DUP1 DUP4 SLOAD DIV MUL DUP4 MSTORE SWAP2 PUSH1 0x20 ADD SWAP2 PUSH2 0x915 JUMP JUMPDEST DUP3 ADD SWAP2 SWAP1 PUSH1 0x0 MSTORE PUSH1 0x20 PUSH1 0x0 KECCAK256 SWAP1 JUMPDEST DUP2 SLOAD DUP2 MSTORE SWAP1 PUSH1 0x1 ADD SWAP1 PUSH1 0x20 ADD DUP1 DUP4 GT PUSH2 0x8F8 JUMPI DUP3 SWAP1 SUB PUSH1 0x1F AND DUP3 ADD SWAP2 JUMPDEST POP POP POP POP POP DUP2 JUMP JUMPDEST TIMESTAMP PUSH1 0x4 SLOAD LT PUSH2 0x961 JUMPI PUSH1 0x40 MLOAD PUSH32 0x8C379A000000000000000000000000000000000000000000000000000000000 DUP2 MSTORE PUSH1 0x4 ADD PUSH2 0x958 SWAP1 PUSH2 0x1AA9 JUMP JUMPDEST PUSH1 0x40 MLOAD DUP1 SWAP2 SUB SWAP1 REVERT JUMPDEST PUSH1 0x1 SLOAD PUSH1 0x5 SLOAD LT PUSH2 0x9A7 JUMPI PUSH1 0x40 MLOAD PUSH32 0x8C379A000000000000000000000000000000000000000000000000000000000 DUP2 MSTORE PUSH1 0x4 ADD PUSH2 0x99E SWAP1 PUSH2 0x1B15 JUMP JUMPDEST PUSH1 0x40 MLOAD DUP1 SWAP2 SUB SWAP1 REVERT JUMPDEST PUSH1 0x0 PUSH1 0xB PUSH1 0x0 CALLER PUSH20 0xFFFFFFFFFFFFFFFFFFFFFFFFFFFFFFFFFFFFFFFF AND PUSH20 0xFFFFFFFFFFFFFFFFFFFFFFFFFFFFFFFFFFFFFFFF AND DUP2 MSTORE PUSH1 0x20 ADD SWAP1 DUP2 MSTORE PUSH1 0x20 ADD PUSH1 0x0 KECCAK256 SLOAD SWAP1 POP PUSH1 0x0 DUP2 GT PUSH2 0xA2E JUMPI PUSH1 0x40 MLOAD PUSH32 0x8C379A000000000000000000000000000000000000000000000000000000000 DUP2 MSTORE PUSH1 0x4 ADD PUSH2 0xA25 SWAP1 PUSH2 0x1B81 JUMP JUMPDEST PUSH1 0x40 MLOAD DUP1 SWAP2 SUB SWAP1 REVERT JUMPDEST PUSH1 0x0 PUSH1 0xB PUSH1 0x0 CALLER PUSH20 0xFFFFFFFFFFFFFFFFFFFFFFFFFFFFFFFFFFFFFFFF AND PUSH20 0xFFFFFFFFFFFFFFFFFFFFFFFFFFFFFFFFFFFFFFFF AND DUP2 MSTORE PUSH1 0x20 ADD SWAP1 DUP2 MSTORE PUSH1 0x20 ADD PUSH1 0x0 KECCAK256 DUP2 SWAP1 SSTORE POP PUSH1 0x0 PUSH20 0xFFFFFFFFFFFFFFFFFFFFFFFFFFFFFFFFFFFFFFFF AND PUSH1 0xA PUSH1 0x0 SWAP1 SLOAD SWAP1 PUSH2 0x100 EXP SWAP1 DIV PUSH20 0xFFFFFFFFFFFFFFFFFFFFFFFFFFFFFFFFFFFFFFFF AND PUSH20 0xFFFFFFFFFFFFFFFFFFFFFFFFFFFFFFFFFFFFFFFF AND EQ PUSH2 0xB15 JUMPI CALLER PUSH20 0xFFFFFFFFFFFFFFFFFFFFFFFFFFFFFFFFFFFFFFFF AND PUSH2 0x8FC DUP3 SWAP1 DUP2 ISZERO MUL SWAP1 PUSH1 0x40 MLOAD PUSH1 0x0 PUSH1 0x40 MLOAD DUP1 DUP4 SUB DUP2 DUP6 DUP9 DUP9 CALL SWAP4 POP POP POP POP ISZERO DUP1 ISZERO PUSH2 0xB0F JUMPI RETURNDATASIZE PUSH1 0x0 DUP1 RETURNDATACOPY RETURNDATASIZE PUSH1 0x0 REVERT JUMPDEST POP PUSH2 0xB20 JUMP JUMPDEST PUSH2 0xB1F CALLER DUP3 PUSH2 0x12BB JUMP JUMPDEST JUMPDEST POP JUMP JUMPDEST PUSH1 0x8 DUP1 SLOAD PUSH2 0xB30 SWAP1 PUSH2 0x1A2B JUMP JUMPDEST DUP1 PUSH1 0x1F ADD PUSH1 0x20 DUP1 SWAP2 DIV MUL PUSH1 0x20 ADD PUSH1 0x40 MLOAD SWAP1 DUP2 ADD PUSH1 0x40 MSTORE DUP1 SWAP3 SWAP2 SWAP1 DUP2 DUP2 MSTORE PUSH1 0x20 ADD DUP3 DUP1 SLOAD PUSH2 0xB5C SWAP1 PUSH2 0x1A2B JUMP JUMPDEST DUP1 ISZERO PUSH2 0xBA9 JUMPI DUP1 PUSH1 0x1F LT PUSH2 0xB7E JUMPI PUSH2 0x100 DUP1 DUP4 SLOAD DIV MUL DUP4 MSTORE SWAP2 PUSH1 0x20 ADD SWAP2 PUSH2 0xBA9 JUMP JUMPDEST DUP3 ADD SWAP2 SWAP1 PUSH1 0x0 MSTORE PUSH1 0x20 PUSH1 0x0 KECCAK256 SWAP1 JUMPDEST DUP2 SLOAD DUP2 MSTORE SWAP1 PUSH1 0x1 ADD SWAP1 PUSH1 0x20 ADD DUP1 DUP4 GT PUSH2 0xB8C JUMPI DUP3 SWAP1 SUB PUSH1 0x1F AND DUP3 ADD SWAP2 JUMPDEST POP POP POP POP POP DUP2 JUMP JUMPDEST PUSH1 0x60 DUP1 PUSH1 0x60 PUSH1 0x0 DUP1 PUSH1 0x6 PUSH8 0xFFFFFFFFFFFFFFFF DUP2 GT ISZERO PUSH2 0xBD4 JUMPI PUSH2 0xBD3 PUSH2 0x1BA1 JUMP JUMPDEST JUMPDEST PUSH1 0x40 MLOAD SWAP1 DUP1 DUP3 MSTORE DUP1 PUSH1 0x20 MUL PUSH1 0x20 ADD DUP3 ADD PUSH1 0x40 MSTORE DUP1 ISZERO PUSH2 0xC02 JUMPI DUP2 PUSH1 0x20 ADD PUSH1 0x20 DUP3 MUL DUP1 CALLDATASIZE DUP4 CALLDATACOPY DUP1 DUP3 ADD SWAP2 POP POP SWAP1 POP JUMPDEST POP SWAP5 POP PUSH1 0x1 SLOAD DUP6 PUSH1 0x0 DUP2 MLOAD DUP2 LT PUSH2 0xC1C JUMPI PUSH2 0xC1B PUSH2 0x1BD0 JUMP JUMPDEST JUMPDEST PUSH1 0x20 MUL PUSH1 0x20 ADD ADD DUP2 DUP2 MSTORE POP POP PUSH1 0x2 SLOAD DUP6 PUSH1 0x1 DUP2 MLOAD DUP2 LT PUSH2 0xC3F JUMPI PUSH2 0xC3E PUSH2 0x1BD0 JUMP JUMPDEST JUMPDEST PUSH1 0x20 MUL PUSH1 0x20 ADD ADD DUP2 DUP2 MSTORE POP POP PUSH1 0x3 SLOAD DUP6 PUSH1 0x2 DUP2 MLOAD DUP2 LT PUSH2 0xC62 JUMPI PUSH2 0xC61 PUSH2 0x1BD0 JUMP JUMPDEST JUMPDEST PUSH1 0x20 MUL PUSH1 0x20 ADD ADD DUP2 DUP2 MSTORE POP POP PUSH1 0x4 SLOAD DUP6 PUSH1 0x3 DUP2 MLOAD DUP2 LT PUSH2 0xC85 JUMPI PUSH2 0xC84 PUSH2 0x1BD0 JUMP JUMPDEST JUMPDEST PUSH1 0x20 MUL PUSH1 0x20 ADD ADD DUP2 DUP2 MSTORE POP POP PUSH1 0x5 SLOAD DUP6 PUSH1 0x4 DUP2 MLOAD DUP2 LT PUSH2 0xCA8 JUMPI PUSH2 0xCA7 PUSH2 0x1BD0 JUMP JUMPDEST JUMPDEST PUSH1 0x20 MUL PUSH1 0x20 ADD ADD DUP2 DUP2 MSTORE POP POP PUSH1 0x6 SLOAD DUP6 PUSH1 0x5 DUP2 MLOAD DUP2 LT PUSH2 0xCCB JUMPI PUSH2 0xCCA PUSH2 0x1BD0 JUMP JUMPDEST JUMPDEST PUSH1 0x20 MUL PUSH1 0x20 ADD ADD DUP2 DUP2 MSTORE POP POP PUSH1 0x7 DUP1 SLOAD PUSH2 0xCE4 SWAP1 PUSH2 0x1A2B JUMP JUMPDEST DUP1 PUSH1 0x1F ADD PUSH1 0x20 DUP1 SWAP2 DIV MUL PUSH1 0x20 ADD PUSH1 0x40 MLOAD SWAP1 DUP2 ADD PUSH1 0x40 MSTORE DUP1 SWAP3 SWAP2 SWAP1 DUP2 DUP2 MSTORE PUSH1 0x20 ADD DUP3 DUP1 SLOAD PUSH2 0xD10 SWAP1 PUSH2 0x1A2B JUMP JUMPDEST DUP1 ISZERO PUSH2 0xD5D JUMPI DUP1 PUSH1 0x1F LT PUSH2 0xD32 JUMPI PUSH2 0x100 DUP1 DUP4 SLOAD DIV MUL DUP4 MSTORE SWAP2 PUSH1 0x20 ADD SWAP2 PUSH2 0xD5D JUMP JUMPDEST DUP3 ADD SWAP2 SWAP1 PUSH1 0x0 MSTORE PUSH1 0x20 PUSH1 0x0 KECCAK256 SWAP1 JUMPDEST DUP2 SLOAD DUP2 MSTORE SWAP1 PUSH1 0x1 ADD SWAP1 PUSH1 0x20 ADD DUP1 DUP4 GT PUSH2 0xD40 JUMPI DUP3 SWAP1 SUB PUSH1 0x1F AND DUP3 ADD SWAP2 JUMPDEST POP POP POP POP POP SWAP4 POP PUSH1 0x8 DUP1 SLOAD PUSH2 0xD71 SWAP1 PUSH2 0x1A2B JUMP JUMPDEST DUP1 PUSH1 0x1F ADD PUSH1 0x20 DUP1 SWAP2 DIV MUL PUSH1 0x20 ADD PUSH1 0x40 MLOAD SWAP1 DUP2 ADD PUSH1 0x40 MSTORE DUP1 SWAP3 SWAP2 SWAP1 DUP2 DUP2 MSTORE PUSH1 0x20 ADD DUP3 DUP1 SLOAD PUSH2 0xD9D SWAP1 PUSH2 0x1A2B JUMP JUMPDEST DUP1 ISZERO PUSH2 0xDEA JUMPI DUP1 PUSH1 0x1F LT PUSH2 0xDBF JUMPI PUSH2 0x100 DUP1 DUP4 SLOAD DIV MUL DUP4 MSTORE SWAP2 PUSH1 0x20 ADD SWAP2 PUSH2 0xDEA JUMP JUMPDEST DUP3 ADD SWAP2 SWAP1 PUSH1 0x0 MSTORE PUSH1 0x20 PUSH1 0x0 KECCAK256 SWAP1 JUMPDEST DUP2 SLOAD DUP2 MSTORE SWAP1 PUSH1 0x1 ADD SWAP1 PUSH1 0x20 ADD DUP1 DUP4 GT PUSH2 0xDCD JUMPI DUP3 SWAP1 SUB PUSH1 0x1F AND DUP3 ADD SWAP2 JUMPDEST POP POP POP POP POP SWAP3 POP PUSH1 0x9 PUSH1 0x0 SWAP1 SLOAD SWAP1 PUSH2 0x100 EXP SWAP1 DIV PUSH20 0xFFFFFFFFFFFFFFFFFFFFFFFFFFFFFFFFFFFFFFFF AND SWAP2 POP PUSH1 0xA PUSH1 0x0 SWAP1 SLOAD SWAP1 PUSH2 0x100 EXP SWAP1 DIV PUSH20 0xFFFFFFFFFFFFFFFFFFFFFFFFFFFFFFFFFFFFFFFF AND SWAP1 POP SWAP1 SWAP2 SWAP3 SWAP4 SWAP5 JUMP JUMPDEST TIMESTAMP PUSH1 0x3 SLOAD LT PUSH2 0xE86 JUMPI PUSH1 0x40 MLOAD PUSH32 0x8C379A000000000000000000000000000000000000000000000000000000000 DUP2 MSTORE PUSH1 0x4 ADD PUSH2 0xE7D SWAP1 PUSH2 0x1C4B JUMP JUMPDEST PUSH1 0x40 MLOAD DUP1 SWAP2 SUB SWAP1 REVERT JUMPDEST TIMESTAMP PUSH1 0x4 SLOAD GT PUSH2 0xECA JUMPI PUSH1 0x40 MLOAD PUSH32 0x8C379A000000000000000000000000000000000000000000000000000000000 DUP2 MSTORE PUSH1 0x4 ADD PUSH2 0xEC1 SWAP1 PUSH2 0x1CB7 JUMP JUMPDEST PUSH1 0x40 MLOAD DUP1 SWAP2 SUB SWAP1 REVERT JUMPDEST PUSH1 0x2 SLOAD PUSH1 0x5 SLOAD DUP3 PUSH2 0xEDB SWAP2 SWAP1 PUSH2 0x1D06 JUMP JUMPDEST GT ISZERO PUSH2 0xF1C JUMPI PUSH1 0x40 MLOAD PUSH32 0x8C379A000000000000000000000000000000000000000000000000000000000 DUP2 MSTORE PUSH1 0x4 ADD PUSH2 0xF13 SWAP1 PUSH2 0x1DA8 JUMP JUMPDEST PUSH1 0x40 MLOAD DUP1 SWAP2 SUB SWAP1 REVERT JUMPDEST PUSH1 0x0 PUSH20 0xFFFFFFFFFFFFFFFFFFFFFFFFFFFFFFFFFFFFFFFF AND PUSH1 0xA PUSH1 0x0 SWAP1 SLOAD SWAP1 PUSH2 0x100 EXP SWAP1 DIV PUSH20 0xFFFFFFFFFFFFFFFFFFFFFFFFFFFFFFFFFFFFFFFF AND PUSH20 0xFFFFFFFFFFFFFFFFFFFFFFFFFFFFFFFFFFFFFFFF AND EQ PUSH2 0x101A JUMPI PUSH1 0xD PUSH1 0x0 SWAP1 SLOAD SWAP1 PUSH2 0x100 EXP SWAP1 DIV PUSH20 0xFFFFFFFFFFFFFFFFFFFFFFFFFFFFFFFFFFFFFFFF AND PUSH20 0xFFFFFFFFFFFFFFFFFFFFFFFFFFFFFFFFFFFFFFFF AND PUSH4 0x23B872DD CALLER ADDRESS DUP5 PUSH1 0x40 MLOAD DUP5 PUSH4 0xFFFFFFFF AND PUSH1 0xE0 SHL DUP2 MSTORE PUSH1 0x4 ADD PUSH2 0xFD1 SWAP4 SWAP3 SWAP2 SWAP1 PUSH2 0x1DC8 JUMP JUMPDEST PUSH1 0x20 PUSH1 0x40 MLOAD DUP1 DUP4 SUB DUP2 PUSH1 0x0 DUP8 GAS CALL ISZERO DUP1 ISZERO PUSH2 0xFF0 JUMPI RETURNDATASIZE PUSH1 0x0 DUP1 RETURNDATACOPY RETURNDATASIZE PUSH1 0x0 REVERT JUMPDEST POP POP POP POP PUSH1 0x40 MLOAD RETURNDATASIZE PUSH1 0x1F NOT PUSH1 0x1F DUP3 ADD AND DUP3 ADD DUP1 PUSH1 0x40 MSTORE POP DUP2 ADD SWAP1 PUSH2 0x1014 SWAP2 SWAP1 PUSH2 0x1E2B JUMP JUMPDEST POP PUSH2 0x105E JUMP JUMPDEST CALLVALUE DUP2 LT ISZERO PUSH2 0x105D JUMPI PUSH1 0x40 MLOAD PUSH32 0x8C379A000000000000000000000000000000000000000000000000000000000 DUP2 MSTORE PUSH1 0x4 ADD PUSH2 0x1054 SWAP1 PUSH2 0x1EA4 JUMP JUMPDEST PUSH1 0x40 MLOAD DUP1 SWAP2 SUB SWAP1 REVERT JUMPDEST JUMPDEST PUSH1 0x0 PUSH1 0xB PUSH1 0x0 CALLER PUSH20 0xFFFFFFFFFFFFFFFFFFFFFFFFFFFFFFFFFFFFFFFF AND PUSH20 0xFFFFFFFFFFFFFFFFFFFFFFFFFFFFFFFFFFFFFFFF AND DUP2 MSTORE PUSH1 0x20 ADD SWAP1 DUP2 MSTORE PUSH1 0x20 ADD PUSH1 0x0 KECCAK256 SLOAD EQ ISZERO PUSH2 0x114E JUMPI PUSH1 0x6 PUSH1 0x0 DUP2 SLOAD DUP1 SWAP3 SWAP2 SWAP1 PUSH2 0x10B9 SWAP1 PUSH2 0x1EC4 JUMP JUMPDEST SWAP2 SWAP1 POP SSTORE POP PUSH1 0xC PUSH1 0x0 SWAP1 SLOAD SWAP1 PUSH2 0x100 EXP SWAP1 DIV PUSH20 0xFFFFFFFFFFFFFFFFFFFFFFFFFFFFFFFFFFFFFFFF AND PUSH20 0xFFFFFFFFFFFFFFFFFFFFFFFFFFFFFFFFFFFFFFFF AND PUSH4 0xBF21695F CALLER ADDRESS PUSH1 0x40 MLOAD DUP4 PUSH4 0xFFFFFFFF AND PUSH1 0xE0 SHL DUP2 MSTORE PUSH1 0x4 ADD PUSH2 0x111B SWAP3 SWAP2 SWAP1 PUSH2 0x1F0D JUMP JUMPDEST PUSH1 0x0 PUSH1 0x40 MLOAD DUP1 DUP4 SUB DUP2 PUSH1 0x0 DUP8 DUP1 EXTCODESIZE ISZERO DUP1 ISZERO PUSH2 0x1135 JUMPI PUSH1 0x0 DUP1 REVERT JUMPDEST POP GAS CALL ISZERO DUP1 ISZERO PUSH2 0x1149 JUMPI RETURNDATASIZE PUSH1 0x0 DUP1 RETURNDATACOPY RETURNDATASIZE PUSH1 0x0 REVERT JUMPDEST POP POP POP POP JUMPDEST DUP1 PUSH1 0xB PUSH1 0x0 CALLER PUSH20 0xFFFFFFFFFFFFFFFFFFFFFFFFFFFFFFFFFFFFFFFF AND PUSH20 0xFFFFFFFFFFFFFFFFFFFFFFFFFFFFFFFFFFFFFFFF AND DUP2 MSTORE PUSH1 0x20 ADD SWAP1 DUP2 MSTORE PUSH1 0x20 ADD PUSH1 0x0 KECCAK256 SLOAD PUSH2 0x1199 SWAP2 SWAP1 PUSH2 0x1D06 JUMP JUMPDEST PUSH1 0xB PUSH1 0x0 CALLER PUSH20 0xFFFFFFFFFFFFFFFFFFFFFFFFFFFFFFFFFFFFFFFF AND PUSH20 0xFFFFFFFFFFFFFFFFFFFFFFFFFFFFFFFFFFFFFFFF AND DUP2 MSTORE PUSH1 0x20 ADD SWAP1 DUP2 MSTORE PUSH1 0x20 ADD PUSH1 0x0 KECCAK256 DUP2 SWAP1 SSTORE POP DUP1 PUSH1 0x5 PUSH1 0x0 DUP3 DUP3 SLOAD PUSH2 0x11EE SWAP2 SWAP1 PUSH2 0x1D06 JUMP JUMPDEST SWAP3 POP POP DUP2 SWAP1 SSTORE POP PUSH32 0x4DA1776B54EBFE9617CAF57A31E9A4B2F316BFD0EE0614D6C61597AE94BA251 DUP2 CALLER PUSH1 0x40 MLOAD PUSH2 0x1226 SWAP3 SWAP2 SWAP1 PUSH2 0x1F36 JUMP JUMPDEST PUSH1 0x40 MLOAD DUP1 SWAP2 SUB SWAP1 LOG1 POP JUMP JUMPDEST PUSH2 0x1239 PUSH2 0x1360 JUMP JUMPDEST PUSH1 0x0 PUSH20 0xFFFFFFFFFFFFFFFFFFFFFFFFFFFFFFFFFFFFFFFF AND DUP2 PUSH20 0xFFFFFFFFFFFFFFFFFFFFFFFFFFFFFFFFFFFFFFFF AND EQ ISZERO PUSH2 0x12A9 JUMPI PUSH1 0x40 MLOAD PUSH32 0x8C379A000000000000000000000000000000000000000000000000000000000 DUP2 MSTORE PUSH1 0x4 ADD PUSH2 0x12A0 SWAP1 PUSH2 0x1FD1 JUMP JUMPDEST PUSH1 0x40 MLOAD DUP1 SWAP2 SUB SWAP1 REVERT JUMPDEST PUSH2 0x12B2 DUP2 PUSH2 0x13DE JUMP JUMPDEST POP JUMP JUMPDEST PUSH1 0x2 SLOAD DUP2 JUMP JUMPDEST PUSH1 0xD PUSH1 0x0 SWAP1 SLOAD SWAP1 PUSH2 0x100 EXP SWAP1 DIV PUSH20 0xFFFFFFFFFFFFFFFFFFFFFFFFFFFFFFFFFFFFFFFF AND PUSH20 0xFFFFFFFFFFFFFFFFFFFFFFFFFFFFFFFFFFFFFFFF AND PUSH4 0xA9059CBB DUP4 DUP4 PUSH1 0x40 MLOAD DUP4 PUSH4 0xFFFFFFFF AND PUSH1 0xE0 SHL DUP2 MSTORE PUSH1 0x4 ADD PUSH2 0x1318 SWAP3 SWAP2 SWAP1 PUSH2 0x1FF1 JUMP JUMPDEST PUSH1 0x20 PUSH1 0x40 MLOAD DUP1 DUP4 SUB DUP2 PUSH1 0x0 DUP8 GAS CALL ISZERO DUP1 ISZERO PUSH2 0x1337 JUMPI RETURNDATASIZE PUSH1 0x0 DUP1 RETURNDATACOPY RETURNDATASIZE PUSH1 0x0 REVERT JUMPDEST POP POP POP POP PUSH1 0x40 MLOAD RETURNDATASIZE PUSH1 0x1F NOT PUSH1 0x1F DUP3 ADD AND DUP3 ADD DUP1 PUSH1 0x40 MSTORE POP DUP2 ADD SWAP1 PUSH2 0x135B SWAP2 SWAP1 PUSH2 0x1E2B JUMP JUMPDEST POP POP POP JUMP JUMPDEST PUSH2 0x1368 PUSH2 0x14A2 JUMP JUMPDEST PUSH20 0xFFFFFFFFFFFFFFFFFFFFFFFFFFFFFFFFFFFFFFFF AND PUSH2 0x1386 PUSH2 0x860 JUMP JUMPDEST PUSH20 0xFFFFFFFFFFFFFFFFFFFFFFFFFFFFFFFFFFFFFFFF AND EQ PUSH2 0x13DC JUMPI PUSH1 0x40 MLOAD PUSH32 0x8C379A000000000000000000000000000000000000000000000000000000000 DUP2 MSTORE PUSH1 0x4 ADD PUSH2 0x13D3 SWAP1 PUSH2 0x2066 JUMP JUMPDEST PUSH1 0x40 MLOAD DUP1 SWAP2 SUB SWAP1 REVERT JUMPDEST JUMP JUMPDEST PUSH1 0x0 DUP1 PUSH1 0x0 SWAP1 SLOAD SWAP1 PUSH2 0x100 EXP SWAP1 DIV PUSH20 0xFFFFFFFFFFFFFFFFFFFFFFFFFFFFFFFFFFFFFFFF AND SWAP1 POP DUP2 PUSH1 0x0 DUP1 PUSH2 0x100 EXP DUP2 SLOAD DUP2 PUSH20 0xFFFFFFFFFFFFFFFFFFFFFFFFFFFFFFFFFFFFFFFF MUL NOT AND SWAP1 DUP4 PUSH20 0xFFFFFFFFFFFFFFFFFFFFFFFFFFFFFFFFFFFFFFFF AND MUL OR SWAP1 SSTORE POP DUP2 PUSH20 0xFFFFFFFFFFFFFFFFFFFFFFFFFFFFFFFFFFFFFFFF AND DUP2 PUSH20 0xFFFFFFFFFFFFFFFFFFFFFFFFFFFFFFFFFFFFFFFF AND PUSH32 0x8BE0079C531659141344CD1FD0A4F28419497F9722A3DAAFE3B4186F6B6457E0 PUSH1 0x40 MLOAD PUSH1 0x40 MLOAD DUP1 SWAP2 SUB SWAP1 LOG3 POP POP JUMP JUMPDEST PUSH1 0x0 CALLER SWAP1 POP SWAP1 JUMP JUMPDEST PUSH1 0x0 DUP2 SWAP1 POP SWAP2 SWAP1 POP JUMP JUMPDEST PUSH2 0x14BD DUP2 PUSH2 0x14AA JUMP JUMPDEST DUP3 MSTORE POP POP JUMP JUMPDEST PUSH1 0x0 PUSH1 0x20 DUP3 ADD SWAP1 POP PUSH2 0x14D8 PUSH1 0x0 DUP4 ADD DUP5 PUSH2 0x14B4 JUMP JUMPDEST SWAP3 SWAP2 POP POP JUMP JUMPDEST PUSH1 0x0 DUP1 REVERT JUMPDEST PUSH1 0x0 PUSH20 0xFFFFFFFFFFFFFFFFFFFFFFFFFFFFFFFFFFFFFFFF DUP3 AND SWAP1 POP SWAP2 SWAP1 POP JUMP JUMPDEST PUSH1 0x0 PUSH2 0x150E DUP3 PUSH2 0x14E3 JUMP JUMPDEST SWAP1 POP SWAP2 SWAP1 POP JUMP JUMPDEST PUSH2 0x151E DUP2 PUSH2 0x1503 JUMP JUMPDEST DUP2 EQ PUSH2 0x1529 JUMPI PUSH1 0x0 DUP1 REVERT JUMPDEST POP JUMP JUMPDEST PUSH1 0x0 DUP2 CALLDATALOAD SWAP1 POP PUSH2 0x153B DUP2 PUSH2 0x1515 JUMP JUMPDEST SWAP3 SWAP2 POP POP JUMP JUMPDEST PUSH1 0x0 PUSH1 0x20 DUP3 DUP5 SUB SLT ISZERO PUSH2 0x1557 JUMPI PUSH2 0x1556 PUSH2 0x14DE JUMP JUMPDEST JUMPDEST PUSH1 0x0 PUSH2 0x1565 DUP5 DUP3 DUP6 ADD PUSH2 0x152C JUMP JUMPDEST SWAP2 POP POP SWAP3 SWAP2 POP POP JUMP JUMPDEST PUSH1 0x0 DUP2 ISZERO ISZERO SWAP1 POP SWAP2 SWAP1 POP JUMP JUMPDEST PUSH2 0x1583 DUP2 PUSH2 0x156E JUMP JUMPDEST DUP3 MSTORE POP POP JUMP JUMPDEST PUSH1 0x0 PUSH1 0x20 DUP3 ADD SWAP1 POP PUSH2 0x159E PUSH1 0x0 DUP4 ADD DUP5 PUSH2 0x157A JUMP JUMPDEST SWAP3 SWAP2 POP POP JUMP JUMPDEST PUSH2 0x15AD DUP2 PUSH2 0x1503 JUMP JUMPDEST DUP3 MSTORE POP POP JUMP JUMPDEST PUSH1 0x0 PUSH1 0x20 DUP3 ADD SWAP1 POP PUSH2 0x15C8 PUSH1 0x0 DUP4 ADD DUP5 PUSH2 0x15A4 JUMP JUMPDEST SWAP3 SWAP2 POP POP JUMP JUMPDEST PUSH1 0x0 DUP2 MLOAD SWAP1 POP SWAP2 SWAP1 POP JUMP JUMPDEST PUSH1 0x0 DUP3 DUP3 MSTORE PUSH1 0x20 DUP3 ADD SWAP1 POP SWAP3 SWAP2 POP POP JUMP JUMPDEST PUSH1 0x0 JUMPDEST DUP4 DUP2 LT ISZERO PUSH2 0x1608 JUMPI DUP1 DUP3 ADD MLOAD DUP2 DUP5 ADD MSTORE PUSH1 0x20 DUP2 ADD SWAP1 POP PUSH2 0x15ED JUMP JUMPDEST DUP4 DUP2 GT ISZERO PUSH2 0x1617 JUMPI PUSH1 0x0 DUP5 DUP5 ADD MSTORE JUMPDEST POP POP POP POP JUMP JUMPDEST PUSH1 0x0 PUSH1 0x1F NOT PUSH1 0x1F DUP4 ADD AND SWAP1 POP SWAP2 SWAP1 POP JUMP JUMPDEST PUSH1 0x0 PUSH2 0x1639 DUP3 PUSH2 0x15CE JUMP JUMPDEST PUSH2 0x1643 DUP2 DUP6 PUSH2 0x15D9 JUMP JUMPDEST SWAP4 POP PUSH2 0x1653 DUP2 DUP6 PUSH1 0x20 DUP7 ADD PUSH2 0x15EA JUMP JUMPDEST PUSH2 0x165C DUP2 PUSH2 0x161D JUMP JUMPDEST DUP5 ADD SWAP2 POP POP SWAP3 SWAP2 POP POP JUMP JUMPDEST PUSH1 0x0 PUSH1 0x20 DUP3 ADD SWAP1 POP DUP2 DUP2 SUB PUSH1 0x0 DUP4 ADD MSTORE PUSH2 0x1681 DUP2 DUP5 PUSH2 0x162E JUMP JUMPDEST SWAP1 POP SWAP3 SWAP2 POP POP JUMP JUMPDEST PUSH1 0x0 DUP2 MLOAD SWAP1 POP SWAP2 SWAP1 POP JUMP JUMPDEST PUSH1 0x0 DUP3 DUP3 MSTORE PUSH1 0x20 DUP3 ADD SWAP1 POP SWAP3 SWAP2 POP POP JUMP JUMPDEST PUSH1 0x0 DUP2 SWAP1 POP PUSH1 0x20 DUP3 ADD SWAP1 POP SWAP2 SWAP1 POP JUMP JUMPDEST PUSH2 0x16BE DUP2 PUSH2 0x14AA JUMP JUMPDEST DUP3 MSTORE POP POP JUMP JUMPDEST PUSH1 0x0 PUSH2 0x16D0 DUP4 DUP4 PUSH2 0x16B5 JUMP JUMPDEST PUSH1 0x20 DUP4 ADD SWAP1 POP SWAP3 SWAP2 POP POP JUMP JUMPDEST PUSH1 0x0 PUSH1 0x20 DUP3 ADD SWAP1 POP SWAP2 SWAP1 POP JUMP JUMPDEST PUSH1 0x0 PUSH2 0x16F4 DUP3 PUSH2 0x1689 JUMP JUMPDEST PUSH2 0x16FE DUP2 DUP6 PUSH2 0x1694 JUMP JUMPDEST SWAP4 POP PUSH2 0x1709 DUP4 PUSH2 0x16A5 JUMP JUMPDEST DUP1 PUSH1 0x0 JUMPDEST DUP4 DUP2 LT ISZERO PUSH2 0x173A JUMPI DUP2 MLOAD PUSH2 0x1721 DUP9 DUP3 PUSH2 0x16C4 JUMP JUMPDEST SWAP8 POP PUSH2 0x172C DUP4 PUSH2 0x16DC JUMP JUMPDEST SWAP3 POP POP PUSH1 0x1 DUP2 ADD SWAP1 POP PUSH2 0x170D JUMP JUMPDEST POP DUP6 SWAP4 POP POP POP POP SWAP3 SWAP2 POP POP JUMP JUMPDEST PUSH1 0x0 PUSH1 0xA0 DUP3 ADD SWAP1 POP DUP2 DUP2 SUB PUSH1 0x0 DUP4 ADD MSTORE PUSH2 0x1761 DUP2 DUP9 PUSH2 0x16E9 JUMP JUMPDEST SWAP1 POP DUP2 DUP2 SUB PUSH1 0x20 DUP4 ADD MSTORE PUSH2 0x1775 DUP2 DUP8 PUSH2 0x162E JUMP JUMPDEST SWAP1 POP DUP2 DUP2 SUB PUSH1 0x40 DUP4 ADD MSTORE PUSH2 0x1789 DUP2 DUP7 PUSH2 0x162E JUMP JUMPDEST SWAP1 POP PUSH2 0x1798 PUSH1 0x60 DUP4 ADD DUP6 PUSH2 0x15A4 JUMP JUMPDEST PUSH2 0x17A5 PUSH1 0x80 DUP4 ADD DUP5 PUSH2 0x15A4 JUMP JUMPDEST SWAP7 SWAP6 POP POP POP POP POP POP JUMP JUMPDEST PUSH2 0x17B8 DUP2 PUSH2 0x14AA JUMP JUMPDEST DUP2 EQ PUSH2 0x17C3 JUMPI PUSH1 0x0 DUP1 REVERT JUMPDEST POP JUMP JUMPDEST PUSH1 0x0 DUP2 CALLDATALOAD SWAP1 POP PUSH2 0x17D5 DUP2 PUSH2 0x17AF JUMP JUMPDEST SWAP3 SWAP2 POP POP JUMP JUMPDEST PUSH1 0x0 PUSH1 0x20 DUP3 DUP5 SUB SLT ISZERO PUSH2 0x17F1 JUMPI PUSH2 0x17F0 PUSH2 0x14DE JUMP JUMPDEST JUMPDEST PUSH1 0x0 PUSH2 0x17FF DUP5 DUP3 DUP6 ADD PUSH2 0x17C6 JUMP JUMPDEST SWAP2 POP POP SWAP3 SWAP2 POP POP JUMP JUMPDEST PUSH32 0x43616C6C6572206E6F7420616C6C6F7765640000000000000000000000000000 PUSH1 0x0 DUP3 ADD MSTORE POP JUMP JUMPDEST PUSH1 0x0 PUSH2 0x183E PUSH1 0x12 DUP4 PUSH2 0x15D9 JUMP JUMPDEST SWAP2 POP PUSH2 0x1849 DUP3 PUSH2 0x1808 JUMP JUMPDEST PUSH1 0x20 DUP3 ADD SWAP1 POP SWAP2 SWAP1 POP JUMP JUMPDEST PUSH1 0x0 PUSH1 0x20 DUP3 ADD SWAP1 POP DUP2 DUP2 SUB PUSH1 0x0 DUP4 ADD MSTORE PUSH2 0x186D DUP2 PUSH2 0x1831 JUMP JUMPDEST SWAP1 POP SWAP2 SWAP1 POP JUMP JUMPDEST PUSH32 0x53616C65206E6F7420656E646564207965740000000000000000000000000000 PUSH1 0x0 DUP3 ADD MSTORE POP JUMP JUMPDEST PUSH1 0x0 PUSH2 0x18AA PUSH1 0x12 DUP4 PUSH2 0x15D9 JUMP JUMPDEST SWAP2 POP PUSH2 0x18B5 DUP3 PUSH2 0x1874 JUMP JUMPDEST PUSH1 0x20 DUP3 ADD SWAP1 POP SWAP2 SWAP1 POP JUMP JUMPDEST PUSH1 0x0 PUSH1 0x20 DUP3 ADD SWAP1 POP DUP2 DUP2 SUB PUSH1 0x0 DUP4 ADD MSTORE PUSH2 0x18D9 DUP2 PUSH2 0x189D JUMP JUMPDEST SWAP1 POP SWAP2 SWAP1 POP JUMP JUMPDEST PUSH32 0x53616C65206469646E277420726561636820736F667420636170000000000000 PUSH1 0x0 DUP3 ADD MSTORE POP JUMP JUMPDEST PUSH1 0x0 PUSH2 0x1916 PUSH1 0x1A DUP4 PUSH2 0x15D9 JUMP JUMPDEST SWAP2 POP PUSH2 0x1921 DUP3 PUSH2 0x18E0 JUMP JUMPDEST PUSH1 0x20 DUP3 ADD SWAP1 POP SWAP2 SWAP1 POP JUMP JUMPDEST PUSH1 0x0 PUSH1 0x20 DUP3 ADD SWAP1 POP DUP2 DUP2 SUB PUSH1 0x0 DUP4 ADD MSTORE PUSH2 0x1945 DUP2 PUSH2 0x1909 JUMP JUMPDEST SWAP1 POP SWAP2 SWAP1 POP JUMP JUMPDEST PUSH1 0x0 DUP2 MLOAD SWAP1 POP PUSH2 0x195B DUP2 PUSH2 0x17AF JUMP JUMPDEST SWAP3 SWAP2 POP POP JUMP JUMPDEST PUSH1 0x0 PUSH1 0x20 DUP3 DUP5 SUB SLT ISZERO PUSH2 0x1977 JUMPI PUSH2 0x1976 PUSH2 0x14DE JUMP JUMPDEST JUMPDEST PUSH1 0x0 PUSH2 0x1985 DUP5 DUP3 DUP6 ADD PUSH2 0x194C JUMP JUMPDEST SWAP2 POP POP SWAP3 SWAP2 POP POP JUMP JUMPDEST PUSH1 0x0 PUSH1 0x60 DUP3 ADD SWAP1 POP PUSH2 0x19A3 PUSH1 0x0 DUP4 ADD DUP7 PUSH2 0x14B4 JUMP JUMPDEST PUSH2 0x19B0 PUSH1 0x20 DUP4 ADD DUP6 PUSH2 0x14B4 JUMP JUMPDEST PUSH2 0x19BD PUSH1 0x40 DUP4 ADD DUP5 PUSH2 0x15A4 JUMP JUMPDEST SWAP5 SWAP4 POP POP POP POP JUMP JUMPDEST PUSH1 0x0 PUSH1 0x60 DUP3 ADD SWAP1 POP PUSH2 0x19DA PUSH1 0x0 DUP4 ADD DUP7 PUSH2 0x15A4 JUMP JUMPDEST PUSH2 0x19E7 PUSH1 0x20 DUP4 ADD DUP6 PUSH2 0x14B4 JUMP JUMPDEST PUSH2 0x19F4 PUSH1 0x40 DUP4 ADD DUP5 PUSH2 0x14B4 JUMP JUMPDEST SWAP5 SWAP4 POP POP POP POP JUMP JUMPDEST PUSH32 0x4E487B7100000000000000000000000000000000000000000000000000000000 PUSH1 0x0 MSTORE PUSH1 0x22 PUSH1 0x4 MSTORE PUSH1 0x24 PUSH1 0x0 REVERT JUMPDEST PUSH1 0x0 PUSH1 0x2 DUP3 DIV SWAP1 POP PUSH1 0x1 DUP3 AND DUP1 PUSH2 0x1A43 JUMPI PUSH1 0x7F DUP3 AND SWAP2 POP JUMPDEST PUSH1 0x20 DUP3 LT DUP2 EQ ISZERO PUSH2 0x1A57 JUMPI PUSH2 0x1A56 PUSH2 0x19FC JUMP JUMPDEST JUMPDEST POP SWAP2 SWAP1 POP JUMP JUMPDEST PUSH32 0x53616C65206469646E277420656E640000000000000000000000000000000000 PUSH1 0x0 DUP3 ADD MSTORE POP JUMP JUMPDEST PUSH1 0x0 PUSH2 0x1A93 PUSH1 0xF DUP4 PUSH2 0x15D9 JUMP JUMPDEST SWAP2 POP PUSH2 0x1A9E DUP3 PUSH2 0x1A5D JUMP JUMPDEST PUSH1 0x20 DUP3 ADD SWAP1 POP SWAP2 SWAP1 POP JUMP JUMPDEST PUSH1 0x0 PUSH1 0x20 DUP3 ADD SWAP1 POP DUP2 DUP2 SUB PUSH1 0x0 DUP4 ADD MSTORE PUSH2 0x1AC2 DUP2 PUSH2 0x1A86 JUMP JUMPDEST SWAP1 POP SWAP2 SWAP1 POP JUMP JUMPDEST PUSH32 0x736F667420636170206973207265616368656400000000000000000000000000 PUSH1 0x0 DUP3 ADD MSTORE POP JUMP JUMPDEST PUSH1 0x0 PUSH2 0x1AFF PUSH1 0x13 DUP4 PUSH2 0x15D9 JUMP JUMPDEST SWAP2 POP PUSH2 0x1B0A DUP3 PUSH2 0x1AC9 JUMP JUMPDEST PUSH1 0x20 DUP3 ADD SWAP1 POP SWAP2 SWAP1 POP JUMP JUMPDEST PUSH1 0x0 PUSH1 0x20 DUP3 ADD SWAP1 POP DUP2 DUP2 SUB PUSH1 0x0 DUP4 ADD MSTORE PUSH2 0x1B2E DUP2 PUSH2 0x1AF2 JUMP JUMPDEST SWAP1 POP SWAP2 SWAP1 POP JUMP JUMPDEST PUSH32 0x4E6F206465706F73697473000000000000000000000000000000000000000000 PUSH1 0x0 DUP3 ADD MSTORE POP JUMP JUMPDEST PUSH1 0x0 PUSH2 0x1B6B PUSH1 0xB DUP4 PUSH2 0x15D9 JUMP JUMPDEST SWAP2 POP PUSH2 0x1B76 DUP3 PUSH2 0x1B35 JUMP JUMPDEST PUSH1 0x20 DUP3 ADD SWAP1 POP SWAP2 SWAP1 POP JUMP JUMPDEST PUSH1 0x0 PUSH1 0x20 DUP3 ADD SWAP1 POP DUP2 DUP2 SUB PUSH1 0x0 DUP4 ADD MSTORE PUSH2 0x1B9A DUP2 PUSH2 0x1B5E JUMP JUMPDEST SWAP1 POP SWAP2 SWAP1 POP JUMP JUMPDEST PUSH32 0x4E487B7100000000000000000000000000000000000000000000000000000000 PUSH1 0x0 MSTORE PUSH1 0x41 PUSH1 0x4 MSTORE PUSH1 0x24 PUSH1 0x0 REVERT JUMPDEST PUSH32 0x4E487B7100000000000000000000000000000000000000000000000000000000 PUSH1 0x0 MSTORE PUSH1 0x32 PUSH1 0x4 MSTORE PUSH1 0x24 PUSH1 0x0 REVERT JUMPDEST PUSH32 0x53616C65206973206E6F74206F70656E20796574000000000000000000000000 PUSH1 0x0 DUP3 ADD MSTORE POP JUMP JUMPDEST PUSH1 0x0 PUSH2 0x1C35 PUSH1 0x14 DUP4 PUSH2 0x15D9 JUMP JUMPDEST SWAP2 POP PUSH2 0x1C40 DUP3 PUSH2 0x1BFF JUMP JUMPDEST PUSH1 0x20 DUP3 ADD SWAP1 POP SWAP2 SWAP1 POP JUMP JUMPDEST PUSH1 0x0 PUSH1 0x20 DUP3 ADD SWAP1 POP DUP2 DUP2 SUB PUSH1 0x0 DUP4 ADD MSTORE PUSH2 0x1C64 DUP2 PUSH2 0x1C28 JUMP JUMPDEST SWAP1 POP SWAP2 SWAP1 POP JUMP JUMPDEST PUSH32 0x53616C6520697320616C726561647920636C6F73656400000000000000000000 PUSH1 0x0 DUP3 ADD MSTORE POP JUMP JUMPDEST PUSH1 0x0 PUSH2 0x1CA1 PUSH1 0x16 DUP4 PUSH2 0x15D9 JUMP JUMPDEST SWAP2 POP PUSH2 0x1CAC DUP3 PUSH2 0x1C6B JUMP JUMPDEST PUSH1 0x20 DUP3 ADD SWAP1 POP SWAP2 SWAP1 POP JUMP JUMPDEST PUSH1 0x0 PUSH1 0x20 DUP3 ADD SWAP1 POP DUP2 DUP2 SUB PUSH1 0x0 DUP4 ADD MSTORE PUSH2 0x1CD0 DUP2 PUSH2 0x1C94 JUMP JUMPDEST SWAP1 POP SWAP2 SWAP1 POP JUMP JUMPDEST PUSH32 0x4E487B7100000000000000000000000000000000000000000000000000000000 PUSH1 0x0 MSTORE PUSH1 0x11 PUSH1 0x4 MSTORE PUSH1 0x24 PUSH1 0x0 REVERT JUMPDEST PUSH1 0x0 PUSH2 0x1D11 DUP3 PUSH2 0x14AA JUMP JUMPDEST SWAP2 POP PUSH2 0x1D1C DUP4 PUSH2 0x14AA JUMP JUMPDEST SWAP3 POP DUP3 PUSH32 0xFFFFFFFFFFFFFFFFFFFFFFFFFFFFFFFFFFFFFFFFFFFFFFFFFFFFFFFFFFFFFFFF SUB DUP3 GT ISZERO PUSH2 0x1D51 JUMPI PUSH2 0x1D50 PUSH2 0x1CD7 JUMP JUMPDEST JUMPDEST DUP3 DUP3 ADD SWAP1 POP SWAP3 SWAP2 POP POP JUMP JUMPDEST PUSH32 0x4861726463617020726561636865640000000000000000000000000000000000 PUSH1 0x0 DUP3 ADD MSTORE POP JUMP JUMPDEST PUSH1 0x0 PUSH2 0x1D92 PUSH1 0xF DUP4 PUSH2 0x15D9 JUMP JUMPDEST SWAP2 POP PUSH2 0x1D9D DUP3 PUSH2 0x1D5C JUMP JUMPDEST PUSH1 0x20 DUP3 ADD SWAP1 POP SWAP2 SWAP1 POP JUMP JUMPDEST PUSH1 0x0 PUSH1 0x20 DUP3 ADD SWAP1 POP DUP2 DUP2 SUB PUSH1 0x0 DUP4 ADD MSTORE PUSH2 0x1DC1 DUP2 PUSH2 0x1D85 JUMP JUMPDEST SWAP1 POP SWAP2 SWAP1 POP JUMP JUMPDEST PUSH1 0x0 PUSH1 0x60 DUP3 ADD SWAP1 POP PUSH2 0x1DDD PUSH1 0x0 DUP4 ADD DUP7 PUSH2 0x15A4 JUMP JUMPDEST PUSH2 0x1DEA PUSH1 0x20 DUP4 ADD DUP6 PUSH2 0x15A4 JUMP JUMPDEST PUSH2 0x1DF7 PUSH1 0x40 DUP4 ADD DUP5 PUSH2 0x14B4 JUMP JUMPDEST SWAP5 SWAP4 POP POP POP POP JUMP JUMPDEST PUSH2 0x1E08 DUP2 PUSH2 0x156E JUMP JUMPDEST DUP2 EQ PUSH2 0x1E13 JUMPI PUSH1 0x0 DUP1 REVERT JUMPDEST POP JUMP JUMPDEST PUSH1 0x0 DUP2 MLOAD SWAP1 POP PUSH2 0x1E25 DUP2 PUSH2 0x1DFF JUMP JUMPDEST SWAP3 SWAP2 POP POP JUMP JUMPDEST PUSH1 0x0 PUSH1 0x20 DUP3 DUP5 SUB SLT ISZERO PUSH2 0x1E41 JUMPI PUSH2 0x1E40 PUSH2 0x14DE JUMP JUMPDEST JUMPDEST PUSH1 0x0 PUSH2 0x1E4F DUP5 DUP3 DUP6 ADD PUSH2 0x1E16 JUMP JUMPDEST SWAP2 POP POP SWAP3 SWAP2 POP POP JUMP JUMPDEST PUSH32 0x6E6F7420656E6F75676820746F6B656E732073656E6465640000000000000000 PUSH1 0x0 DUP3 ADD MSTORE POP JUMP JUMPDEST PUSH1 0x0 PUSH2 0x1E8E PUSH1 0x18 DUP4 PUSH2 0x15D9 JUMP JUMPDEST SWAP2 POP PUSH2 0x1E99 DUP3 PUSH2 0x1E58 JUMP JUMPDEST PUSH1 0x20 DUP3 ADD SWAP1 POP SWAP2 SWAP1 POP JUMP JUMPDEST PUSH1 0x0 PUSH1 0x20 DUP3 ADD SWAP1 POP DUP2 DUP2 SUB PUSH1 0x0 DUP4 ADD MSTORE PUSH2 0x1EBD DUP2 PUSH2 0x1E81 JUMP JUMPDEST SWAP1 POP SWAP2 SWAP1 POP JUMP JUMPDEST PUSH1 0x0 PUSH2 0x1ECF DUP3 PUSH2 0x14AA JUMP JUMPDEST SWAP2 POP PUSH32 0xFFFFFFFFFFFFFFFFFFFFFFFFFFFFFFFFFFFFFFFFFFFFFFFFFFFFFFFFFFFFFFFF DUP3 EQ ISZERO PUSH2 0x1F02 JUMPI PUSH2 0x1F01 PUSH2 0x1CD7 JUMP JUMPDEST JUMPDEST PUSH1 0x1 DUP3 ADD SWAP1 POP SWAP2 SWAP1 POP JUMP JUMPDEST PUSH1 0x0 PUSH1 0x40 DUP3 ADD SWAP1 POP PUSH2 0x1F22 PUSH1 0x0 DUP4 ADD DUP6 PUSH2 0x15A4 JUMP JUMPDEST PUSH2 0x1F2F PUSH1 0x20 DUP4 ADD DUP5 PUSH2 0x15A4 JUMP JUMPDEST SWAP4 SWAP3 POP POP POP JUMP JUMPDEST PUSH1 0x0 PUSH1 0x40 DUP3 ADD SWAP1 POP PUSH2 0x1F4B PUSH1 0x0 DUP4 ADD DUP6 PUSH2 0x14B4 JUMP JUMPDEST PUSH2 0x1F58 PUSH1 0x20 DUP4 ADD DUP5 PUSH2 0x15A4 JUMP JUMPDEST SWAP4 SWAP3 POP POP POP JUMP JUMPDEST PUSH32 0x4F776E61626C653A206E6577206F776E657220697320746865207A65726F2061 PUSH1 0x0 DUP3 ADD MSTORE PUSH32 0x6464726573730000000000000000000000000000000000000000000000000000 PUSH1 0x20 DUP3 ADD MSTORE POP JUMP JUMPDEST PUSH1 0x0 PUSH2 0x1FBB PUSH1 0x26 DUP4 PUSH2 0x15D9 JUMP JUMPDEST SWAP2 POP PUSH2 0x1FC6 DUP3 PUSH2 0x1F5F JUMP JUMPDEST PUSH1 0x40 DUP3 ADD SWAP1 POP SWAP2 SWAP1 POP JUMP JUMPDEST PUSH1 0x0 PUSH1 0x20 DUP3 ADD SWAP1 POP DUP2 DUP2 SUB PUSH1 0x0 DUP4 ADD MSTORE PUSH2 0x1FEA DUP2 PUSH2 0x1FAE JUMP JUMPDEST SWAP1 POP SWAP2 SWAP1 POP JUMP JUMPDEST PUSH1 0x0 PUSH1 0x40 DUP3 ADD SWAP1 POP PUSH2 0x2006 PUSH1 0x0 DUP4 ADD DUP6 PUSH2 0x15A4 JUMP JUMPDEST PUSH2 0x2013 PUSH1 0x20 DUP4 ADD DUP5 PUSH2 0x14B4 JUMP JUMPDEST SWAP4 SWAP3 POP POP POP JUMP JUMPDEST PUSH32 0x4F776E61626C653A2063616C6C6572206973206E6F7420746865206F776E6572 PUSH1 0x0 DUP3 ADD MSTORE POP JUMP JUMPDEST PUSH1 0x0 PUSH2 0x2050 PUSH1 0x20 DUP4 PUSH2 0x15D9 JUMP JUMPDEST SWAP2 POP PUSH2 0x205B DUP3 PUSH2 0x201A JUMP JUMPDEST PUSH1 0x20 DUP3 ADD SWAP1 POP SWAP2 SWAP1 POP JUMP JUMPDEST PUSH1 0x0 PUSH1 0x20 DUP3 ADD SWAP1 POP DUP2 DUP2 SUB PUSH1 0x0 DUP4 ADD MSTORE PUSH2 0x207F DUP2 PUSH2 0x2043 JUMP JUMPDEST SWAP1 POP SWAP2 SWAP1 POP JUMP INVALID LOG2 PUSH5 0x6970667358 0x22 SLT KECCAK256 PUSH20 0xD50A165C4BDBCF40F27AA60B46486745829C620E MSIZE 0x5D 0x2C 0xB8 0xC4 JUMPDEST 0x22 MUL DUP11 DUP14 0xC5 PUSH5 0x736F6C6343 STOP ADDMOD 0xC STOP CALLER LOG2 PUSH5 0x6970667358 0x22 SLT KECCAK256 SWAP8 0xF7 ADDRESS PUSH1 0x1C DUP14 LOG3 ISZERO CALLDATALOAD ISZERO LOG2 CODESIZE 0xB8 DUP13 0xD3 PUSH12 0x4C592FAC684A09FFCE1E9DAC PUSH8 0x91DA7064736F6C63 NUMBER STOP ADDMOD 0xC STOP CALLER "
		},
		"gasEstimates": {
			"creation": {
				"codeDepositCost": "3776000",
				"executionCost": "infinite",
				"totalCost": "infinite"
			},
			"external": {
				"addToUserLaunchpad(address,address)": "infinite",
				"createLaunchpad(uint256[],uint256[],address,string,string)": "infinite",
				"deployCost()": "2452",
				"getDeployedLaunchpads(uint256,uint256)": "infinite",
				"getStats()": "infinite",
				"getUserContributions(address)": "infinite",
				"launchpadById(uint256)": "2906",
				"launchpadCount()": "2495",
				"launchpadIdByAddress(address)": "2836",
				"owner()": "2567",
				"renounceOwnership()": "30466",
				"setPrice(uint256)": "24873",
				"totalInvested(address)": "2881",
				"totalParticipants()": "2452",
				"transferOwnership(address)": "30857",
				"updateStats(uint256,uint256,address)": "infinite",
				"userLaunchpadInvested(address,uint256)": "infinite"
			}
		},
		"methodIdentifiers": {
			"addToUserLaunchpad(address,address)": "bf21695f",
			"createLaunchpad(uint256[],uint256[],address,string,string)": "75102dd2",
			"deployCost()": "7788a7ee",
			"getDeployedLaunchpads(uint256,uint256)": "2e1114ec",
			"getStats()": "c59d4847",
			"getUserContributions(address)": "e36465a3",
			"launchpadById(uint256)": "bda40d5c",
			"launchpadCount()": "cbcab787",
			"launchpadIdByAddress(address)": "c3f296a3",
			"owner()": "8da5cb5b",
			"renounceOwnership()": "715018a6",
			"setPrice(uint256)": "91b7f5ed",
			"totalInvested(address)": "90838e09",
			"totalParticipants()": "a26dbf26",
			"transferOwnership(address)": "f2fde38b",
			"updateStats(uint256,uint256,address)": "67db08de",
			"userLaunchpadInvested(address,uint256)": "b12821eb"
		}
	},
	"abi": [
		{
			"anonymous": false,
			"inputs": [
				{
					"indexed": true,
					"internalType": "address",
					"name": "previousOwner",
					"type": "address"
				},
				{
					"indexed": true,
					"internalType": "address",
					"name": "newOwner",
					"type": "address"
				}
			],
			"name": "OwnershipTransferred",
			"type": "event"
		},
		{
			"anonymous": false,
			"inputs": [
				{
					"indexed": false,
					"internalType": "address",
					"name": "newTokenAddress",
					"type": "address"
				},
				{
					"indexed": false,
					"internalType": "address",
					"name": "deployer",
					"type": "address"
				}
			],
			"name": "launchpadDeployed",
			"type": "event"
		},
		{
			"inputs": [
				{
					"internalType": "address",
					"name": "_user",
					"type": "address"
				},
				{
					"internalType": "address",
					"name": "_launchpad",
					"type": "address"
				}
			],
			"name": "addToUserLaunchpad",
			"outputs": [],
			"stateMutability": "nonpayable",
			"type": "function"
		},
		{
			"inputs": [
				{
					"internalType": "uint256[]",
					"name": "_caps",
					"type": "uint256[]"
				},
				{
					"internalType": "uint256[]",
					"name": "_times",
					"type": "uint256[]"
				},
				{
					"internalType": "address",
					"name": "_tokenAccepted",
					"type": "address"
				},
				{
					"internalType": "string",
					"name": "_projectName",
					"type": "string"
				},
				{
					"internalType": "string",
					"name": "_projectSymbol",
					"type": "string"
				}
			],
			"name": "createLaunchpad",
			"outputs": [],
			"stateMutability": "payable",
			"type": "function"
		},
		{
			"inputs": [],
			"name": "deployCost",
			"outputs": [
				{
					"internalType": "uint256",
					"name": "",
					"type": "uint256"
				}
			],
			"stateMutability": "view",
			"type": "function"
		},
		{
			"inputs": [
				{
					"internalType": "uint256",
					"name": "startIndex",
					"type": "uint256"
				},
				{
					"internalType": "uint256",
					"name": "endIndex",
					"type": "uint256"
				}
			],
			"name": "getDeployedLaunchpads",
			"outputs": [
				{
					"internalType": "address[]",
					"name": "",
					"type": "address[]"
				}
			],
			"stateMutability": "view",
			"type": "function"
		},
		{
			"inputs": [],
			"name": "getStats",
			"outputs": [
				{
					"internalType": "uint256",
					"name": "_projects",
					"type": "uint256"
				},
				{
					"internalType": "uint256",
					"name": "_participants",
					"type": "uint256"
				}
			],
			"stateMutability": "view",
			"type": "function"
		},
		{
			"inputs": [
				{
					"internalType": "address",
					"name": "_user",
					"type": "address"
				}
			],
			"name": "getUserContributions",
			"outputs": [
				{
					"internalType": "uint256[]",
					"name": "ids",
					"type": "uint256[]"
				},
				{
					"internalType": "uint256[]",
					"name": "contributions",
					"type": "uint256[]"
				}
			],
			"stateMutability": "view",
			"type": "function"
		},
		{
			"inputs": [
				{
					"internalType": "uint256",
					"name": "",
					"type": "uint256"
				}
			],
			"name": "launchpadById",
			"outputs": [
				{
					"internalType": "address",
					"name": "",
					"type": "address"
				}
			],
			"stateMutability": "view",
			"type": "function"
		},
		{
			"inputs": [],
			"name": "launchpadCount",
			"outputs": [
				{
					"internalType": "uint256",
					"name": "",
					"type": "uint256"
				}
			],
			"stateMutability": "view",
			"type": "function"
		},
		{
			"inputs": [
				{
					"internalType": "address",
					"name": "",
					"type": "address"
				}
			],
			"name": "launchpadIdByAddress",
			"outputs": [
				{
					"internalType": "uint256",
					"name": "",
					"type": "uint256"
				}
			],
			"stateMutability": "view",
			"type": "function"
		},
		{
			"inputs": [],
			"name": "owner",
			"outputs": [
				{
					"internalType": "address",
					"name": "",
					"type": "address"
				}
			],
			"stateMutability": "view",
			"type": "function"
		},
		{
			"inputs": [],
			"name": "renounceOwnership",
			"outputs": [],
			"stateMutability": "nonpayable",
			"type": "function"
		},
		{
			"inputs": [
				{
					"internalType": "uint256",
					"name": "_price",
					"type": "uint256"
				}
			],
			"name": "setPrice",
			"outputs": [],
			"stateMutability": "nonpayable",
			"type": "function"
		},
		{
			"inputs": [
				{
					"internalType": "address",
					"name": "",
					"type": "address"
				}
			],
			"name": "totalInvested",
			"outputs": [
				{
					"internalType": "uint256",
					"name": "",
					"type": "uint256"
				}
			],
			"stateMutability": "view",
			"type": "function"
		},
		{
			"inputs": [],
			"name": "totalParticipants",
			"outputs": [
				{
					"internalType": "uint256",
					"name": "",
					"type": "uint256"
				}
			],
			"stateMutability": "view",
			"type": "function"
		},
		{
			"inputs": [
				{
					"internalType": "address",
					"name": "newOwner",
					"type": "address"
				}
			],
			"name": "transferOwnership",
			"outputs": [],
			"stateMutability": "nonpayable",
			"type": "function"
		},
		{
			"inputs": [
				{
					"internalType": "uint256",
					"name": "_invested",
					"type": "uint256"
				},
				{
					"internalType": "uint256",
					"name": "_contributors",
					"type": "uint256"
				},
				{
					"internalType": "address",
					"name": "paymentToken",
					"type": "address"
				}
			],
			"name": "updateStats",
			"outputs": [],
			"stateMutability": "nonpayable",
			"type": "function"
		},
		{
			"inputs": [
				{
					"internalType": "address",
					"name": "",
					"type": "address"
				},
				{
					"internalType": "uint256",
					"name": "",
					"type": "uint256"
				}
			],
			"name": "userLaunchpadInvested",
			"outputs": [
				{
					"internalType": "address",
					"name": "",
					"type": "address"
				}
			],
			"stateMutability": "view",
			"type": "function"
		}
	]
}